:020000041000EA
:1000000000B5324B212058609868022188439860DF
:10001000D860186158612E4B002199600221596106
:100020000121F02299502B49196001219960352056
:1000300000F044F80222904214D00621196600F024
:1000400034F8196E01211966002018661A6600F04E
:100050002CF8196E196E196E052000F02FF8012189
:100060000842F9D1002199601B49196000215960AB
:100070001A491B48016001219960EB211966A021F2
:10008000196600F012F800219960164914480160C1
:100090000121996001BC002800D000471248134993
:1000A000086003C880F30888084703B5996A0420EC
:1000B0000142FBD001200142F8D103BD02B5186610
:1000C0001866FFF7F2FF186E186E02BD00000240BE
:1000D000000000180000070000035F00212200005C
:1000E000F4000018222000A00001001008ED00E03C
:1000F00000000000000000000000000074B24E7A12
:1001000000200420F7010010C3010010C5010010F9
:10011000C1010010C1010010C1010010C101001097
:10012000C1010010C1010010C1010010C701001081
:10013000C1010010C1010010C9010010CB01001065
:10014000CD010010CD010010CD010010CD01001037
:10015000CD010010CD010010CD010010CD01001027
:10016000CD010010CD010010CD010010CD01001017
:10017000CD010010CD010010CD010010CD01001007
:10018000CD010010CD010010CD010010CD010010F7
:10019000CD010010CD010010CD010010CD010010E7
:1001A000CD010010CD010010CD010010CD010010D7
:1001B000CD010010CD010010CD010010CD010010C7
:1001C00000BE00BE00BE00BE00BE00BEEFF3058054
:1001D000103800BEF2EB8871587A00107C7A00105B
:1001E0003402001090A31AE700201F49086006C8D7
:1001F00081F3088810471D48006800282FD10DA4FE
:100200000ECC002902D000F012F8F9E71849194A7B
:10021000002000E001C19142FCD1174988471749ED
:1002200088471749884700BEFDE701C901C29A42C5
:10023000FBD370477C7A0010C0000020E00C002047
:100240009C86001000000420000004209C86001002
:10025000001004200010042000000000704709482E
:1002600003F0A6FF0047000008ED00E0000000D00A
:10027000E00C0020101200202D2F0010190F00108C
:10028000E92E00105756000006005250ABB36053E1
:10029000E876001006005250861C0302F876001023
:1002A000060052505422A29D0077001005005250C3
:1002B000DE65F4689C860010F8B5C0460448054B1E
:1002C00010B5834203D0044B002B00D0984710BDDB
:1002D000E00C0020E00C0020000000000648074968
:1002E000091A8B10C90FC91810B5491003D0044B57
:1002F000002B00D0984710BDE00C0020E00C00203F
:100300000000000010B5074C2378002B09D1FFF73F
:10031000D5FF054B002B02D0044800E000BF0123AD
:10032000237010BDE00D002000000000506400109C
:10033000054B10B5002B03D00449054800E000BF71
:10034000FFF7CCFF10BDC04600000000E40D002008
:10035000506400100160C2600023436083607047F6
:1003600070B504000D008668701CE16803F074FF2E
:1003700063688B4204D023689D55A160012070BD45
:100380000020FCE710B5030082684168501AD96864
:10039000401803F061FF080010BD10B5C468FFF7F6
:1003A000F1FF201A013810BD002905D1102801D015
:1003B000012070470020FCE7102801D00320F8E757
:1003C0000E38F6E770B50E003930FF300500FFF744
:1003D000E4FF7F2808D9002404E0315D2800FFF7FE
:1003E000BFFF01347F2CF8D970BD012801D0202037
:1003F0007047C8B2FCE700000100002008E0A0221E
:10040000D205094BD258012383401A420BD1013047
:100410000B2806D80029F2D0A022D205034BD258CF
:10042000F1E70120404270470C0400001C0400006A
:1004300010B50023012B0CD81A000C329200125870
:100440008A4202D00133DBB2F4E73830DC01001914
:1004500000E0002010BD0000F8B50700FFF7CCFF5A
:100460000400431C0DD0BB00134A9E58002E08D038
:1004700001003000FFF7DCFF051E02D0337C002BAB
:1004800000D0F8BD01003000FFF79CFF002F0CD01A
:100490000123A340A021C905084A8B50A401A02331
:1004A000DB059C4664446560EBE70123A340A02183
:1004B000C905034A8B50F1E7340E00201C040000EC
:1004C0000C04000010B50020FFF7C6FF10BD10B5EA
:1004D0000120FFF7C1FF10BD70B50400036A002BB7
:1004E0000FD02420255C1A680121A9408A431A6094
:1004F000215C206A05F042F9E26AA16A206A05F0EF
:10050000ABF970BD10B50C2906D8064B0268134034
:10051000C9021943016010BD034B044AC3210448BA
:1005200002F0E6FCFF87FFFF5064001070640010CB
:10053000AC64001010B53F2906D8064B0268134082
:10054000C9031943016010BD034B044AB521044897
:1005500002F0CEFCFF7FE0FF0C650010206500106C
:10056000AC64001010B50378002B08D100210B20DB
:1005700000F01AFF06490B2000F050FF10BD0021CB
:100580000C2000F011FF03490C2000F047FFF5E7B5
:10059000C5040010CF04001010B50378002B08D15B
:1005A00008490B2000F010FF01210B2000F0FCFE99
:1005B00010BD05490C2000F007FF01210C2000F0C0
:1005C000F3FEF5E7C5040010CF040010F0B587B0C6
:1005D000040000250020237C012B00D1B6E0854BD0
:1005E000A3620026012E00D8BAE0002D00D1FAE067
:1005F000002800D1FAE027620021380005F0CEF88B
:1006000024256055A16A206A05F00AF90200E0621B
:10061000615D0023206A05F0E7F91022002102A89D
:1006200004F09AFD80235B020293F8235B0203939C
:100630008023DB020493C0231B030493656911210B
:100640006156207CFFF7D1FE6843800004F08CFCEB
:10065000051C052002F078FB04F080FC291C04F046
:100660005EFC061C04F0A2FC85B2002D00D195E0D2
:10067000280004F073FC011C301C04F046FC8721A8
:10068000C90504F062FC04F091FCC0B200022D0424
:1006900005430295207C012800D181E0059B019350
:1006A000554B019A1340E268D2031343059311217D
:1006B0006156FFF79AFE049B0193504A1A4080232B
:1006C0005B0213430005F8225204104018430490C3
:1006D0008000800880231B0618430490059B01932B
:1006E000DB00DB088021C90519430591039B0193B9
:1006F000434A1A400392434B194063689B021943D3
:100700000591E56AA36A1879281801383E4B134011
:10071000ED012B43000303430393256A2422A45CC9
:1007200060000219D200AA181600C836029F37606E
:1007300004363360049BD03213600019C0002818BF
:100740000300DC331960002007B0F0BD1123E3562D
:10075000102B02D02D4BA36243E72D4BA36240E741
:10076000B3002C4A9F580025032D08D829003800D3
:1007700005F032F800280FD00135EDB2F4E700257E
:10078000A16A380005F038F8002D02D0002800D00A
:100790002BE70136F6B225E70125F1E7002075E7E2
:1007A000059B01931C4B019A1340E2681A43802376
:1007B0005B031343059311216156FFF716FE049B5B
:1007C0000193164A1A4080239B0213434006F822E5
:1007D0009205104018430490800080088023DB05B8
:1007E000184304907AE701204042ADE702204042DE
:1007F000AAE7C046A4660010FF7FF0FFFFFF0AFED5
:10080000FFFFFF9FFF83FFFF7F00FEFFB466001026
:10081000AC660010DC660010E0FF0FFCFFFFF5C1C6
:10082000F0B5C64600B505000E00140006AA127801
:1008300090460127A740A3401A003B0005F038F876
:100840004246A2403B003100280005F07FF8064BED
:100850009D4206D00721200000F04AFC80BCB8462B
:10086000F0BD0621F7E7C0460000205070B582B009
:1008700004002426815D0125009500234268006A5A
:10088000FFF7CEFFA15D00950023A268206AFFF765
:10089000C7FF237C012B09D02423E15C00230093B4
:1008A000E268206AFFF7BCFF02B070BDA15D009551
:1008B0000023E268206AFFF7B3FFF5E770B5040094
:1008C0000D0004F067FD6368A26893420AD02268B5
:1008D000D35C2B706368581CE16803F0BDFC616059
:1008E000012070BD0020FCE7F0B5DE4657464E46BD
:1008F0004546E0B583B006000F681123C356102BA0
:1009000010D00423B27C012A0ED001225A43934610
:100910004C681100082003F077FC604380460023F8
:100920009A4648E00E3BEDE70132EFE779193000D7
:100930003930FF30FFF7C2FF0028F7D001239C4673
:10094000E2440DE0337F002B2AD0022B49D1300046
:100950003930FF306B46D91DFFF7B0FF002838D083
:1009600001235B429C46E0440134E4B2072C21D8C9
:100970004B46DA001C4B9B181D576B1CE2D0337F93
:10098000002BD3D0022B22D1791930003930FF301F
:10099000FFF794FF00281CD001239C46E244DFE7C8
:1009A00030003930FF306B46D91DFFF787FF002834
:1009B000F6D0D5E75F444346002B0AD0B17C112026
:1009C0003056FFF7F1FCC3B299460024CEE700236E
:1009D0009A46504603B0F0BCBB46B246A946A04674
:1009E000F0BD00239A46F4E7BC66001070B584B0F1
:1009F00005000C001600037C002B20D1112141566C
:100A0000CA17073313405B18DB10DBB2827C012A64
:100A10000CD001215943C9B2300003F01DFC00295C
:100A200010D1002E04D1002004B070BD0221F1E7E6
:100A30000194029601A92800FFF756FFF4E7012070
:100A40004042F1E702204042EEE7000070B50500A9
:100A500000241BE01B4B1C4AC3211C4802F048FA2F
:100A6000012383401A4A136001238340A021C90552
:100A7000184A8B508301A022D20594466344DB6858
:100A8000DB01F7D405F022F80134E4B2012C18D8C8
:100A900023000C339B0058598201A023DB059C46A0
:100AA0006244D3680C28D5D80B490B40C1020B43D4
:100AB00013612B78002BD3D001238340074A1360A6
:100AC000D2E770BD5064001070640010AC64001078
:100AD0000434005044040000FF87FFFF143400502A
:100AE00010B50400036A002B0ED0FFF7F5FC2000C0
:100AF000FFF7ACFF2000FFF735FDA4235B00E058B3
:100B000004F012FB0023236210BD0000F0B5CE46B6
:100B1000474680B583B006000024002501E001347B
:100B2000E4B20B2C07D8200004F0E8FF0028F6D12F
:100B30000135EDB2F3E7012D06D80120404203B0A4
:100B4000C0BCB946B046F0BD0024012C09D8002035
:100B500004F0C4FF23000C339B00F0500134E4B2D6
:100B6000F3E711217156307CFFF73FFC102802D0CB
:100B70000227002471E00127FBE7704B704AC32174
:100B8000704802F0B5F9704B704AD1216D4802F0FF
:100B9000AFF92333F15C6E4B326A9A422CD00823B2
:100BA000C91801A8FFF7C6FC1023019A134301934B
:100BB0002022934301930C35AD00AD592423F35CFF
:100BC00004339B00326A9146994411217156307C5E
:100BD000FFF70BFCC108C9B2802003F015FBAB0185
:100BE000A022D2059446634442461A604A465A609F
:100BF0009860019A1A612EE00023D1E70023C918FA
:100C000001A8FFF797FC1023019A9A431300019261
:100C10002022134301930C35AD00AD592423F35C1E
:100C200008339B00326A9146994411217156307CF9
:100C3000FFF7DBFBC108C9B2802003F0E5FAAB0186
:100C4000A022D205944663444A461A6042465A603E
:100C50009860019A1A610134E4B2012C41D8250050
:100C600023000C339B009A593A4B0C2A85D83A49F9
:100C70000B40D20213430C229343043A1343374AE6
:100C80001340374A1340374A134001221343364A70
:100C90001340022293430193022F00D973E70C23E0
:100CA000019A9A431300BA0013430193621C012373
:100CB00013400C339B00995901A8FFF723FC330024
:100CC0003833E20198469044337C012B00D160E731
:100CD0002423F15C04311E4B326A9A428ED00823E1
:100CE0008DE700230CE001218140A024E4051F488A
:100CF000215015E001228A401D490A600133DBB210
:100D0000012B18D834781A0019000C318900885941
:100D1000002CE8D001218140A024E4051548215091
:100D200030780C32920091590028E3D001228A4099
:100D300011490A60E2E7002001E7C0465064001054
:100D400070640010AC640010586500109C650010C1
:100D50000000205010801F00FF87FFFF3FF8FFFFBB
:100D6000FFFFBFFFFFFFDFFFFFFF7FFF0C0400005F
:100D7000042400501C04000014240050F0B5D64692
:100D80004F464646C0B504000E001500984608AB15
:100D90001B789A4609AB1B785BB299460AAB1F7861
:100DA0004B1C934250D15346012B50D84B46102B2D
:100DB00001D0202B4ED1012F4FD80B9B002B4FDDA4
:100DC000180004F093F90100A4235B00E050200018
:100DD0003930FF300B9AFFF7BDFA6660A5604346D5
:100DE000E360534623744B466374A7740C9B6361A2
:100DF0000B9BA361002323772000FFF7CDFB20008E
:100E0000FFF7E4FB002804D0E0BCBA46B146A84690
:100E1000F0BD2000FFF72AFD2000FFF777FE002835
:100E2000F2D1256A2423E25C2968233B1E00964008
:100E30003200B1430A432A60226B9340A021C905C6
:100E40008622D2008B50DFE701204042DCE70220FF
:100E50004042D9E703204042D6E704204042D3E78E
:100E600005204042D0E70000F0B5DE4657464E462A
:100E70004546E0B587B0050089469246984610ABD6
:100E80001E7811AB0027DF5712AB1B789B46012859
:100E900029D88300164A9C58002C1AD02000FFF74E
:100EA0001FFE149B0493139B03935B4602930197CD
:100EB00000964346524649462000FFF75FFF002850
:100EC00013D1200007B0F0BCBB46B246A946A046ED
:100ED000F0BDA620400004F009F90400AA00044B6C
:100EE000D0500570DDE70024EBE70024E9E7C046B9
:100EF000340E002010B504F099FA0F2000F02AF902
:100F0000D0231B06802212029A62002201210F20A8
:100F100000F006F910BD000070B592B0FFF7EAFFCF
:100F20003C4804F077FAFA239B01049380235B008A
:100F300003930023029310220192009306330D3A8B
:100F400002210020FFF790FF041E11D0324804F068
:100F500031FA324804F02EFA314804F02BFA3148C5
:100F600004F028FAFA20400001F028F9002616E0E3
:100F70002D4804F01FFAFA20800001F01FF9F7E76E
:100F80001A236B441B881A0AFF211940274804F0D2
:100F900041FA0236D0231B065B681B040BD50222E4
:100FA0001A2169442000FFF721FDF306E8D11C480F
:100FB00004F000FAE4E71A4C200004F0FBF91C48A6
:100FC00004F0F8F9200004F0F5F91A4804F0F2F9F9
:100FD000310007A800F036F8002405E007AB195DE2
:100FE000154804F017FA2C002B2C06DC651CEB06C8
:100FF000F4D10B4804F0DEF9F0E7094804F0DAF91F
:101000000E4804F0D7F931000D4804F003FA00202F
:1010100012B070BDF8650010106600101466001064
:101020005C66001024660010086600103C66001024
:1010300048660010606600107C6600108466001030
:101040009C66001070B552230370093B4370033B4C
:101050008370C3700B00243303711A0A42711A0C97
:1010600082711B0EC37157230372163B43721533F3
:101070008372113BC37221330373073343737422AA
:1010800082732025C5731024047400234374837471
:10109000C3740126067543758675C3757F3606765B
:1010A000423E46768376C37603773F36467783772C
:1010B000C3777B3E465501354355013544551334BE
:1010C000035524334134C4543D333F3C035501346C
:1010D00002554D3A8354393BC1540A120133C2546C
:1010E0000A140133C254090E0133C15470BD00000B
:1010F00010B58300084A944663441C68402262404D
:10110000C02414408022520113431C60C000034BD2
:101110009C466044416010BD04C001400040014055
:1011200080000B4B9C46604400290DD00823002A08
:101130000CD004221343026853400C221340802237
:1011400052011043036070470023F0E70022F1E7EB
:1011500004C0014010B501238340D02212069362DF
:1011600093610521FFF7C4FF10BD0000034B1B680E
:1011700002201840431E9841C0B2704700C006408C
:10118000EFF3108072B6034B1B68002BFBD0BFF34C
:101190005F8F70472C0100D0BFF35F8F024B00229E
:1011A0001A6080F3108870472C0100D0CB08C25C15
:1011B00007231940012088401040431E9841C0B2C7
:1011C0007047F8B506000C001500FFF7D9FFE308DB
:1011D000F718F15C07222240012393400B4205D10E
:1011E000DBB20B433B70FFF7D7FFF8BD21002800AF
:1011F00001F018FFF0B583B00600019114001F0044
:10120000FFF7BEFF00E00134BC420CD8E308F5183C
:10121000F35C0721214001228A401A42F3D1D2B265
:101220001A432A7001E001246442FFF7B5FF002C45
:1012300002DB200003B0F0BD019B002BF9D0089821
:1012400001F0F0FE70B505000C00FFF799FFE30810
:10125000EE18EA5C07210C400123A340134204D09E
:101260009A433270FFF798FF70BD034B034A2C314D
:10127000034801F03DFEC04614670010846700106B
:1012800034670010002307E0054A9A189200BFF364
:101290005F8F0021116001331F2BF5D97047C046C5
:1012A00040000034054A1078431CDBB21370172B42
:1012B00002D9130010221A707047C046C0030020E4
:1012C000074B9B68103080001950BFF35F8FBFF34E
:1012D0005F8F044B0021196082F310887047C0466D
:1012E00000ED00E0240100D010B5091A081F0A4BD8
:1012F0009C466144094A914208D8C30706D440106D
:101300004005400D064B184380B210BD054B064A00
:10131000A321064801F0ECFDFC070000FE0F0000D1
:1013200000E0FFFF94670010F4690010C46700102C
:1013300010B5091A04394C08090B08D14905490DA3
:10134000064A11430180064B2343438010BD054BE1
:10135000054AAB21054801F0CBFDC04600F0FFFF78
:1013600000F8FFFF10680010C8690010C467001083
:1013700001238340034A10681840431E9841C0B2BD
:101380007047C04600E100E0002904D0034B18601C
:10139000034B18607047034B1860FBE780E200E0E6
:1013A00000E100E080E100E010B501238340180077
:1013B000FFF7EAFF10BD0000024B9B681030800071
:1013C000C058704700ED00E070B504000D00EFF369
:1013D000108672B60C4B1B68002BFBD0BFF35F8FDF
:1013E0002000FFF7E9FF094B984201D0A84205D140
:1013F000320029002000FFF763FF70BD044B054A4F
:101400008621054801F074FD240100D0CD010010B3
:1014100020680010106A0010C4670010F0B5CE46B6
:10142000474680B583B006000D00EFF3108872B612
:10143000564B1B68002BFBD0BFF35F8F544B9A6851
:1014400034001034A300D758524B9F4207D0AF420C
:1014500000D198E00197504BFB1A2F2B09D9424637
:1014600039003000FFF72CFF03B0C0BCB946B046CE
:10147000F0BD3000FFF77CFF814600213000FFF710
:1014800093FFBFF35F8FEFF30581002901D08C42FA
:1014900011D10123019C9C430022A368AB4212D0CE
:1014A0000622A256002A0DDB53009B189B00220047
:1014B000394CE418F1E73621384B394AFF313948C5
:1014C00001F016FD2200AB4256D106256557002DCE
:1014D00038DB6B005B199A002F4B9B189A68A2604F
:1014E000DA79E27106229A56A2719B795BB2002BDF
:1014F0000FDA2D48A0806B005B199B00264AD31899
:101500002A4A11789971157049463000FFF74CFF4F
:10151000A5E7201D6B005B199B001F4A9B181A1D35
:101520009B88D90A1C2907D15B055B15023359003A
:101530005118FFF7D9FEDDE71D4B1E4AB1211948AE
:1015400001F0D6FC002912D1002A0ED0FF2393719E
:10155000194B9380154A1378A371184B0E49641ADE
:10156000644163431B0D1370CEE70A4FF2E7201D61
:101570001349FFF7DDFEC7E76A21124B084AFF3126
:10158000084801F0B5FC034F69E7C046240100D0CC
:1015900000ED00E0CD010010C4030020346900100C
:1015A000E0690010C467001001BD00000D120020AA
:1015B0001C690010006A001001BDFFFFAAAA00000C
:1015C000FE0300206869001070B5012101432E4B15
:1015D000CB1A2F2B28D8EFF30583002B2BD0EFF35A
:1015E000108C72B6294A1268002AFBD0BFF35F8FB5
:1015F000274A0400244D641B64416243120D54B217
:10160000244A92689B00D2588A421BD00022032AA7
:1016100032D853009B189B001B49CB189B795BB2B7
:10162000A3421FD00132F2E7C7211B4B1B4A4900DE
:101630001B4801F05DFC92211A4B184AFF311848F3
:1016400001F056FC134A92681749D150174B1A788B
:1016500082711C70BFF35F8F0C4B00221A608CF3F9
:10166000108870BD0D005300991889006918FF2675
:101670008E710F4A8A80E9E7D1210E4B074A490053
:10168000074801F035FCC046C4030020240100D007
:10169000AAAA000000ED00E070690010AC6900101B
:1016A000C467001098690010CD0100100D120020D1
:1016B00001BDFFFFA46900100022044B02E00449B1
:1016C00002C30132072AFAD97047C04600E400E09D
:1016D00080808080024B9C46614489000160704795
:1016E0004000003410B50400FFF7DCFD01002000CD
:1016F000FFF7F0FFFF232371BFF35F8F10BD10B51D
:101700000400FFF7CFFD01002000FFF7E3FFFF23F8
:10171000237100236371BFF35F8F10BD70B50500A7
:101720000C00080000F0FEFE0949200000F03EFE1B
:10173000FFF7B8FD074B9C466044800068602C753D
:10174000D0231B061B786B75A400034BE55070BDBE
:10175000611A001040000034D00F00200A4B1A68B4
:10176000EFF3108172B61368002BFCD0BFF35F8FCC
:10177000054B1B68BFF35F8F00221A6081F310884E
:1017800040BF002000217047EC11002010B5002957
:1017900022D003681B7B99421ED8174B9C4661449C
:1017A000090183689C4661440C684968002A19D085
:1017B00003681B7B9A4215D883680F4884466244AD
:1017C00012019A1810685368020001208B4201D858
:1017D0000ED00020C0B210BD084B094A3C21094878
:1017E00001F086FB054B064A3C21064801F080FBD0
:1017F000A242EFD8EDE7C046FFFFFF0FB86B001025
:101800002C6E0010706B001010B500291ED0037BE9
:1018100099421BD84B005B18033B0468A446634401
:10182000002919D0002A1DD0914221D0002A25D0AC
:10183000047BA24222D80468500080180338201884
:101840008170197800291FD11A7010BD104B114AF0
:101850006821114801F04CFB104B114A6F310E48C2
:1018600001F046FB0F4B0E4A70210B4801F040FB84
:101870000D4B0B4A7121084801F03AFB044B054A15
:101880006821054801F034FB41701A70DDE7C0465D
:10189000DC6B0010986E0010F86B0010546C001098
:1018A000746E0010606C00106C6C001070B5060057
:1018B0000D001400002914D0002A14D08068736829
:1018C0009847002806D0220029003000FFF79CFF2F
:1018D000280007E02A0021003000FFF795FF2000D4
:1018E00000E0100070BD0800FCE70000F0B583B018
:1018F0000500009201930AAB1C780BAB1F78002CFB
:1019000026D003685A7B944207D10123002B19D1BA
:10191000002C3BD1200003B0F0BD002C0CD01A7B72
:10192000944209D81A6863001B19033BD3189B78AB
:10193000002BEBD00123E9E73E4B3F4A68213F48AB
:1019400001F0D6FA3E4B3F4A67213F4801F0D0FAFA
:1019500003689C7B002CDBD012D01A7B94420FD8FA
:1019600062001219033A19688C46624451789973DF
:10197000002900D1D9730023937053701370C7E707
:101980002C4B2D4A68212D4801F0B2FA002C3AD098
:101990002B681B7B9C4236D82C4BE3181B01AA6892
:1019A00094466344009A1A60019A5A60089A9A60B1
:1019B000099ADA602E68002C2BD030D0337B9C4201
:1019C0002DD863001B19033B326894466344002200
:1019D0009A705A701A70717B22003000FFF766FF10
:1019E0007073844200D095E7287D009A019B00F037
:1019F00025FD061E01D0002F17D00C9B002B00D117
:101A000088E71E7086E7124B124A3C210E4801F00F
:101A10006FFA114B114AA521084801F069FA054BEC
:101A2000054A6821054801F063FA2868210000F0A2
:101A30003DFFE2E7DC6B0010986E0010F86B0010C1
:101A4000846C0010A46E0010706B0010FFFFFF0F7D
:101A5000B86B00102C6E00106C6B0010886E0010BC
:101A6000F0B5DE4657464E464546E0B58BB0099088
:101A7000002308938200B54BD658370052E0B44B90
:101A8000B44A3F21B44801F033FAB44BB44A3C2184
:101A9000B44801F02DFA002901D1002869D10021B4
:101AA000404600F0F9FEA04219D12A686B68069200
:101AB0000793AB689846EB689A464346002B14D0D0
:101AC000002C18D03B681B7B9C4214D8631EFA681C
:101AD000D35C08931B0218433861002015E0A24B29
:101AE000A24A8E219F4801F003FAA14B9F4A9221FE
:101AF0009C4801F0FDF9994B9E4A4121994801F01B
:101B0000F7F900239A46984600207B68BFF35F8F61
:101B100000221A6086F310884346002B32D1002839
:101B200000D10CE100F0FEFB02000B1EA7DB002041
:101B30000021069007917868EFF3108672B601686D
:101B40000029FCD0BFF35F8F396888464C7B002C9E
:101B5000D7D09AD0097B8C4297D8874965182D0138
:101B6000B9688C46654428686968801A99410029DB
:101B700091DD2A686B68099800F060FC00239A46A2
:101B80009846C2E7089B1B0223439946514618001A
:101B9000C04705000E007A68EFF3108B72B6136829
:101BA00059424B41D9B2002BF9D1BFF35F8F002EC0
:101BB0001EDB002E46DD3B69002B47D04B456DD127
:101BC00000F0B0FB02000B1E6EDB52197341002BBC
:101BD00070DB002B72DB0021049101310391029430
:101BE00051460191414600913800FFF77FFE4CE0DD
:101BF0003B69002BDDD04B4514D1069A079B521B45
:101C0000B341002B14DB002B16DB002104910131C2
:101C10000391029451460191414600913800FFF72B
:101C200065FE32E0554B514AA1214E4801F060F962
:101C300001225242524BE6E7454B464A3F21464875
:101C400001F056F9002E01D1002DB4D13B68002CD3
:101C500050D05A7B944237D1012100294AD1DA7BF6
:101C6000002A4DD19A7B002A03D1DA7B002A5AD16F
:101C70009C73DC73002C5CD03B681B7B9C4258D867
:101C8000FA68013C135D0133135500233B617A6808
:101C9000BFF35F8F13608BF3108843E7374B334AF2
:101CA000A421304801F024F9294B2A4A3F212A482F
:101CB00001F01EF901225242314B8AE7244B254A9A
:101CC0003F21254801F014F9002C0DD01A7B9442D5
:101CD0000AD862001219033A18688446624492785E
:101CE000002ABAD00121B8E7264B274A68212748A5
:101CF00001F0FEF8264B274AF621244801F0F8F8B7
:101D0000002A0AD0197B8A4207D851008A18033A60
:101D100019688C4662445470A4E71A4B1A4A682129
:101D20001A4801F0E5F81C4B1A4AFB21174801F04C
:101D3000DFF80A4B0F4A41210A4801F0D9F80BB0ED
:101D4000F0BCBB46B246A946A046F0BDD00F00206D
:101D5000906A0010F86D0010AC6A0010B86B0010AB
:101D60002C6E0010706B0010AC6C0010106E001028
:101D7000C46C0010506E0010FFFFFF0FD06C0010FD
:101D8000FFFFFF7FDC6B0010986E0010F86B0010F7
:101D90000C6D0010646E0010306D001010B50C4B0F
:101DA0005B68002B04D00A210A48FFF793FC10BDA2
:101DB000074C2300084A1021206800F07DFC032016
:101DC00000F0A4FA03212000FFF7A8FCEBE7C046CF
:101DD0000C040020EC1100208D17001010B5064BEC
:101DE0005B68002B01D0044810BD044B044A5E21FF
:101DF000044801F07DF8C0460C040020446D00103A
:101E0000386E0010706B0010F0B5DE4657464E4637
:101E10004546E0B58BB0804616001F00149B9A46DD
:101E2000159B994616AB1B789B461F2302AA944626
:101E3000634400221A702BE0002809D04246126841
:101E4000127B904204D8421E4146C9688A5C41E038
:101E5000404B414A4121414801F04AF807984CE083
:101E6000361BAF41002F07DB002F11DA3C4B3D4AF8
:101E70003F213D4801F03CF8012676423B4FF3E715
:101E8000374B384A3F21384801F032F8002F4FDBFA
:101E900043465A68EFF3108472B6136859424B41B7
:101EA000D9B20791002BF8D1BFF35F8F1F3302AA7D
:101EB0009446634404930023039302934B46019397
:101EC0005346009332003B004046FFF70FFD031ED0
:101ED000B2D1020041464968BFF35F8F00250D6013
:101EE00084F31088002B29D01F2302A98C46634459
:101EF0001B78002BB2D112021043002B20D05B467E
:101F0000002B1DD04946D04704000D0003000B43B1
:101F10001DD00029A4DB00F005FA06000F1EAFDB80
:101F200036196F41002FB1DA012676420F4FADE727
:101F30000B4B0C4A3F210C4800F0DAFF01204042D5
:101F40000BB0F0BCBB46B246A946A046F0BD079810
:101F5000F6E7C046B86B0010506E0010706B0010B2
:101F6000906A0010F86D0010AC6A0010FFFFFF7F50
:101F7000F8B50400002900D162E04268EFF3108553
:101F800072B6136858424341D8B2002BF9D1BFF35F
:101F90005F8FCBB22268567BB3421BD10120002851
:101FA00048D0206988422BD0090AC9B2002B2ED014
:101FB0002068007B83422AD8581EE668305C88423D
:101FC0002BD000206368BFF35F8F00221A6085F377
:101FD0001088F8BD002B0DD0167BB3420AD85E00E6
:101FE000F618033E1768BC466644B678002ED6D075
:101FF0000120D4E7134B144A6821144800F078FFFD
:102000002C21134B134AFF31134800F071FF134B7F
:10201000134A4121104800F06BFF1900100000F036
:1020200045FC0028CED199210E4B0A4A49000A48A6
:1020300000F05EFF23698B42C4D100232361C1E716
:102040000020C6E7DC6B0010986E0010F86B0010E3
:10205000686D0010E06D0010706B0010B86B001020
:10206000506E00108C6D0010F0B587B006000F00A8
:10207000EFF30583002B1FD106246442E517A41952
:102080007D418D4202D803D1844201D9002400252C
:10209000002D14DB0494059500F044F902000B1E9A
:1020A00013DBA41A9D41002D17DC14D03000390039
:1020B00000F044F907B0F0BD234800F0B3FF234B14
:1020C000234A3F21234800F013FF204B204A3F21A1
:1020D000204800F00DFF002CE8D0FFF77FFE002322
:1020E000029301931C4B0093049A059BFFF78CFE0F
:1020F000002818DADAE7002300E00023002BD5D10E
:10210000164B1A68EFF3108172B61368002BFCD0DF
:10211000BFF35F8F114B1B68BFF35F8F00221A6004
:1021200081F3108820BF0499059A0D4B5B6A9A428F
:10213000E3D80B48806A884203D29A42DBD001235D
:10214000DCE70123DAE7C046906D0010906A0010CA
:10215000F86D0010AC6A00105D170010EC11002043
:102160000040054070B504000D0000F0DBF80200EF
:102170000B1E0ADB200029008018594100290ADBC8
:1021800000290CDBFFF770FF70BD084B084A3F21A8
:10219000084800F0ADFE012040420749F0E7034B3C
:1021A000034A3F21034800F0A3FEC046906A001096
:1021B000F86D0010AC6A0010FFFFFF7F10B5FA2227
:1021C00092000023002102F083FEFFF7CBFF10BD39
:1021D00070B584B005000C00EFF30583002B1ED111
:1021E000FFF7FCFD002302930193224B00932A008A
:1021F0002300FFF709FE061E23DD20BFFFF7EEFDDB
:102200003100FFF7B5FE1C4B5B6A9C422DD81A4A81
:10221000926AAA422CD29C4225D0012026E0164B7D
:102220005B6A994209D8144A926A824207D299425B
:1022300001D001201AE0002018E0002016E0012063
:1022400014E00D4B5B6A9C4209D80B4A926AAA4281
:1022500007D29C4201D0012008E0002006E00020C7
:1022600004E0012002E0002000E0002004B070BD86
:102270000120FBE75D1700100040054070B5EFF34B
:1022800005801038EFF3108C72B61A4B1B68002BC8
:10229000FBD0BFF35F8F01221300834016494B63CD
:1022A00016490B60164909780C00C440224214D02C
:1022B000114A546A8200134D5259944206D3820047
:1022C000114C125999430E4B197007E00A4A031D2D
:1022D0009B0099589950002200E00022BFF35F8FC5
:1022E000044B002119608CF31088002A00D090471D
:1022F00070BDC046280100D0004005403C7005403C
:102300000E120020F0110020440E002010B5010034
:10231000024A0348FEF755FF10BDC046BC6E0010D0
:102320000B120020044B5B6A034A906A1900536A3F
:102330009942F9D17047C04600400540084B5B6A9E
:1023400001E0074B5B6A8B42FBD301E0044B5B6A05
:102350008B4203D1024B9B6A8342F7D37047C0463E
:102360000040054070B504000D00FFF7DBFF0200E0
:102370000B0020002900801859418B4202D804D15B
:10238000824202D901204042C117002902DBFFF737
:10239000D5FF70BD024B034A3F21034800F0A8FD62
:1023A000906A0010706F0010AC6A001070B50400E5
:1023B0000D00EFF3108672B61B4B1B68002BFBD091
:1023C000BFF35F8F002D1CD02000FEF7F5FF174BE9
:1023D00083420BD019002000FEF7F6FF01212000F8
:1023E000FEF7E2FF0123A340114A1360A400114B42
:1023F000E550BFF35F8F0C4B00221A6086F3108804
:1024000070BDA2000B4B0021D1500122A2400A490D
:102410000B7893430B7005492000FEF7FFFF002166
:102420002000FEF7C1FFE4E7280100D07D22001064
:1024300038600540440E00200E120020F0B5DE4644
:1024400000B584B00400150001921E000293FFF74E
:1024500069FF03958E4202D84ED185424CD9EFF3E5
:10246000108B72B6274B1B68002BFBD0BFF35F8F1E
:10247000254A17780125A540EBB23B431370234B47
:102480005D63221D92000199D150A200204902985B
:1024900050501B6A2B4212D11C4B1B6C2B4208D094
:1024A0000020BFF35F8F174B00221A608BF3108858
:1024B00023E0184B184AC521184800F019FDFFF712
:1024C00031FF8E4214D802D1039B834210D80E4BA9
:1024D0001B78BB420ED00D4B1D625D631F20044074
:1024E0000123A3400E4A1360074B1F701E38D8E724
:1024F0000020D6E70120D4E7012004B080BCBB4611
:10250000F0BDC046280100D00E120020004005405A
:10251000F0110020E06E0010546F0010046F0010E6
:1025200080E200E0EFF3108C72B60B4B1B68002BBF
:10253000FBD0BFF35F8F01238340084A1362084931
:102540000A789A430A70BFF35F8F034B00221A6028
:102550008CF310887047C046280100D00040054029
:102560000E12002010B500291ED0037B99421BD803
:102570004B005B18033B0468A4466344002919D050
:10258000002A1DD0914221D0002A25D0047BA242EE
:1025900022D80468500080180338201881701978F8
:1025A00000291FD11A7010BD104B114A6821114823
:1025B00000F09EFC104B114A6F310E4800F098FC61
:1025C0000F4B0E4A70210B4800F092FC0D4B0B4A4A
:1025D0007121084800F08CFC044B054A682105482D
:1025E00000F086FC41701A70DDE7C046DC6B00101D
:1025F00084700010F86B0010546C001070700010A4
:10260000606C00106C6C001070B506000D001400BA
:10261000002914D0002A14D08068736898470028D5
:1026200006D0220029003000FFF79CFF280007E0B9
:102630002A0021003000FFF795FF200000E0100085
:1026400070BD0800FCE7000010B5002343730133A0
:102650008373037BC3730123027B9A4214D9002B3B
:102660000CD0027B934209D85A00D218033A016871
:102670008C4662440133DBB25370EDE70B4B0C4ADE
:1026800068210C4800F034FC002A09D0924207D897
:10269000016853009A18033A8A180023537010BD3A
:1026A000024B034A6821034800F022FCDC6B001057
:1026B00084700010F86B001010B5017342608360E5
:1026C000FFF7C2FF10BD000070B50400081E00D166
:1026D00070BD002934D0237B994231D84B005B1860
:1026E000033B2268944663445A78002AF0D02DD0E8
:1026F000237B9A422AD853009B18033B21688C46BF
:1027000063445D7800215970002825D0237B9842CE
:1027100022D843001B18033B21688C4663440021E8
:10272000597001002000FFF76FFF0600290020000C
:10273000FFF7CAFF020031002000FFF765FFC7E77F
:10274000084B094A6821094800F0D2FB054B064AAC
:102750006821064800F0CCFB024B034A682103487D
:1027600000F0C6FBDC6B001084700010F86B0010EA
:1027700070B505000C00160000292FD034D0037B63
:10278000994231D84B005B18033B0268944663447E
:102790005A78002A2ED19A78002A31D11978FFF779
:1027A00093FF0300002E0AD0EA7B002A2ED1AA7BD9
:1027B000002A03D1EA7B002A3BD1AC73EC73002BD7
:1027C0003DD1002C4FD02B7B9C424CD82B68610014
:1027D0000C19033C1C190023637070BD254B264A5D
:1027E0003821264800F084FB254B264A68212648DC
:1027F00000F07EFB254B204A3A21204800F078FB70
:10280000234B1D4A3B211D4800F072FB002A0AD0D1
:10281000297B8A4207D851008A18033A29688C46D6
:1028200062445470C3E7164B164A6821164800F0FC
:102830005FFB184B104A4221104800F059FB002B57
:102840000BD02A7B934208D843001B18033B2A680D
:102850009446634400229A70B3E7094B094A682101
:10286000094800F045FB064B064A6821064800F07F
:102870003FFBC046886F00105C700010906F001026
:10288000DC6B001084700010F86B0010D86F001023
:1028900000700010306D001070B504000A00457B18
:1028A0002900FFF765FF6073280070BD70B5040054
:1028B000002967D0437B8B420ED0002911D0037BC7
:1028C00099420ED84B005B18033B0268D0188378FE
:1028D000002B0CD1002056E00121FFF7DDFF012085
:1028E00051E0294B294A6821294800F001FB002BBF
:1028F00020D0227B93421DD85A00D318033B226874
:10290000D2182568EB5C8B421AD0002B1BD0227B9F
:10291000934218D85A00D318033B2268D218537830
:102920008B4216D0002BF0D11A4B1B4A6B211B484F
:1029300000F0DEFA144B154A6821154800F0D8FA69
:102940004378137007E0104B104A6821104800F0DC
:10295000CFFA437853700023837043700122200024
:10296000FFF706FF0200617B814205D02000FFF7E0
:102970004BFE6073012006E0094B074A71210748AE
:1029800000F0B6FA002070BDDC6B001084700010FF
:10299000F86B0010A469001044700010906F0010D4
:1029A0002470001070B5046BE30701D4200070BDE3
:1029B00002003032C0239B0113430A4A1A60456A61
:1029C000826AAD01AD18AD02062000F0BDF90649DE
:1029D00001F042FC0100280001F03EFC0021FFF75D
:1029E000C1FCE3E7010300004E0E000070B50400D7
:1029F0000E001500FFF7D6FF22002C32E16A4E4090
:102A0000354080235B0113431D60206370BD0000CF
:102A100070B505000C00062000F096F9C0002100FA
:102A200001F01AFCC60908D00E4B9E4216D87F232F
:102A3000184001303400460800E001246C62AE62A8
:102A4000002200212800FFF7D1FF062000F07CF9CA
:102A50008000A101891901F0FFFB70BD0026024C26
:102A6000ECE7C046FEFF0000FFFF000010B505398F
:102A70004901013AD2001143002B09D002220A4336
:102A8000012B07D0002111436E22FFF7AFFF10BDCD
:102A90000022F4E70421F6E7002909D00A22064BB8
:102AA0009C466044434258414000044BC252704728
:102AB00080225200F3E7C0460080FCBF00120020D5
:102AC00070B505000C00062000F03EF9061E27D068
:102AD000164B9D4226D08022D203154B1A60154B0F
:102AE0001A60154B9B6811009943FAD10021280008
:102AF000FFF7D2FF21002800FFF78AFF060000231E
:102B0000012208212800FFF7B1FF2A002C32802380
:102B10009B01134310221A60084B2B630323AB6401
:102B2000300070BD80221204D7E7C0460080034009
:102B300000E0004000F0004000C000400103000041
:102B4000F8B5DE4657464E464546E0B505000F004F
:102B500092460A9A934250D31A0E91461E020A9A3E
:102B600000233000494601F0B5FB80466C00641933
:102B7000A400304B9C4664446368834200D260608A
:102B80002B1FDBB29B46012B3DD9C0239B01234366
:102B9000802212011A60AB00274A9958002907D0F9
:102BA000506901F059FB431C5800C0180338FDD28E
:102BB00053465A0123685A40E0231A4080235B01A0
:102BC00023431A605A46012A28D980239B012343B4
:102BD000802212011A60434663604246002330009F
:102BE000494601F077FBAD00134B58510120F0BC72
:102BF000BB46B246A946A046F8BD104B104A332149
:102C0000104800F075F9012FBFD1C0239B01234369
:102C100003221A60A368DB07FCD5C9E72168794065
:102C200003220A401A60A2680123BB401342FAD073
:102C3000CBE7C046008000405C0F00209070001081
:102C4000F8700010A470001030B583B00C2000F0B4
:102C500011F9FEF78BFA00280DD0002304E099004B
:102C60002D4A2E4888500133092BF8D92A4B2C4A7B
:102C70005A6203B030BD2B4B00229A6700F002F974
:102C8000294B01221A60274B5B6C012BFBD1274B90
:102C900003221A60234B9B6B012BFBD10133009362
:102CA0000433234A0121234800F054F805230093FC
:102CB000214A0121214800F04DF8214B00930022C8
:102CC00002210420FFF73CFF1E4D00952B0000223F
:102CD00001210520FFF734FF104C0094230000224F
:102CE00000210720FFF72CFF009423000022002181
:102CF0000820FFF725FF0A4B009323000022002144
:102D00000920FFF71DFF00952B000022002106205F
:102D1000FFF716FFADE7C0465C0F0020006CDC0239
:102D20001BB70000008000403CB0004030B00040C5
:102D3000002F685900800240008C864700C0024086
:102D4000001BB700405973078000014BC058704703
:102D50005C0F0020F0B5C64600B504000E00170059
:102D60001D00374801F078FA8046364BFA18364B8A
:102D70009A4239D80100380001F06EFA0200103A88
:102D800098235B009A4235D86B1E062B38D8069BD9
:102D9000013B062B34D83F09474537D32D04069B0A
:102DA0001A0315432368002B36DB284B9C4244D082
:102DB00080225201264B1A60264B1A60264B9B68D4
:102DC00011009943FAD12660A060231DC022920110
:102DD0001A43212313602368002BFCDAE5600823E3
:102DE000136080BCB846F0BD1C4B1D4A11211D4824
:102DF00000F07EF81C4B1A4A19211A4800F078F8A6
:102E00001A4B174A1C21174800F072F8184B144A45
:102E10002321144800F06CF822683F231340B3428A
:102E2000C3D1A3681B051B0D8342BED1E368EE220C
:102E3000D2021340AB42B8D1D3E780229201B9E766
:102E4000001BB70080E84BD380F8A93200C00240D5
:102E500000E0004000F0004000C000400871001099
:102E60003872001068710010B4710010D071001039
:102E70001C72001080239B000343014AD3627047F9
:102E800000800540064BAA2212011A602F22DA6048
:102E9000044B054A1A60024B5B68002BFBDA704753
:102EA000004002400060024000B0FA0000BEFDE7B2
:102EB00003000A4A1268002A08D0084A1068C3189A
:102EC000074A9A4206D3054A13607047034A0549E8
:102ED0001160F2E701204042F7E7C046CC0F002026
:102EE000000004201012002010B5FFF7DFFF0000E3
:102EF00010B582B00C001900002A0CD0084B002A33
:102F00000BD00192009323000200064802F082FADF
:102F10000120FFF7CBFF044BF1E7034AF1E7C0467E
:102F20004472001054720010A066001070B52B4B54
:102F30002B4A1A602B4B2C4A1A602C4B9A682A4B4E
:102F40009343FAD12A4C01E008CC9847294B9C4284
:102F5000FAD3FFF779FE234B274A1A60234B9B686D
:102F6000DB43DB01FAD1254B40229A675A671A6787
:102F7000DA66234C09E0234B234A87212348FFF7D5
:102F8000B7FF2000FEF7AEFB0834214B9C4209D26C
:102F90002368002BF5D0012BEDD12000FEF7AFFB0D
:102FA0000834F2E71B4CA1681B4DC022280002F038
:102FB000D9F8A560EFF30583002B00D000BEFEF723
:102FC00061F9FEF779FBFEF7E9FE144C01E008CC4D
:102FD0009847134B9C42FAD370BDC04600E00040B6
:102FE000BFCDFBFE00F00040FE7F3C0000C0004073
:102FF000C80C0020D80C0020FFFFFF0100F00140AA
:10300000B80C00208472001008730010A472001025
:10301000C80C002000ED00E000000020D80C0020CB
:10302000E00C00200FB400B583B0084802F0C2F9EC
:10303000049B002B07D005A90191180002F0CAF9E2
:10304000034802F0B7F90120FFF730FFF4720010D7
:1030500004730010704710B5002802D00B6849684F
:10306000984710BD0100002007E083001B185B009B
:10307000501C08601078C01830380A681378303B4C
:10308000DBB2092BF1D97047F0B5DE4657464E4604
:103090004546E0B583B093461F000C9B9A460D9CB5
:1030A0000E9B99460F9B9B0703D0B8460F00060066
:1030B00022E00192A34688464E46B9460700B44234
:1030C00007D2551C4B4641462020B84701342A0000
:1030D000F5E73D004F465C46019B9B46B1464646A0
:1030E000B84637002E0007E0013C551C5346185DDA
:1030F00043463900B0472A00002CF5D135003E0088
:1031000047460F9B9B0707D4100003B0F0BCBB469B
:10311000B246A946A046F0BDB0464E46B9462F007D
:103120005D46531BB342EFD2541C4B464146202010
:10313000B8472200F5E7F0B5CE46474680B585B0E2
:10314000944698460C9D0D9C0EAB1B789946109AA0
:10315000119B129EB7071CD4002B0CD0F7070AD581
:103160004F46002F02D10C37374204D0013B02E01A
:1031700030272F550134944201D21F2CF8D9F7077C
:1031800007D59C4205D21F2C03D830272F55013478
:10319000F5E7F70615D5770505D4002C03D0944242
:1031A00024D09C4222D00F9A102A2BD00F9A102A9A
:1031B00030D00F9A022A35D01F2C02D830222A553F
:1031C00001341F2C05D84A46002A31D02D222A5519
:1031D0000134039602930194009543466246FFF73B
:1031E00053FF05B0C0BCB946B046F0BD621E012C0D
:1031F00006D00F9F102F01D01400D4E7023CD2E775
:103200001400D0E7B206D1D41F2CCFD878222A558B
:103210000134D1E7B206CCD51F2CCAD858222A5582
:103220000134C9E71F2CC7D860322A550134C3E7DF
:10323000720703D52B222A550134CAE73207C8D5B5
:1032400020222A550134C4E7F0B5DE4657464E46E3
:103250004546E0B593B081468A46089209931CAB77
:1032600010CB1B789B461E9D219B9846002C03D1BA
:10327000102342469A4390468023DB0046461E4078
:1032800042461A4212D0002C22D000260EE03033E3
:10329000D9B2771C0AAB99552900200000F0DCFF59
:1032A000AC4216D31F2F14D83E0004002900200082
:1032B00000F0D2FFCBB2092BE9D94246920605D5E0
:1032C0004121C918C9B20A39C9B2E2E76121F8E758
:1032D000270043460693209B05931F9B0493039569
:1032E0005B46029301970AAB0093099B089A5146EB
:1032F0004846FFF720FF13B0F0BCBB46B246A946D4
:10330000A046F0BDF0B5DE4657464E464546E0B510
:1033100095B0089009910A920B931E9E1F9C20ABBA
:103320001B789B46229B9946239D269B9A463300F9
:10333000234303D1103352469A4392468023DB0045
:1033400057461F4052461A4219D0330023432DD00E
:10335000002714E03033DAB27B1C98460CABDA5508
:103360004A462B003000210000F0B4FFA5421FD8D0
:1033700019D043461F2B1BD8474606000C004A466F
:103380002B003000210000F0A5FFD3B2092BE1D9BA
:103390005246920605D54122D218D2B20A3AD2B28A
:1033A000DAE76122F8E7B145E3D901E00023984666
:1033B00053460693259B0593249B04934B46039306
:1033C0005B460293434601930CAB00930B9B0A9A16
:1033D00009990898FFF7AFFE15B0F0BCBB46B2469E
:1033E000A946A046F0BD0000F0B5DE4657464E4661
:1033F0004546E0B591B083468A460C9298461A9CA1
:1034000008941B9D099522002B002000290001F043
:10341000ECF9002800D0E5E001225242D74B200011
:10342000290001F0DDF9002800D0DBE00122524242
:10343000D34B2000290001F0BDF9002800D0D1E0D5
:1034400000220023089E3000099D290001F0B2F9F6
:10345000002800D0DDE008980999069007918023A4
:10346000DB001E9A1A400D921E9A1A4201D10623C1
:103470001C930698079904000D000A0006000243F9
:1034800000D1D1E0080D4005400DBE4CA44660447B
:103490000A03120BBC4B13431F0001F0B9F9BB4ADE
:1034A000BB4B01F044F9BB4ABB4B01F019F90400D6
:1034B0000D000022B94B3000390001F008F9B84A7C
:1034C000B84B01F034F902000B002000290001F094
:1034D00007F901F0B5F9814601F09AF904000D00F1
:1034E000B14AB24B01F023F90022B14B01F0F8F8D8
:1034F00001F0A6F90600AF4AAF4B2000290001F009
:1035000016F904000D00300001F082F9AB4AAC4B13
:1035100001F00DF902000B002000290001F0D7F89E
:1035200004000D0002000B0001F001F90A900B915C
:10353000A44BF31800261F0522002B0020002900B1
:1035400001F0CEF80E900F9122002B000020802178
:10355000C90501F0BCF804000D0000229A4B0A983E
:103560000B9901F0C6F80022984B01F0B9F802005F
:103570000B000A980B9901F0BCF80022944B01F063
:10358000AFF802000B000A980B9901F0B2F80200A4
:103590000B002000290001F0A3F802000B000E9898
:1035A0000F9901F0A6F80022774B01F099F832004C
:1035B0003B0001F0BCF806000F0004000D00069A65
:1035C000079B01F00DF9002830D001235B429C4697
:1035D000E14400227D4B3000390001F08AF80400FC
:1035E0000D0023E01E9B04931D9B03931C9B0293E1
:1035F000089A099B0092019343460C9A51465846FB
:1036000000F0FCF811B0F0BCBB46B246A946A0469B
:10361000F0BD0023002406930794069680231B0622
:103620009C46654407951AE7002399464B46633349
:10363000C62B1ED804261E9B1B0526D52B00234314
:103640000FD0644A644B0698079901F0C1F800282E
:1036500079D00022614B0698079901F0ABF8002859
:1036600071D01C9B4B4506DD4A46981A431E1C939D
:1036700003E00526DFE700231C938023DB001E9A6E
:103680001A431E920026002399461D9B9E4264D237
:103690009F1B02231E9A1A400A921E9A134202D0BE
:1036A000002E00D000274B46002B07D022002B0015
:1036B0000698079901F01DF8069007910022002353
:1036C0000898099901F076F8002848D1444B1E9AD1
:1036D0001340049303971C9B0293069B079C009343
:1036E000019443460C9A5146584600F087F8002E44
:1036F00000D187E71E9B9B063DD54525441C4346CC
:10370000020051462800D8474B46DA179B18534011
:1037100005220592013E0496002203920A3202928B
:103720004A46D00F01900093434622005146584626
:10373000FFF78AFD0A9B002B00D163E702005F467A
:103740000C9E1D9D54E01C9B002B9ED00D9B002BBE
:103750009BD01C9B013B1C9397E7002799E7069C95
:10376000079D2200290080200006844661440B004A
:1037700006920793AAE76525C0E7C046FFFFEF7FE3
:10378000FFFFEFFF01FCFFFF0000F03FFB799F50C0
:103790001344D33FB3C8608B288AC63F0000F83F6C
:1037A00061436F63A787D23F71A379094F930A40A2
:1037B0000000E03F1655B5BBB16B0240EF39FAFE91
:1037C000422EE63FFF03000000002C400000244092
:1037D000000018402D431CEBE2361A3F80842E4136
:1037E000FFF7FFFF541C434651462020B8472200F4
:1037F000931BAB42F6D3100004E7C046F0B5DE469B
:1038000057464E464546E0B595B00690079193461B
:103810009946209F1E9A1F9B1000190000F0E5FF9B
:10382000002831D101225242BF4B1E981F9900F04F
:10383000C1FF002837D101225242BC4B1E981F996C
:1038400000F0CEFF00283DD10022B94B1E981F99F1
:1038500000F0C6FF002850D10022B64B1E981F99D9
:1038600000F0A8FF002848D1002200231E981F99CD
:1038700000F0A0FF002850D100239846229B5B0552
:1038800000D4B6E0002458E0229B0393219B0293CE
:1038900003230193A84B00934B465A460799069879
:1038A000FFF7F2FB0EE1229B0393219B029304237B
:1038B0000193A24B00934B465A4607990698FFF78F
:1038C000E3FBFFE00423229A1A4022990B4210D016
:1038D0009B4B002A0FD00422229903912199029137
:1038E000019200934B465A4607990698FFF7CCFB86
:1038F000E8E0944BEDE70322EEE7229B0493219B43
:10390000039302971E9B1F9C009301944B465A46BB
:1039100007990698FFF768FDD4E01E9A1F9B0020C8
:10392000002100F0D4FE1E901F9101239846A5E7C8
:103930000CAB30221A55013F01341F2C01D8092F3E
:10394000F6D81E981F9900F07BFF050000F060FF7D
:1039500002000B001E981F9900F0B9FEFA007A4B86
:103960009B181A685B680A920B9300F0E0FE0890BF
:10397000099100F089FF060000F046FF02000B00ED
:103980000898099900F0A3FE0890099100226F4B56
:1039900000F026FF00282ED00136300000F034FF62
:1039A00002000B000A980B9900F00AFF002801D0D2
:1039B00001350026002F2CD1280000F029FF02003D
:1039C0000B001E981F9900F082FE06000F000022D7
:1039D0005E4B00F0EFFE002846D100225B4B30002A
:1039E000390000F0FDFE00283ED1EB073CD5013543
:1039F0003AE0062746E70022544B0898099900F060
:103A0000D9FE0028D6D1002E01D0F307D2D5013639
:103A1000D0E7AA461F2C11D8013F0A21300000F040
:103A20001BFC651C30310CAB19550A21300000F02D
:103A300013FC092E0ED906002C00EBE755461F2C6F
:103A40000CD87B1E002F09D00CAA302111551F0065
:103A50000134F4E72B0055461C00F0E71F2C03D877
:103A60000CAB2E221A5501341F2C10D80A21280025
:103A700000F0CAFB661C30310CAB19550A21280036
:103A800000F0C2FB051E01D03400EDE73400032333
:103A9000229A1340012B1CD01F2C06D84346002B22
:103AA00032D00CAB2D221A550134229B0393219B5B
:103AB000029301940CAB00934B465A460799069823
:103AC000FFF7E2FA15B0F0BCBB46B246A946A046E5
:103AD000F0BD219B002B13D04346002B02D10C33A9
:103AE00013420FD0219B013B2193190003E00CAB43
:103AF00030221A5501348C42CED21F2CF7D9CBE795
:103B00002199F8E72199F6E7229B5B0704D50CABD6
:103B10002B221A550134C8E7229B1B07C5D50CABD5
:103B200020221A550134C0E7FFFFEFFFFFFFEF7FB0
:103B300065CDCD4165CDCDC1247300102873001033
:103B40001C73001018730010107500100000E03F87
:103B5000F0B5DE4657464E464546E0B593B0824640
:103B60008B4690461193002900D1EBE20027554681
:103B7000119B1878002800D1E7E2252809D07C1C89
:103B800043463A005946A847119B01331193270039
:103B9000EEE7013311930024119A11780B00203BBA
:103BA000D8B2102803D88300D048C3589F460B00D2
:103BB000303BDBB2092B2CD92A292FD000230A93C2
:103BC000119B1A782E2A39D000239A46119A13781D
:103BD000683BD9B2122976D88B00C549CB589F468D
:103BE00001231C4301321192D6E702231C43013208
:103BF0001192D1E704231C4301321192CCE7082330
:103C00001C4301321192C7E710231C430132119269
:103C1000C2E711A8FFF726FA0A90D1E71C9B1A1DEC
:103C20001C921868002804DB0A90119B0133119341
:103C3000C6E702231C4343420A93F6E78022D200E0
:103C400014435A1C11925A781300303BDBB2092BF3
:103C500004D92A2A07D000239A46B7E711A8FFF70C
:103C600001FA8246B2E71C9B1A1D1C9218680028B4
:103C700004DB8246119B01331193A7E70020F8E78C
:103C800080235B002343511C119152786C2A01D090
:103C90001C0018E0C0239B001C430131119112E06D
:103CA00080232343511C11915278682A01D01C00B3
:103CB00009E0C0231C430131119104E080235B0023
:103CC0001C4301321192119B18780300253BDAB294
:103CD000532A00D92CE29300864AD3589F4680236A
:103CE0009B001C4301321192EDE780235B001C43D3
:103CF00001321192E7E7782809D0582838D06F2888
:103D000038D0622838D010239C430A2600E01026C1
:103D1000582833D0692803D0642801D00C2294435A
:103D2000630501D50122944369282AD0642828D04C
:103D3000A30500D59FE0E30500D5B8E0630600D4F5
:103D4000CAE01C9A111D1C911168FF220A400594BB
:103D50000A9B049353460393029600230193009217
:103D600043463A0059462800FFF76EFA070027E05D
:103D70001026CDE70826CBE70226C9E72022144308
:103D8000C8E7A30520D4E30550D4630666D51C9A82
:103D9000111D1C911168FF220A40D317D1185940F8
:103DA00005940A9B0493534603930296D20F019203
:103DB000009143463A0059462800FFF745FA0700AC
:103DC000119B01331193D3E61C9BDA1D07218A4313
:103DD000110008311C91116853689C46DB170C9345
:103DE0000D930C9A0D9B100048400E906246534074
:103DF0000F930E980F990C9A0D9B801A99410E9073
:103E00000F9108940A9B0793534606930496002348
:103E100005936346DA0F02920090019143463A00FF
:103E200059462800FFF76EFA0700C9E71C9A111DD2
:103E30001C911268D317D118594005940A9B04931A
:103E4000534603930296D20F0192009143463A00E3
:103E500059462800FFF7F8F90700B1E7230605D512
:103E60001C9A111D1C910023D25E96E71C9A111D0D
:103E70001C91126891E71C9BDA1D07218A431100EF
:103E800008311C9108940A9B0793534606930496A5
:103E900000230593029313685468009301944346EA
:103EA0003A0059462800FFF72DFA070088E71C9AC8
:103EB000111D1C9105940A9B04935346039302968B
:103EC000002301931368009343463A0059462800A3
:103ED000FFF7BAF9070073E723060DD51C9A111DE9
:103EE0001C9112681204120C31E7C04630730010A6
:103EF00074730010C07300101C9A111D1C9112687D
:103F000025E746281AD01C9B0733072293431A0043
:103F100008321C9204940A9A0392524602925C68F8
:103F20001B680093019443463A0059462800FFF766
:103F300065FC0700119B0133119319E620231C43F4
:103F4000E1E7672801D0472802D180231B011C43E9
:103F5000452801D0472801D120231C431C9B07334F
:103F6000072293431A0008321C9204940A9A03927F
:103F7000524602925C681B680093019443463A00E3
:103F800059462800FFF730FA0700119B01331193BF
:103F9000EEE502231A002240924623421FD001245C
:103FA0001C9B1A1D1C927A1C9146187843463A00B5
:103FB0005946A8475346002B16D1119B0133119344
:103FC0004F46D5E5561C434659462020B8472300A6
:103FD00032005C1C9D42F5D83D001700E0E701234C
:103FE0003A002F000A9DF4E74A46A9460A9D06E0DA
:103FF000571C434659462020C84734003A00661CE7
:10400000A542F5D84D469146D7E71C9B1A1D1C9238
:104010001B6899465346002B00D1013B4E4601E0F8
:10402000013613003278002A02D05A1E002BF7D135
:104030004B46F21A10928023DB0026001E401C42E1
:1040400003D0524501D95346109302231A0022404F
:104050000B92234205D03A0037004C46A9465546FC
:1040600020E03A00109B5F46B3462E0006E0551C48
:10407000434639002020B04723002A005C1C0A99DF
:104080009942F4D835005E46BB46109437004C4642
:10409000A946554606E01D000134561C43465946C4
:1040A000C84732002078002804D0002FF4D06B1EBF
:1040B000002DF0D117004D460B9B002B03D1119B17
:1040C0000133119354E50A9F109B06E0561C4346AA
:1040D00059462020A847230032005C1C9F42F5D897
:1040E0001700ECE721231C431C9B1A1D1C921B6824
:1040F00000930594082304935346039310230293DB
:104100000023019343463A0059462800FFF79CF8E4
:104110000700119B013311932AE57C1C43463A00AA
:1041200059462520A847119B0133119327001FE50D
:104130007C1C43463A005946A847119B0133119312
:10414000270015E50A4B9A4610E5AA46474502D3D3
:1041500043465A1E00E03A00434659460020D047E5
:10416000380013B0F0BCBB46B246A946A046F0BD2D
:104170005530001000B585B00290039101210093E5
:1041800013004A4202A90248FFF7E2FC05B000BD55
:104190005730001001480421014B1847400400200B
:1041A000D1410010014B9B681847000040040020DB
:1041B00010B5010018231B8814221088984710BDE1
:1041C00010B5010018231B8816221088984710BDCF
:1041D000F0B5C64600B507000E000025012398463D
:1041E00000E00135B5420AD2AC003C192068FFF767
:1041F000DFFF20600028F4D100239846F1E7404615
:1042000080BCB846F0BD0000124A936F9B0815D2DF
:104210009066D166002905D0FFE7FFE7FFE7516F01
:10422000106F704704B580210906C217514000285D
:1042300000D0C84302F0F4F8002104BDF0B5146EBC
:10424000556E576F166FFFF7E3FF14665566576795
:104250001667F0BD000000D0114A936F9B0813D27F
:1042600010665166002905D0FFE7FFE7FFE7516FB1
:10427000106F704704B5002801D00020C04302F041
:10428000CFF8002104BDC046F0B5146E556E576FCF
:10429000166FFFF7E5FF1466556657671667F0BDA2
:1042A000000000D094464A4A926F9208624601D2BA
:1042B00028E0C046F0B5464E346E756E776F366FA7
:1042C00000F020F89446424A146655665767166710
:1042D0006246F0BD94463E4A926F9208624601D211
:1042E00054E0C046F0B53A4E346E756E776F366F57
:1042F00000F04CF89446364A1466556657671667C0
:104300006246F0BD002B24DB11D000293EDA00B557
:10431000C943404200D1013100F038F8C94340425E
:1043200000D10131DB43524200D1013300BD002AEC
:10433000EBD1002801D1002905D00020C90FC90701
:1043400001D1C043410800B502F062F80022002309
:1043500000BD00B500290ADBDB43524200D1013326
:1043600000F014F8C943404200D1013100BDC943F7
:10437000404200D10131DB43524200D1013300F011
:1043800005F8DB43524200D1013300BD002923D19F
:10439000002B18D1002A0CD0BC460D4F38667A6627
:1043A00000210023FFE7FFE7FFE77A6F386F6746DA
:1043B0007047002801D00748010000B502F028F836
:1043C0000022002300BD02000B00002000217047E6
:1043D000000000D0FFFFFFFF002B00D0BFE0130C58
:1043E00028D1002AE7D080B4114F39667A66FFE7FA
:1043F000FFE730B4040C7B6F396F1B0423433B662B
:104400007A66FFE7FFE7FFE7C04684B27B6F3D6F48
:104410001B0423433B667A66FFE7FFE7C0460023A1
:104420002C042D0C7A6F386F00196941B0BC7047AD
:10443000000000D0F0B594460025140E01D1120200
:104440000835140F01D112010435940F01D19200E7
:104450000235D40F01D152000135D40B0134254F60
:104460007C66254C3C660E0C93B2FFE7FFE7FFE746
:104470003C6F6643360C7703BE467343DF0B5B0429
:10448000C01AB941130C7343DB18C91ACE0866432E
:10449000360CB64493B273431F0F1B01C01AB941C7
:1044A000130C73431F0B1B05C01AB941860D8F02F5
:1044B0003E436643360C092D24DB520A7243801AB0
:1044C0007703460A6643360C16235B1BDE40DF404B
:1044D000BF1964466643821B7046043506330100EB
:1044E000D940A840C01900D30131A24206D200230E
:1044F000F0BD0000000000D0FFFFFFFF121B0130E5
:10450000F3D3F1E709277F1BFE406446A2B2724352
:10451000801A00D20139220C7243130C1204821A41
:1045200099410B007046043513370100F940A8404B
:10453000801900D30131002B02D1A2420AD2F0BD72
:10454000013000D30131121BFAD2013BF8D1A24253
:1045500000D2F0BD013000D30131121BF7E7F0B5F6
:104560001C0C00D080E00CB400251C0A04D11B02F6
:10457000160E3343120208351C0B04D11B01160F13
:104580003343120104359C0B04D19B00960F334337
:1045900092000235DC0B02D192185B4101351C0000
:1045A000971864410134464F7C66464C3C660E0CBD
:1045B000FFE7FFE7FFE7C0463C6F6643360C770333
:1045C000BE4697B27743C01B00D20139C01B00D250
:1045D00001399FB27743C91BC91B170C77437E046F
:1045E000FF0B801BB941CE086643360C0C2D33DB24
:1045F000B644120B1F053A431B0B97B27743C01BFF
:1046000000D201399FB27743C91B170C77433E0490
:104610003F0C801BB941860D8F023E43664329271C
:104620007F1BFE400C3D7746AF40BF1930BCA2B2A5
:10463000ABB272437343801A9941220C7243130C3C
:104640001204801A994102000B000137001BA94196
:10465000F9D2781E0021F0BD0C277F1BFE40774663
:104660007F0BAF40FF19E0E700245D1C07D0144F1B
:104670007D663966FFE7FFE7FFE7FFE73C6F95B22E
:104680009EB265436643401BB141150C1E0C654349
:10469000664336042F0C3E432D04401BB141994222
:1046A00004D202000B0020000021F0BD01D1904295
:1046B000F7D3801A994101349942F2D3F6E700000A
:1046C000000000D0FFFFFFFF48404140484018B4C1
:1046D0001B4B5B68FC46019308BD04DFA349001037
:1046E00018B4174B1B68FC46019308BD00DFAD49A9
:1046F00000109446134A926F920809D2624618B489
:104700000F4BDB68FC46019308BD0CDF654C0010C5
:104710000C4AF0B5146E556E576F166F6246FFF770
:10472000EEFF084A1466556657671667F0BD18B461
:10473000034B9B68FC46019308BD08DF094B001042
:10474000E80F0020000000D0FFB55040424050402C
:1047500059404B40594000E0FFB5154F4C00640DE7
:1047600003D0BC4204D10C0314D80020090D090564
:104770005C00640D03D0BC4204D11C030AD80022A3
:104780001B0D1B0501264B4009D44B4003D58B4222
:1047900000D18242FFBD9942FCD19042FFBD0B4344
:1047A000DB1803431343F5D0C9434918FFBD00008C
:1047B000FF07000000B5FFF7CFFF804100BDC046F6
:1047C00000B5FFF7C9FF01D9002000BD012000BDE1
:1047D00000B5FFF7B9FF01D9002000BD012000BDE1
:1047E00000B5FFF7B1FF804100BD012040054A0040
:1047F000121804D85A00121801D80020704701205E
:1048000070470020704700000021002805D1704744
:10481000C1174840401AFAD0C90713B5064B1B68A8
:1048200098470CBC441CA2401005120B0349091BFD
:1048300009051943114310BDE81000201F040000B2
:1048400010B54C00620D8023D218DB00D21A5B0534
:104850007E2A10DD9E3A13DACC1709034908194362
:104860005242D140640001341532202A05DAD0408A
:104870000843604310BD002010BD0846604310BDD2
:10488000C80FC018013810BD18B4044B5B6AFC4651
:10489000019308BD24DF154E00100000E80F002032
:1048A00070B513231C78012C14D0012C14DC022CBD
:1048B00002DC1F4A1F4B9A641F48FFF779FC1F4B0D
:1048C000186070BD99001A481A4A885001331F2B8E
:1048D000F8D9EAE70023FAE71948FFF771FC050069
:1048E0001848FFF76DFC023803789B007F2B19DD19
:1048F000802229000F4800F035FC022CD7D1124B42
:104900001A88B5231B029A4209D1104B1A88104B02
:104910009A4204D10F4B1A880F4B9A42C7D00020FD
:10492000FEF780FB0D4B0E4A32210E48FEF7E0FAEF
:1049300069490010E80F00204C330000E810002007
:10494000534400005346000054380000D83800009B
:10495000494600009C380000594600006075001070
:104960000C760010B475001007B56046002800D121
:1049700000BE01880A0A0230DF2AFAD1C9B28208D1
:1049800004D3028840880004104300E00068024A13
:104990005050039007BD0000E80F00200FB403BC87
:1049A0000CBCF0B50124E407634000E0F0B50C0D49
:1049B000CF0F661E3605891B640503D3C9434042E9
:1049C00000D30131640D03D0661CF60A07D0E41B46
:1049D00000207F00791C89078912803C24031D0D6B
:1049E000DF0F6E1E36059B1B6D0503D3DB43524262
:1049F00000D301336D0D03D06E1CF60A07D0ED1BFA
:104A000000227F007B1C9B079B12803D2D032F1BE8
:104A1000661B58D4A446202E46DA20371400BC402A
:104A20001D00BD40F24033412A4380185941CB0F4D
:104A300005D0C943C04300226442504151416246FF
:104A40004D0D28D10D0D07D100281FD0241940414C
:104A50004941013A0D0DF9D0640006D3013000D36D
:104A60000131002C01D140084000013A0BD4941CC4
:104A7000E40A04D112051144DB071944F0BDD9073B
:104A8000204B194300E0D9070020F0BD0029DDD1FB
:104A9000002CDBD1F0BD0132C6074008CD0728430A
:104AA0004908002EE1D0D9E73C2E29DA203E4037D4
:104AB0001400BC4000D00124F24014431A00BB4053
:104AC0001C43D317ACE7AC46202F08DA203604008D
:104AD000B4400D00B540F84039412843A5E73C2FCC
:104AE0000CDA203F40360400B44000D00124F840E6
:104AF00004430800B1400C43C117EAE71000190055
:104B0000002494E70000F07FF0B50C0D661E36051A
:104B1000891BE60A6405640D02D0651CED0A04D009
:104B2000002001210905803C2403A4461C0D671EBA
:104B30003F05DB1BE70A6405640D02D0651CED0A26
:104B400004D0002201231B05803C240377406444E9
:104B500097B484B296B27443070C7E43150C6F432E
:104B600080B26843361802D3012000043F18300495
:104B7000350C00197D41844688B29AB250430C0C22
:104B800062431F0C7C438EB27E43921902D30126EE
:104B90003604A4191604170C3618674101BC81B2FB
:104BA0009AB25143040C62431B0C5C4380B25843DD
:104BB000121802D30120000424181004130C40180A
:104BC00063412D185E410020474106BC88B293B274
:104BD00058430C0C6343120C544389B251435B1885
:104BE00002D301210904641819041A0C091862413E
:104BF0006D1856410020474118BCF902720D11434F
:104C0000F0026A0D1043ED020A0D03D16D19404107
:104C10004941013B124E9B1B7600B3420ED26D0000
:104C200007D30130002671416646354301D1400863
:104C300040001B05C918E4072144F0BD0BDA01331D
:104C400006D1013004D101314F0D01D04908F2E7FE
:104C5000E1070020F0BD013631050020EBE7000040
:104C6000FF030000F0B51C0D671E3F05DB1BE70AC4
:104C70006405640D02D0661CF60A04D000220123EC
:104C80001B05803C2403D0252D060026F6432E6606
:104C90001E096E66CE0FF619B44649004F0D02D0BC
:104CA0007E1CF60A03D000200021403F3F033E1B3C
:104CB000B600B444013F7F05C91B49082E6F013679
:104CC00076089C02950D25437543ED137543AD138E
:104CD00001356D10F603761B0CB4CC02450D2C4348
:104CE000A2B2B3B25A43270C7B43350C6F43A4B234
:104CF0006C431B1902D3012424043F191C041D0C0E
:104D0000A4187D4124196D41009A91B2ACB261435F
:104D1000170C7C432B0C5F4392B25A43A41802D366
:104D200001221204BF182204230C52187B41019C5B
:104D30006C431B19520ED9010A434401A01A81B2D7
:104D4000B2B2514303145A43360C734387B27743CC
:104D5000D617D21900277E4136049B191704160C6A
:104D60007F185E417316ED18F301002680337541FC
:104D7000A90F06D16400690AE8055B0A184309D245
:104D80002FE00422944480337541A90AA8059B0AA8
:104D9000184326D3404149412404009A019B0D0049
:104DA0005543641B4343E41A95B286B27543170C0E
:104DB0007E43030C5F4392B25A43B61802D30122DA
:104DC0001204BF183204330C52197B4152429C41E9
:104DD000002C02D40022013051414008CA07104380
:104DE000490802B06246D7079210084BD218084B08
:104DF0009A4203D212058918C919F0BD0020002A71
:104E000001DC3900F0BD01331905F5E7FD030000B1
:104E1000FE070000002200B5203200F004F8080070
:104E200000BD000000220B150AD410B5944600F016
:104E300031F81414013400DA0021CB17144C204748
:104E40000020002170476244343A0CD40C2A07DA5F
:104E500004009140904052422032D440214310BD82
:104E6000D843D94310BD203207D40C469440524257
:104E700020321141D040204310BD0800C917203214
:104E800003D452422032104110BD1800190010BD49
:104E9000474E00100A0DCC0F531E1B05C91A5205B0
:104EA00003D3C943404200D30131520D03D0531CF8
:104EB000DB0A07D0121B00206400611C89078912DD
:104EC000803A1203014BD21A70470000FF03000022
:104ED00051434343C9188C46110C83B24B4310B461
:104EE000040C614392B280B2504362431C041B0C19
:104EF000001910BC59411304120CC01851416144EF
:104F00007047000048404140484000239C46114BF8
:104F10005B68184700239C460E4B1B6818470E4AD7
:104F2000936F9B0804D200239C460A4BDB6818470A
:104F3000F0B5146E556E576F166FFFF7F4FF064A03
:104F40001466556657671667F0BD00239C46014BF3
:104F50009B681847EC100020000000D0491A002878
:104F600008D1084670470000C10FC90700D540426C
:104F7000002817D0F44603B40B4B1B68984706BCB7
:104F800081409E384042803107D20B0607D049004D
:104F9000490AC0051043084360470130F8E7490A51
:104FA0008902F5E770470000E810002000239C46C6
:104FB000014B5B6A18470000EC10002070B513230A
:104FC0001D782A48FFF7FCF80400012D11D0012DAF
:104FD00009DDA31E1B789B007F2B40DD8022210072
:104FE000234800F0BFF82348FFF7E2F8224B18608F
:104FF00070BD542201001E4800F0B4F81F4B1A88FF
:105000001F4B9A421CD1A7239B011A881D4B9A4221
:1050100016D11D4B1A881D4B9A4211D11C4B1A8870
:1050200094239B019A420BD11A4B1A881A4B9A422D
:1050300006D11A4B1A681A4B9A4201D1152307E080
:105040001848FDF7EFFF99001748094A88500133C7
:105050001F2BF8D9144A064B1A62DA61B7E7134BD3
:10506000134A42211348FDF743FFC0465346000050
:10507000EC1000204C330000E8100020EE29000066
:10508000C40F0000C20D0000962B0000C0B5000048
:10509000182B0000CC2A000010B50000FC2C0000EA
:1050A00051ED8764A0660010B95000102076001002
:1050B000AC7600105476001007B56046002800D189
:1050C00000BE01880A0A0230DF2AFAD1C9B282087A
:1050D00004D3028840880004104300E00068024ABC
:1050E0005050039007BD0000EC10002070B5040084
:1050F0000A4E300001F0A4F9200000F033FD050055
:10510000300001F07DF9002D05D02C19044B9C4294
:1051100001D8280070BD0348FDF784FFB80C0020BB
:1051200000000420C076001070B50400054D280072
:1051300001F086F9200000F01FFD280001F060F961
:1051400070BDC046B80C002001480421014B18472F
:1051500050040020D1410010014B1B68184700008B
:1051600050040020014B5B681847000050040020E9
:1051700010B50300080011001B68984710BD00001F
:10518000F8B507000D001600437D002B02D0002467
:1051900000200CE003681100280098472DE03B7DBB
:1051A00010E0022115483B689847601C0134B44266
:1051B00014DA002CF3DD2B19013B1B780D3B5A420E
:1051C0005341DBB22A5D0A2AF0D1002BEED1A04276
:1051D000E7DA211A28183B689847E2E7B04203DA79
:1051E000311A28183B689847002E06DDAD19013D9D
:1051F0002B780D3B5A4253413B75F8BD4877001060
:1052000070B505000368002B16D00C4B1C6805E038
:10521000290004C92000FFF7B3FF2469002C09D03E
:105220002368002BF9D0064B1B68002BF0D0A3425B
:10523000F3D1EDE700232B6070BDC046C40F002002
:10524000C80F002070B505000C000B68802B05D03E
:1052500021684B1C23606418257170BD0800FFF79E
:10526000CFFFF5E710B5FDF75DF802000B1E0BDB75
:105270000D48002112184B41002B0BDB002B0DDBDE
:105280000A4801F0D5F810BD094B0A4A3F210A48E7
:10529000FDF72EFE01225242084BEFE7044B054A70
:1052A0003F210548FDF724FE40420F00C00C0020BE
:1052B000906A001030770010AC6A0010FFFFFF7F8B
:1052C00010B5024801F09CF810BDC046C00C00208B
:1052D000F0B5CE46474680B583B006000D00904637
:1052E0001C00FFF7BFFF81466B1C05D0002C08D0C7
:1052F000194F1A4B1C6807E0300000F017FF05003B
:10530000F4E7174FF5E72469002C17D02368002B2A
:10531000F9D0144B1B68002B01D0A342F3D12A0013
:1053200031002000B8474346002BECD06B46D91D16
:105330000A230B7001222000B847E4E74B46002BFC
:1053400007D16B1E9D41E8B203B0C0BCB946B04660
:10535000F0BDFFF7B5FFF4E771510010C40F002056
:1053600081510010C80F0020094A01E010331A00D3
:105370001368002B08D08342F8D1002907D10369B4
:1053800013600023036102E0002900D01060704721
:10539000C40F002010B5064B1C6801E09847246933
:1053A000002C03D06368002BF8D1F8E710BDC0468D
:1053B000C40F002070B5050000F0B8FE0400002303
:1053C000012201002800FFF783FFFFF7E3FF200021
:1053D00070BD000070B5A2B004000E00FFF742FFE0
:1053E0000500002301933300220001A90848FEF7BD
:1053F000C1FE040001A8FFF703FFFFF7CBFF002D5C
:1054000002D1200022B070BDFFF75AFFF9E7C04675
:10541000455200100FB400B583B004A901C9019131
:10542000FFF7D8FF03B008BC04B0184710B500F070
:10543000F9F8012010BD0000F0B583B005000E00A2
:1054400000240FE06B46D91D0D230B7000200028AF
:1054500016D193699B06FCD40B781360013001319F
:10546000F5E70134B44219DA0D4B1A682F5D0D4B84
:10547000D31859424B415B000B495B5EBB42E1D004
:105480006B46D91D0F7000200028EAD193699B0656
:10549000FCD40B78136001300131F5E703B0F0BDA7
:1054A000041200200080FCBF00120020F0B583B081
:1054B00006000F00002504E06B4607331B782B70B5
:1054C0002500BD4215DA174B1A6893691024210094
:1054D00019401C420DD16C1C75196B46D81D002952
:1054E000EAD19369DB06FCD4136803700131013003
:1054F000F5E70D4B1B68002B0CD00A4B1A685023A4
:10550000936311003431536B38221A4080235B01BE
:105510000B431A60002D02D0280003B0F0BD033DFC
:10552000FAE7C04604120020540F002010B5064BC5
:105530001B68002B06D0054A126800219163044ABB
:105540001068984710BDC046540F00200412002078
:10555000580F002070B504000E001C4B1B681C4A3D
:1055600098184242504114300500002C03D0194ACB
:105570001268002A06D0002C19D0164B1C60164B5E
:105580001E6070BD1549FBF71FFF01212800FBF7C6
:105590000BFF0E4B1A685023936311003431536B89
:1055A00038221A4080235B010B431A60E5E7094A61
:1055B0001268002AE1D000229A6300212800FBF73C
:1055C000F3FE06492800FBF729FFD6E70412002066
:1055D0000080FCBF540F0020580F00202D550010F4
:1055E00070B50D001C000D4B1860002A0BDA002C62
:1055F0000EDA0A4B18682900FDF762FA0121084803
:10560000FFF7B2FE70BD02211000FBF771FDEEE75F
:1056100002212000FBF76CFDEBE7C04604120020DE
:105620006004002010B5054B1B78054B1B78012347
:10563000002204490448FFF7D3FF10BD747A00101C
:10564000787A001020A10700004003400523CB56C4
:10565000002B01DB934211D1094B9C46604443422D
:1056600058418000074BC058097901238B40013B0A
:105670009340184043425841C0B270470020FCE7B5
:105680000000D0AF3C0E002070B50A79202A19D84E
:10569000174B9C466044434258418000154BC45808
:1056A00001239340013B497949B2002910DB0800EE
:1056B0002025AA1A914218DC8B401C4201D00120FF
:1056C000404270BD0C4B0D4A40210D48FDF710FCC7
:1056D0002020801A002805DB1A0082401442F0D0F6
:1056E0000138F7E701204042EBE701204042E8E7BC
:1056F0000000D0AF3C0E00208C770010A078001086
:10570000B877001070B505000C001600FFF79EFF7B
:10571000002801D0002007E01548FDF783FC83191D
:1057200012339B005A510130237983420FD92378D9
:10573000617809021943A27812041143E3781B0629
:105740000B4342009A5A530BE9D19219E7E7012221
:105750009A401300013B074A944665446A4255410A
:10576000B340054AAD00A9580B43AB5070BDC046CD
:10577000047800100000D0AF3C0E002010B5054B9F
:105780009C46604443425841800041180248FBF760
:1057900059FD10BD0000D0AF0C12002010B582B032
:1057A0000A4B9C466044434258418400E31C084A2B
:1057B000009222000748FBF71DFD844202DC001B1B
:1057C00002B010BD01204042FAE7C0460000D0AF51
:1057D000187800100C12002010B5054B9C46604450
:1057E00043425841800041180248FBF7DFFC10BDDE
:1057F0000000D0AF0C12002070B504000E00FBF7C3
:10580000BFFC050031002000FFF73EFF441C631E73
:105810009C41E4B22800FBF7BFFC200070BD0000F3
:10582000F8B505000E00FBF7ABFC070031002800BF
:10583000FFF72AFF041E09DB020031002800FFF7F2
:1058400061FF3800FBF7A8FC2000F8BD0148FDF718
:10585000E9FBC0460478001070B504000B790125FF
:105860009D40013D9540FBF78BFC0C4BE3185A42E1
:10587000534199000A4A8A5829001140A94206D189
:105880009B00AA4306495A50FBF786FC70BD054BA6
:10589000054A8A210548FDF72BFBC0460000D0AF22
:1058A0003C0E00203C7800108C780010B877001077
:1058B000F0B5D6464F464646C0B507000E009046A6
:1058C0001D004B005A18D20082181100DC31096803
:1058D0008A46CC32126891469B19DB00C833C31844
:1058E0000433C02292011343802292021A6018E00E
:1058F0002800FEF757FC42018023DB0413437400A9
:10590000A419E4003C192200DC3213604246C24074
:1059100001231A40E0231B021343D83423606B1E7B
:105920001D40002DE4D171008B19DB00FB18DC3326
:1059300052461A608919C9007F18CC374B463B6024
:10594000E0BCBA46B146A846F0BD0000F0B5D64668
:105950004F464646C0B507000E0090461D004B005E
:105960005A18D20082181100DC3109688A46CC32FC
:10597000126891469B19DB00C833C3180433C02258
:1059800092011343802292021A6017E02800FEF76A
:1059900009FC42018023DB0413437400A419E400D2
:1059A0003C192200DC3213604246C24001231A40F7
:1059B0000C4B1343D83423606B1E1D40002DE5D1E2
:1059C00071008B19DB00FB18DC3352461A60891911
:1059D000C9007F18CC374B463B60E0BCBA46B146A5
:1059E000A846F0BD80E0000070B58AB004000D004C
:1059F000160002680121A9408A430260002B34D0BE
:105A000069004919C90041180A00C83218681060B5
:105A1000043258681060043298681060DB68DC312A
:105A20000B6069004B19DB00D033E3188022520170
:105A30001343802212061A601A60234BAB40A36006
:105A40002B1D01221000984080239B0123431860E6
:105A50002800083082401A601F2216404919C900E8
:105A60006418D83426600AB070BD1022002106A840
:105A7000FFF772FB80235B020693F8235B02079318
:105A80008023DB020893C0231B030893102206A97E
:105A900002A8FFF767FB6B005B19DB00E3181A0035
:105AA000C83202991160039A01921A00CC3201990E
:105AB0001160049A01921A00D03201991160059A7E
:105AC000DC331A60ADE7C0460101010110B50100E9
:105AD0000148FBF7B7FB10BD0812002000B583B0EA
