:020000041000EA
:1000000000B5324B212058609868022188439860DF
:10001000D860186158612E4B002199600221596106
:100020000121F02299502B49196001219960352056
:1000300000F044F80222904214D00621196600F024
:1000400034F8196E01211966002018661A6600F04E
:100050002CF8196E196E196E052000F02FF8012189
:100060000842F9D1002199601B49196000215960AB
:100070001A491B48016001219960EB211966A021F2
:10008000196600F012F800219960164914480160C1
:100090000121996001BC002800D000471248134993
:1000A000086003C880F30888084703B5996A0420EC
:1000B0000142FBD001200142F8D103BD02B5186610
:1000C0001866FFF7F2FF186E186E02BD00000240BE
:1000D000000000180000070000035F00212200005C
:1000E000F4000018222000A00001001008ED00E03C
:1000F00000000000000000000000000074B24E7A12
:1001000000200420F7010010C3010010C5010010F9
:10011000C1010010C1010010C1010010C101001097
:10012000C1010010C1010010C1010010C701001081
:10013000C1010010C1010010C9010010CB01001065
:10014000CD010010CD010010CD010010CD01001037
:10015000CD010010CD010010CD010010CD01001027
:10016000CD010010CD010010CD010010CD01001017
:10017000CD010010CD010010CD010010CD01001007
:10018000CD010010CD010010CD010010CD010010F7
:10019000CD010010CD010010CD010010CD010010E7
:1001A000CD010010CD010010CD010010CD010010D7
:1001B000CD010010CD010010CD010010CD010010C7
:1001C00000BE00BE00BE00BE00BE00BEEFF3058054
:1001D000103800BEF2EB8871807700109C77001019
:1001E0003402001090A31AE700201F49086006C8D7
:1001F00081F3088810471D48006800282FD10DA4FE
:100200000ECC002902D000F012F8F9E71849194A7B
:10021000002000E001C19142FCD1174988471749ED
:1002200088471749884700BEFDE701C901C29A42C5
:10023000FBD370479C770010C0000020C80C002042
:10024000A48300100000042000000420A4830010F8
:10025000001004200010042000000000704709482E
:1002600003F0C4FF0047000008ED00E0000000D0EC
:10027000C80C0020EC110020392F0010B50F001021
:10028000F52E00105756000006005250ABB36053D5
:100290005074001006005250861C03026074001057
:1002A000060052505422A29D68740010050052505E
:1002B000DE65F468A4830010F8B5C0460448054B19
:1002C00010B5834203D0044B002B00D0984710BDDB
:1002D000C80C0020C80C0020000000000648074998
:1002E000091A8B10C90FC91810B5491003D0044B57
:1002F000002B00D0984710BDC80C0020C80C00206F
:100300000000000010B5074C2378002B09D1FFF73F
:10031000D5FF054B002B02D0044800E000BF0123AD
:10032000237010BDC80D00200000000040620010C6
:10033000054B10B5002B03D00449054800E000BF71
:10034000FFF7CCFF10BDC04600000000CC0D002020
:100350004062001030B583B00C00002313E06B4600
:10036000DA1D1570002106E083699B06FCD4137822
:100370000360013101320029F6D023780D3B5A4247
:100380005341DBB201342578002D29D0002BE6D172
:10039000144B984213D000235B00134A9B5EAB4280
:1003A0000FD06B46DA1D157000210029E5D1836955
:1003B0009B06FCD41378036001310132F5E7012379
:1003C000EAE76B46DA1D0D23137000210029E8D1FE
:1003D00083699B06FCD41378036001310132F5E791
:1003E00003B030BD00800340E01100200160C26016
:1003F000002343608360704770B504000D00866879
:10040000701CE16803F046FF63688B4204D02368E8
:100410009D55A160012070BD0020FCE710B50300D0
:1004200082684168501AD968401803F033FF080009
:1004300010BD10B5C468FFF7F1FF201A013810BDD8
:10044000002905D1102801D0012070470020FCE7C9
:10045000102801D00320F8E70E38F6E770B50E003B
:100460003930FF300500FFF7E4FF7F2808D900246A
:1004700004E0315D2800FFF7BFFF01347F2CF8D97D
:1004800070BD012801D020207047C8B2FCE70000F1
:100490000100002008E0A022D205094BD258012318
:1004A00083401A420BD101300B2806D80029F2D024
:1004B000A022D205034BD258F1E7012040427047F9
:1004C0000C0400001C04000010B50023012B0CD804
:1004D0001A000C32920012588A4202D00133DBB269
:1004E000F4E73830DC01001900E0002010BD000006
:1004F000F8B50700FFF7CCFF0400431C0DD0BB008C
:10050000134A9E58002E08D001003000FFF7DCFF90
:10051000051E02D0337C002B00D0F8BD0100300056
:10052000FFF79CFF002F0CD00123A340A021C90599
:10053000084A8B50A401A023DB059C4664446560F7
:10054000EBE70123A340A021C905034A8B50F1E743
:100550001C0E00201C0400000C04000010B500203C
:10056000FFF7C6FF10BD10B50120FFF7C1FF10BD9A
:1005700070B50400036A002B0FD02420255C1A6894
:100580000121A9408A431A60215C206A04F0F0FF2F
:10059000E26AA16A206A05F059F870BD10B50C290D
:1005A00006D8064B02681340C9021943016010BD0A
:1005B000034B044AC321044802F0A0FCFF87FFFF5D
:1005C00040620010606200109C62001010B53F296C
:1005D00006D8064B02681340C9031943016010BDD9
:1005E000034B044AB521044802F088FCFF7FE0FF7A
:1005F000FC620010106300109C62001010B50378BC
:10060000002B08D100210B2000F0D4FE06490B205E
:1006100000F00AFF10BD00210C2000F0CBFE0349C2
:100620000C2000F001FFF5E75D05001067050010E4
:1006300010B50378002B08D108490B2000F0CAFE42
:1006400001210B2000F0B6FE10BD05490C2000F082
:10065000C1FE01210C2000F0ADFEF5E75D050010A4
:1006600067050010F0B587B0040000250020237C4A
:10067000012B00D1B6E0854BA3620026012E00D8E5
:10068000BAE0002D00D1FAE0002800D1FAE027629C
:100690000021380004F07CFF24256055A16A206AFF
:1006A00004F0B8FF0200E062615D0023206A05F0FB
:1006B00095F81022002102A804F06CFD80235B0253
:1006C0000293F8235B0203938023DB020493C0238D
:1006D0001B030493656911216156207CFFF7D1FE4D
:1006E0006843800004F05EFC051C052002F032FB2C
:1006F00004F052FC291C04F030FC061C04F074FCCD
:1007000085B2002D00D195E0280004F045FC011CC5
:10071000301C04F018FC8721C90504F034FC04F0F7
:1007200063FCC0B200022D0405430295207C012821
:1007300000D181E0059B0193554B019A1340E2687B
:10074000D2031343059311216156FFF79AFE049BD0
:100750000193504A1A4080235B0213430005F8229C
:1007600052041040184304908000800880231B0628
:1007700018430490059B0193DB00DB088021C90529
:1007800019430591039B0193434A1A400392434B3B
:10079000194063689B0219430591E56AA36A1879B9
:1007A000281801383E4B1340ED012B43000303434F
:1007B0000393256A2422A45C60000219D200AA18BF
:1007C0001600C836029F376004363360049BD0326F
:1007D00013600019C00028180300DC3319600020E2
:1007E00007B0F0BD1123E356102B02D02D4BA362AE
:1007F00043E72D4BA36240E7B3002C4A9F580025E6
:10080000032D08D82900380004F0E0FE00280FD09E
:100810000135EDB2F4E70025A16A380004F0E6FEE8
:10082000002D02D0002800D02BE70136F6B225E7D4
:100830000125F1E7002075E7059B01931C4B019A08
:100840001340E2681A4380235B031343059311218D
:100850006156FFF716FE049B0193164A1A40802347
:100860009B0213434006F82292051040184304905F
:10087000800080088023DB05184304907AE701207C
:100880004042ADE702204042AAE7C046086400109B
:10089000FF7FF0FFFFFF0AFEFFFFFF9FFF83FFFFC9
:1008A0007F00FEFF18640010106400104064001008
:1008B000E0FF0FFCFFFFF5C1F0B5C64600B505002F
:1008C0000E00140006AA127890460127A740A34004
:1008D0001A003B0004F0E6FE4246A2403B00310015
:1008E000280004F02DFF064B9D4206D00721200072
:1008F00000F02AFC80BCB846F0BD0621F7E7C046F0
:100900000000205070B582B004002426815D0125CE
:10091000009500234268006AFFF7CEFFA15D0095B5
:100920000023A268206AFFF7C7FF237C012B09D0B0
:100930002423E15C00230093E268206AFFF7BCFFF8
:1009400002B070BDA15D00950023E268206AFFF748
:10095000B3FFF5E770B504000D0004F023FD6368F4
:10096000A26893420AD02268D35C2B706368581C3B
:10097000E16803F08FFC6160012070BD0020FCE79E
:10098000F0B5DE4657464E464546E0B583B0060014
:100990000F681123C356102B10D00423B27C012AF8
:1009A0000ED001225A4393464C681100082003F0F0
:1009B00049FC6043804600239A4648E00E3BEDE741
:1009C0000132EFE7791930003930FF30FFF7C2FF0D
:1009D0000028F7D001239C46E2440DE0337F002B32
:1009E0002AD0022B49D130003930FF306B46D91D57
:1009F000FFF7B0FF002838D001235B429C46E0445B
:100A00000134E4B2072C21D84B46DA001C4B9B186A
:100A10001D576B1CE2D0337F002BD3D0022B22D189
:100A2000791930003930FF30FFF794FF00281CD0CF
:100A300001239C46E244DFE730003930FF306B464B
:100A4000D91DFFF787FF0028F6D0D5E75F4443465E
:100A5000002B0AD0B17C11203056FFF7F1FCC3B255
:100A600099460024CEE700239A46504603B0F0BCD6
:100A7000BB46B246A946A046F0BD00239A46F4E71D
:100A80002064001070B584B005000C001600037CD3
:100A9000002B20D111214156CA17073313405B1890
:100AA000DB10DBB2827C012A0CD001215943C9B290
:100AB000300003F0EFFB002910D1002E04D10020FC
:100AC00004B070BD0221F1E70194029601A928004B
:100AD000FFF756FFF4E701204042F1E702204042D1
:100AE000EEE7000070B5050000241BE01B4B1C4A1C
:100AF000C3211C4802F002FA012383401A4A136002
:100B000001238340A021C905184A8B508301A022EC
:100B1000D20594466344DB68DB01F7D404F0D0FED1
:100B20000134E4B2012C18D823000C339B0058592F
:100B30008201A023DB059C466244D3680C28D5D8EB
:100B40000B490B40C1020B4313612B78002BD3D010
:100B500001238340074A1360D2E770BD4062001052
:100B6000606200109C6200100434005044040000D5
:100B7000FF87FFFF1434005010B50400036A002BF8
:100B80000ED0FFF7F5FC2000FFF7ACFF2000FFF7C9
:100B900035FDA4235B00E05804F0E4FA002323624F
:100BA00010BD0000F0B5CE46474680B583B00600C4
:100BB0000024002501E00134E4B20B2C07D820000A
:100BC00004F096FE0028F6D10135EDB2F3E7012DD1
:100BD00006D80120404203B0C0BCB946B046F0BDC3
:100BE0000024012C09D8002004F072FE23000C33ED
:100BF0009B00F0500134E4B2F3E711217156307CD0
:100C0000FFF73FFC102802D00227002471E00127E3
:100C1000FBE7704B704AC321704802F06FF9704BCC
:100C2000704AD1216D4802F069F92333F15C6E4BB3
:100C3000326A9A422CD00823C91801A8FFF7C6FCD3
:100C40001023019A134301932022934301930C35FF
:100C5000AD00AD592423F35C04339B00326A914606
:100C6000994411217156307CFFF70BFCC108C9B2C1
:100C7000802003F0E7FAAB01A022D205944663443A
:100C800042461A604A465A609860019A1A612EE0FC
:100C90000023D1E70023C91801A8FFF797FC102310
:100CA000019A9A43130001922022134301930C35B9
:100CB000AD00AD592423F35C08339B00326A9146A2
:100CC000994411217156307CFFF7DBFBC108C9B292
:100CD000802003F0B7FAAB01A022D205944663440A
:100CE0004A461A6042465A609860019A1A61013475
:100CF000E4B2012C41D8250023000C339B009A5903
:100D00003A4B0C2A85D83A490B40D20213430C22A5
:100D10009343043A1343374A1340374A1340374A40
:100D2000134001221343364A134002229343019396
:100D3000022F00D973E70C23019A9A431300BA00DB
:100D400013430193621C012313400C339B009959F8
:100D500001A8FFF723FC33003833E20198469044A2
:100D6000337C012B00D160E72423F15C04311E4B5E
:100D7000326A9A428ED008238DE700230CE00121CD
:100D80008140A024E4051F48215015E001228A403B
:100D90001D490A600133DBB2012B18D834781A00E0
:100DA00019000C3189008859002CE8D001218140BC
:100DB000A024E4051548215030780C329200915956
:100DC0000028E3D001228A4011490A60E2E70020AE
:100DD00001E7C04640620010606200109C62001093
:100DE000486300108C6300100000205010801F002A
:100DF000FF87FFFF3FF8FFFFFFFFBFFFFFFFDFFFA2
:100E0000FFFF7FFF0C040000042400501C040000BE
:100E100014240050F0B5D6464F464646C0B50400EF
:100E20000E001500984608AB1B789A4609AB1B7854
:100E30005BB299460AAB1F784B1C934250D1534684
:100E4000012B50D84B46102B01D0202B4ED1012F17
:100E50004FD80B9B002B4FDD180004F065F9010003
:100E6000A4235B00E05020003930FF300B9AFFF7DD
:100E7000BDFA6660A5604346E360534623744B4663
:100E80006374A7740C9B63610B9BA361002323779E
:100E90002000FFF7CDFB2000FFF7E4FB002804D083
:100EA000E0BCBA46B146A846F0BD2000FFF72AFDD7
:100EB0002000FFF777FE0028F2D1256A2423E25CA8
:100EC0002968233B1E0096403200B1430A432A6042
:100ED000226B9340A021C9058622D2008B50DFE708
:100EE00001204042DCE702204042D9E70320404293
:100EF000D6E704204042D3E705204042D0E7000077
:100F0000F0B5DE4657464E464546E0B587B005008B
:100F100089469246984610AB1E7811AB0027DF57E2
:100F200012AB1B789B46012829D88300164A9C588F
:100F3000002C1AD02000FFF71FFE149B0493139B74
:100F400003935B46029301970096434652464946F7
:100F50002000FFF75FFF002813D1200007B0F0BC8E
:100F6000BB46B246A946A046F0BDA620400004F00C
:100F7000DBF80400AA00044BD0500570DDE7002424
:100F8000EBE70024E9E7C0461C0E002010B504F092
:100F900055FAE1214902064801F098FD022100209E
:100FA00000F0D2F80221012000F0CEF810BDC046BA
:100FB0000040034070B58CB0FFF7E8FF5C495D4826
:100FC000FFF7C8F9FA239B01049380235B00039386
:100FD000FF3B02931F33019300230093143311222C
:100FE00010210020FFF78CFF041E4AD052495148BF
:100FF000FFF7B0F98FE01F226A441470002108E067
:101000004C4B9B699B06FBD414784A4B1C60013106
:1010100001320029F4D003780D3B5A425341DBB230
:1010200001300478002C28D0002BE4D1434B00225F
:101030009B5EA34204D01F236B441C70002215E06A
:101040001F226A440D23137000210029F3D1394B6C
:101050009B699B06FBD41578364B1D60013101322C
:10106000F3E71C7833490C6001320133002AD2D1F6
:10107000304989698906FBD4F3E7FA20800001F042
:10108000A3F800232E48CCE71F226A4415700021E4
:1010900004E01578274B1D6001310132002915D17C
:1010A000244B9B699B06FBD4F3E71F226A440D2364
:1010B00013700021002919D11E4B9B699B06FBD49C
:1010C00016781C4B1E6001310132F3E703780D3BAB
:1010D0005A425341DBB201300578002D16D0002B67
:1010E000D2D1164B00229B5EAB42DED01F226A4457
:1010F000157000210029E9D10E4B9B699B06FBD49A
:1011000015780C4B1D6001310132F3E70A220021F2
:101110000AA804F03FF8082208A92000FFF7B2FC53
:10112000089A08490AA803F02FF800230AA8D3E771
:10113000F063001000400340FC630010E011002049
:10114000E86300100064001010B58300084A94465C
:1011500063441C6840226240C02414408022520133
:1011600013431C60C000034B9C466044416010BDAB
:1011700004C0014000400140034B1B68022018409E
:10118000431E9841C0B2704700C00640EFF3108084
:1011900072B6034B1B68002BFBD0BFF35F8F704709
:1011A0002C0100D0BFF35F8F024B00221A6080F346
:1011B000108870472C0100D0CB08C25C072319406F
:1011C000012088401040431E9841C0B27047F8B5D6
:1011D00006000C001500FFF7D9FFE308F718F15CD3
:1011E00007222240012393400B4205D1DBB20B437F
:1011F0003B70FFF7D7FFF8BD2100280001F018FF72
:10120000F0B583B00600019114001F00FFF7BEFF88
:1012100000E00134BC420CD8E308F518F35C072168
:10122000214001228A401A42F3D1D2B21A432A70D5
:1012300001E001246442FFF7B5FF002C02DB20002F
:1012400003B0F0BD019B002BF9D0089801F0F0FE2F
:1012500070B505000C00FFF799FFE308EE18EA5C93
:1012600007210C400123A340134204D09A4332705B
:10127000FFF798FF70BD034B034A2C31034801F080
:101280003DFEC04678640010E864001098640010C9
:10129000002307E0054A9A189200BFF35F8F0021F0
:1012A000116001331F2BF5D97047C0464000003450
:1012B000054A1078431CDBB21370172B02D91300B8
:1012C00010221A707047C046C0030020074B9B686D
:1012D000103080001950BFF35F8FBFF35F8F044B56
:1012E0000021196082F310887047C04600ED00E0CD
:1012F000240100D010B5091A081F0A4B9C4661440E
:10130000094A914208D8C30706D440104005400D51
:10131000064B184380B210BD054B064AA321064870
:1013200001F0ECFDFC070000FE0F000000E0FFFFF5
:10133000F8640010586700102865001010B5091AED
:1013400004394C08090B08D14905490D064A1143D7
:101350000180064B2343438010BD054B054AAB215A
:10136000054801F0CBFDC04600F0FFFF00F8FFFF8D
:10137000746500102C67001028650010012383405D
:10138000034A10681840431E9841C0B27047C046D7
:1013900000E100E0002904D0034B1860034B186003
:1013A0007047034B1860FBE780E200E000E100E0DB
:1013B00080E100E010B5012383401800FFF7EAFF49
:1013C00010BD0000024B9B6810308000C058704771
:1013D00000ED00E070B504000D00EFF3108672B66A
:1013E0000C4B1B68002BFBD0BFF35F8F2000FFF777
:1013F000E9FF094B984201D0A84205D132002900EB
:101400002000FFF763FF70BD044B054A86210548A5
:1014100001F074FD240100D0CD010010846500109E
:101420007467001028650010F0B5CE46474680B5B9
:1014300083B006000D00EFF3108872B6564B1B68A0
:10144000002BFBD0BFF35F8F544B9A6834001034ED
:10145000A300D758524B9F4207D0AF4200D198E02B
:101460000197504BFB1A2F2B09D942463900300007
:10147000FFF72CFF03B0C0BCB946B046F0BD30004A
:10148000FFF77CFF814600213000FFF793FFBFF399
:101490005F8FEFF30581002901D08C4211D1012328
:1014A000019C9C430022A368AB4212D00622A256A4
:1014B000002A0DDB53009B189B002200394CE418D6
:1014C000F1E73621384B394AFF31394801F016FD32
:1014D0002200AB4256D106256557002D38DB6B0044
:1014E0005B199A002F4B9B189A68A260DA79E27117
:1014F00006229A56A2719B795BB2002B0FDA2D4817
:10150000A0806B005B199B00264AD3182A4A1178E9
:101510009971157049463000FFF74CFFA5E7201D73
:101520006B005B199B001F4A9B181A1D9B88D90AE8
:101530001C2907D15B055B15023359005118FFF7D1
:10154000D9FEDDE71D4B1E4AB121194801F0D6FC3A
:10155000002912D1002A0ED0FF239371194B9380DA
:10156000154A1378A371184B0E49641A64416343FA
:101570001B0D1370CEE70A4FF2E7201D1349FFF74A
:10158000DDFEC7E76A21124B084AFF31084801F027
:10159000B5FC034F69E7C046240100D000ED00E030
:1015A000CD010010C40300209866001044670010AD
:1015B0002865001001BD0000E911002080660010C0
:1015C0006467001001BDFFFFAAAA0000FE0300200F
:1015D000CC66001070B5012101432E4BCB1A2F2B86
:1015E00028D8EFF30583002B2BD0EFF3108C72B6C5
:1015F000294A1268002AFBD0BFF35F8F274A0400F4
:10160000244D641B64416243120D54B2244A926813
:101610009B00D2588A421BD00022032A32D85300A2
:101620009B189B001B49CB189B795BB2A3421FD030
:101630000132F2E7C7211B4B1B4A49001B4801F04E
:101640005DFC92211A4B184AFF31184801F056FCF4
:10165000134A92681749D150174B1A7882711C703F
:10166000BFF35F8F0C4B00221A608CF3108870BDA3
:101670000D005300991889006918FF268E710F4AD2
:101680008A80E9E7D1210E4B074A4900074801F05B
:1016900035FCC046C4030020240100D0AAAA0000E3
:1016A00000ED00E0D46600101067001028650010FF
:1016B000FC660010CD010010E911002001BDFFFF04
:1016C000086700100022044B02E0044902C3013203
:1016D000072AFAD97047C04600E400E08080808085
:1016E000024B9C4661448900016070474000003411
:1016F00010B50400FFF7DCFD01002000FFF7F0FF4C
:10170000FF232371BFF35F8F10BD10B50400FFF7F7
:10171000CFFD01002000FFF7E3FFFF23237100232B
:101720006371BFF35F8F10BD70B505000C0008003A
:1017300000F0FEFE0949200000F03EFEFFF7B8FD74
:10174000074B9C466044800068602C75D0231B06C4
:101750001B786B75A400034BE55070BD6D1A00102B
:1017600040000034B00F00200A4B1A68EFF31081DC
:1017700072B61368002BFCD0BFF35F8F054B1B685C
:10178000BFF35F8F00221A6081F3108840BF0020F2
:1017900000217047CC11002010B5002922D0036829
:1017A0001B7B99421ED8174B9C46614409018368F4
:1017B0009C4661440C684968002A19D003681B7B69
:1017C0009A4215D883680F488446624412019A18D9
:1017D00010685368020001208B4201D80ED000200F
:1017E000C0B210BD084B094A3C21094801F086FBF4
:1017F000054B064A3C21064801F080FBA242EFD887
:10180000EDE7C046FFFFFF0F1C690010906B001052
:10181000D468001010B500291ED0037B99421BD854
:101820004B005B18033B0468A4466344002919D0AD
:10183000002A1DD0914221D0002A25D0047BA2424B
:1018400022D8046850008018033820188170197855
:1018500000291FD11A7010BD104B114A6821114880
:1018600001F04CFB104B114A6F310E4801F046FB62
:101870000F4B0E4A70210B4801F040FB0D4B0B4AF9
:101880007121084801F03AFB044B054A68210548DC
:1018900001F034FB41701A70DDE7C046406900106A
:1018A000FC6B00105C690010B8690010D86B001068
:1018B000C4690010D069001070B506000D00140056
:1018C000002914D0002A14D0806873689847002833
:1018D00006D0220029003000FFF79CFF280007E017
:1018E0002A0021003000FFF795FF200000E01000E3
:1018F00070BD0800FCE70000F0B583B00500009261
:1019000001930AAB1C780BAB1F78002C26D0036820
:101910005A7B944207D10123002B19D1002C3BD1D3
:10192000200003B0F0BD002C0CD01A7B944209D8E3
:101930001A6863001B19033BD3189B78002BEBD06C
:101940000123E9E73E4B3F4A68213F4801F0D6FAC0
:101950003E4B3F4A67213F4801F0D0FA03689C7B29
:10196000002CDBD012D01A7B94420FD862001219DF
:10197000033A19688C46624451789973002900D162
:10198000D9730023937053701370C7E72C4B2D4A03
:1019900068212D4801F0B2FA002C3AD02B681B7B4D
:1019A0009C4236D82C4BE3181B01AA68944663442A
:1019B000009A1A60019A5A60089A9A60099ADA6045
:1019C0002E68002C2BD030D0337B9C422DD8630066
:1019D0001B19033B32689446634400229A705A7084
:1019E0001A70717B22003000FFF766FF707384422B
:1019F00000D095E7287D009A019B00F025FD061E8A
:101A000001D0002F17D00C9B002B00D188E71E704F
:101A100086E7124B124A3C210E4801F06FFA114B37
:101A2000114AA521084801F069FA054B054A6821C9
:101A3000054801F063FA2868210000F03DFFE2E765
:101A400040690010FC6B00105C690010E869001030
:101A5000086C0010D4680010FFFFFF0F1C69001015
:101A6000906B0010D0680010EC6B0010F0B5DE46F3
:101A700057464E464546E0B58BB009900023089383
:101A80008200B54BD658370052E0B44BB44A3F21E0
:101A9000B44801F033FAB44BB44A3C21B44801F0E5
:101AA0002DFA002901D1002869D10021404600F01B
:101AB000F9FEA04219D12A686B6806920793AB68B9
:101AC0009846EB689A464346002B14D0002C18D059
:101AD0003B681B7B9C4214D8631EFA68D35C089356
:101AE0001B0218433861002015E0A24BA24A8E2148
:101AF0009F4801F003FAA14B9F4A92219C4801F0B4
:101B0000FDF9994B9E4A4121994801F0F7F90023CC
:101B10009A46984600207B68BFF35F8F00221A60C8
:101B200086F310884346002B32D1002800D10CE107
:101B300000F0FEFB02000B1EA7DB00200021069038
:101B400007917868EFF3108672B601680029FCD01F
:101B5000BFF35F8F396888464C7B002CD7D09AD072
:101B6000097B8C4297D8874965182D01B9688C4646
:101B7000654428686968801A9941002991DD2A68BE
:101B80006B68099800F060FC00239A469846C2E70B
:101B9000089B1B022343994651461800C047050085
:101BA0000E007A68EFF3108B72B6136859424B41FE
:101BB000D9B2002BF9D1BFF35F8F002E1EDB002EB0
:101BC00046DD3B69002B47D04B456DD100F0B0FBA3
:101BD00002000B1E6EDB52197341002B70DB002BD1
:101BE00072DB00210491013103910294514601916D
:101BF000414600913800FFF77FFE4CE03B69002B27
:101C0000DDD04B4514D1069A079B521BB341002BE4
:101C100014DB002B16DB00210491013103910294A7
:101C200051460191414600913800FFF765FE32E0D0
:101C3000554B514AA1214E4801F060F90122524210
:101C4000524BE6E7454B464A3F21464801F056F9DC
:101C5000002E01D1002DB4D13B68002C50D05A7B0E
:101C6000944237D1012100294AD1DA7B002A4DD193
:101C70009A7B002A03D1DA7B002A5AD19C73DC7349
:101C8000002C5CD03B681B7B9C4258D8FA68013C16
:101C9000135D0133135500233B617A68BFF35F8FF7
:101CA00013608BF3108843E7374B334AA421304845
:101CB00001F024F9294B2A4A3F212A4801F01EF954
:101CC00001225242314B8AE7244B254A3F212548C5
:101CD00001F014F9002C0DD01A7B94420AD862004E
:101CE0001219033A1868844662449278002ABAD0DE
:101CF0000121B8E7264B274A6821274801F0FEF862
:101D0000264B274AF621244801F0F8F8002A0AD089
:101D1000197B8A4207D851008A18033A19688C4601
:101D200062445470A4E71A4B1A4A68211A4801F019
:101D3000E5F81C4B1A4AFB21174801F0DFF80A4B63
:101D40000F4A41210A4801F0D9F80BB0F0BCBB465C
:101D5000B246A946A046F0BDB00F0020F4670010BF
:101D60005C6B0010106800101C690010906B001074
:101D7000D4680010106A0010746B0010286A0010FC
:101D8000B46B0010FFFFFF0F346A0010FFFFFF7FEE
:101D900040690010FC6B00105C690010706A001054
:101DA000C86B0010946A001010B50C4B5B68002BD8
:101DB00004D00A210A48FFF793FC10BD074C23000A
:101DC000084A1021206800F07DFC032000F0A4FAEE
:101DD00003212000FFF7A8FCEBE7C0460C0400201D
:101DE000CC1100209917001010B5064B5B68002B32
:101DF00001D0044810BD044B044A5E21044801F0A0
:101E00007DF8C0460C040020A86A00109C6B0010EE
:101E1000D4680010F0B5DE4657464E464546E0B55C
:101E20008BB0804616001F00149B9A46159B99465E
:101E300016AB1B789B461F2302AA944663440022DC
:101E40001A702BE0002809D042461268127B90429B
:101E500004D8421E4146C9688A5C41E0404B414A71
:101E60004121414801F04AF807984CE0361BAF4148
:101E7000002F07DB002F11DA3C4B3D4A3F213D4844
:101E800001F03CF8012676423B4FF3E7374B384AE6
:101E90003F21384801F032F8002F4FDB43465A68A3
:101EA000EFF3108472B6136859424B41D9B20791CF
:101EB000002BF8D1BFF35F8F1F3302AA944663440F
:101EC00004930023039302934B46019353460093DC
:101ED00032003B004046FFF70FFD031EB2D1020067
:101EE00041464968BFF35F8F00250D6084F3108879
:101EF000002B29D01F2302A98C4663441B78002B9A
:101F0000B2D112021043002B20D05B46002B1DD013
:101F10004946D04704000D0003000B431DD00029A3
:101F2000A4DB00F005FA06000F1EAFDB36196F4187
:101F3000002FB1DA012676420F4FADE70B4B0C4A6A
:101F40003F210C4800F0DAFF012040420BB0F0BC0A
:101F5000BB46B246A946A046F0BD0798F6E7C04684
:101F60001C690010B46B0010D4680010F4670010F6
:101F70005C6B001010680010FFFFFF7FF8B50400D5
:101F8000002900D162E04268EFF3108572B6136851
:101F900058424341D8B2002BF9D1BFF35F8FCBB287
:101FA0002268567BB3421BD10120002848D020690B
:101FB00088422BD0090AC9B2002B2ED02068007BA2
:101FC00083422AD8581EE668305C88422BD0002015
:101FD0006368BFF35F8F00221A6085F31088F8BD35
:101FE000002B0DD0167BB3420AD85E00F618033ED4
:101FF0001768BC466644B678002ED6D00120D4E7D8
:10200000134B144A6821144800F078FF2C21134B1D
:10201000134AFF31134800F071FF134B134A41215B
:10202000104800F06BFF1900100000F045FC00287C
:10203000CED199210E4B0A4A49000A4800F05EFFB2
:1020400023698B42C4D100232361C1E70020C6E786
:1020500040690010FC6B00105C690010CC6A001035
:10206000446B0010D46800101C690010B46B0010A1
:10207000F06A0010F0B587B006000F00EFF305839B
:10208000002B1FD106246442E517A4197D418D421F
:1020900002D803D1844201D900240025002D14DB8D
:1020A0000494059500F044F902000B1E13DBA41AFA
:1020B0009D41002D17DC14D03000390000F044F9A8
:1020C00007B0F0BD234800F0B3FF234B234A3F2164
:1020D000234800F013FF204B204A3F21204800F006
:1020E0000DFF002CE8D0FFF77FFE00230293019341
:1020F0001C4B0093049A059BFFF78CFE002818DA0E
:10210000DAE7002300E00023002BD5D1164B1A6834
:10211000EFF3108172B61368002BFCD0BFF35F8F12
:10212000114B1B68BFF35F8F00221A6081F3108888
:1021300020BF0499059A0D4B5B6A9A42E3D80B487D
:10214000806A884203D29A42DBD00123DCE7012374
:10215000DAE7C046F46A0010F46700105C6B001008
:102160001068001069170010CC11002000400540D5
:1021700070B504000D0000F0DBF802000B1E0ADB56
:10218000200029008018594100290ADB00290CDBB6
:10219000FFF770FF70BD084B084A3F21084800F068
:1021A000ADFE012040420749F0E7034B034A3F21BF
:1021B000034800F0A3FEC046F46700105C6B0010FB
:1021C00010680010FFFFFF7F10B5FA229200002375
:1021D000002102F09BFEFFF7CBFF10BD70B584B06D
:1021E00005000C00EFF30583002B1ED1FFF7FCFD6B
:1021F000002302930193224B00932A002300FFF750
:1022000009FE061E23DD20BFFFF7EEFD3100FFF7BC
:10221000B5FE1C4B5B6A9C422DD81A4A926AAA42B0
:102220002CD29C4225D0012026E0164B5B6A9942B5
:1022300009D8144A926A824207D2994201D00120F9
:102240001AE0002018E0002016E0012014E00D4BF9
:102250005B6A9C4209D80B4A926AAA4207D29C4206
:1022600001D0012008E0002006E0002004E0012069
:1022700002E0002000E0002004B070BD0120FBE778
:10228000691700100040054070B5EFF30580103865
:10229000EFF3108C72B61A4B1B68002BFBD0BFF308
:1022A0005F8F01221300834016494B6316490B6070
:1022B000164909780C00C440224214D0114A546ACD
:1022C0008200134D5259944206D38200114C125988
:1022D00099430E4B197007E00A4A031D9B00995859
:1022E0009950002200E00022BFF35F8F044B0021D1
:1022F00019608CF31088002A00D0904770BDC0464A
:10230000280100D0004005403C700540EA11002043
:10231000D01100202C0E002010B50100024A034805
:10232000FEF755FF10BDC046206C0010E7110020DD
:10233000044B5B6A034A906A1900536A9942F9D1C7
:102340007047C04600400540084B5B6A01E0074B00
:102350005B6A8B42FBD301E0044B5B6A8B4203D187
:10236000024B9B6A8342F7D37047C046004005404A
:1023700070B504000D00FFF7DBFF02000B0020002A
:102380002900801859418B4202D804D1824202D9D7
:1023900001204042C117002902DBFFF7D5FF70BDC5
:1023A000024B034A3F21034800F0A8FDF4670010E8
:1023B000D46C00101068001070B504000D00EFF32D
:1023C000108672B61B4B1B68002BFBD0BFF35F8FD0
:1023D000002D1CD02000FEF7F5FF174B83420BD0D9
:1023E00019002000FEF7F6FF01212000FEF7E2FFB2
:1023F0000123A340114A1360A400114BE550BFF321
:102400005F8F0C4B00221A6086F3108870BDA2000B
:102410000B4B0021D1500122A2400A490B78934373
:102420000B7005492000FEF7FFFF00212000FEF79A
:10243000C1FFE4E7280100D0892200103860054080
:102440002C0E0020EA110020F0B5DE4600B584B065
:102450000400150001921E000293FFF769FF039527
:102460008E4202D84ED185424CD9EFF3108B72B612
:10247000274B1B68002BFBD0BFF35F8F254A1778D3
:102480000125A540EBB23B431370234B5D63221D36
:1024900092000199D150A2002049029850501B6A25
:1024A0002B4212D11C4B1B6C2B4208D00020BFF3D7
:1024B0005F8F174B00221A608BF3108823E0184BB4
:1024C000184AC521184800F019FDFFF731FF8E4268
:1024D00014D802D1039B834210D80E4B1B78BB4209
:1024E0000ED00D4B1D625D631F2004400123A340ED
:1024F0000E4A1360074B1F701E38D8E70020D6E73E
:102500000120D4E7012004B080BCBB46F0BDC0462A
:10251000280100D0EA11002000400540D011002021
:10252000446C0010B86C0010686C001080E200E091
:10253000EFF3108C72B60B4B1B68002BFBD0BFF374
:102540005F8F01238340084A136208490A789A433F
:102550000A70BFF35F8F034B00221A608CF3108860
:102560007047C046280100D000400540EA11002015
:1025700010B500291ED0037B99421BD84B005B1875
:10258000033B0468A4466344002919D0002A1DD0E7
:10259000914221D0002A25D0047BA24222D804688F
:1025A00050008018033820188170197800291FD135
:1025B0001A7010BD104B114A6821114800F09EFCA2
:1025C000104B114A6F310E4800F098FC0F4B0E4A29
:1025D00070210B4800F092FC0D4B0B4A712108480A
:1025E00000F08CFC044B054A6821054800F086FC8D
:1025F00041701A70DDE7C04640690010E86D0010B8
:102600005C690010B8690010D46D0010C469001036
:10261000D069001070B506000D001400002914D018
:10262000002A14D0806873689847002806D02200DA
:1026300029003000FFF79CFF280007E02A00210056
:102640003000FFF795FF200000E0100070BD08008B
:10265000FCE7000010B50023437301338373037B51
:10266000C3730123027B9A4214D9002B0CD0027B46
:10267000934209D85A00D218033A01688C46624442
:102680000133DBB25370EDE70B4B0C4A68210C4869
:1026900000F034FC002A09D0924207D801685300A8
:1026A0009A18033A8A180023537010BD024B034A4C
:1026B0006821034800F022FC40690010E86D00101A
:1026C0005C69001010B5017342608360FFF7C2FFC0
:1026D00010BD000070B50400081E00D170BD0029B7
:1026E00034D0237B994231D84B005B18033B2268DE
:1026F000944663445A78002AF0D02DD0237B9A4226
:102700002AD853009B18033B21688C4663445D78AC
:1027100000215970002825D0237B984222D84300FD
:102720001B18033B21688C4663440021597001004B
:102730002000FFF76FFF060029002000FFF7CAFF07
:10274000020031002000FFF765FFC7E7084B094A88
:102750006821094800F0D2FB054B064A682106486B
:1027600000F0CCFB024B034A6821034800F0C6FB93
:1027700040690010E86D00105C69001070B505003C
:102780000C00160000292FD034D0037B994231D899
:102790004B005B18033B0268944663445A78002A56
:1027A0002ED19A78002A31D11978FFF793FF0300D0
:1027B000002E0AD0EA7B002A2ED1AA7B002A03D160
:1027C000EA7B002A3BD1AC73EC73002B3DD1002C8B
:1027D0004FD02B7B9C424CD82B6861000C19033CDA
:1027E0001C190023637070BD254B264A38212648EA
:1027F00000F084FB254B264A6821264800F07EFB2A
:10280000254B204A3A21204800F078FB234B1D4AF3
:102810003B211D4800F072FB002A0AD0297B8A4226
:1028200007D851008A18033A29688C4662445470CC
:10283000C3E7164B164A6821164800F05FFB184B99
:10284000104A4221104800F059FB002B0BD02A7B84
:10285000934208D843001B18033B2A6894466344FC
:1028600000229A70B3E7094B094A6821094800F031
:1028700045FB064B064A6821064800F03FFBC04670
:10288000EC6C0010C06D0010F46C0010406900107A
:10289000E86D00105C6900103C6D0010646D001064
:1028A000946A001070B504000A00457B2900FFF708
:1028B00065FF6073280070BD70B50400002967D003
:1028C000437B8B420ED0002911D0037B99420ED856
:1028D0004B005B18033B0268D0188378002B0CD1A7
:1028E000002056E00121FFF7DDFF012051E0294BD8
:1028F000294A6821294800F001FB002B20D0227BC7
:1029000093421DD85A00D318033B2268D218256879
:10291000EB5C8B421AD0002B1BD0227B934218D841
:102920005A00D318033B2268D21853788B4216D032
:10293000002BF0D11A4B1B4A6B211B4800F0DEFA2A
:10294000144B154A6821154800F0D8FA43781370E3
:1029500007E0104B104A6821104800F0CFFA437886
:10296000537000238370437001222000FFF706FF9D
:102970000200617B814205D02000FFF74BFE6073AF
:10298000012006E0094B074A7121074800F0B6FA1A
:10299000002070BD40690010E86D00105C690010F7
:1029A00008670010A86D0010F46C0010886D00100E
:1029B00070B5046BE30701D4200070BD0200303213
:1029C000C0239B0113430A4A1A60456A826AAD011B
:1029D000AD18AD02062000F0BDF9064901F05AFC21
:1029E0000100280001F056FC0021FFF7C1FCE3E7DD
:1029F000010300004E0E000070B504000E0015002B
:102A0000FFF7D6FF22002C32E16A4E40354080238A
:102A10005B0113431D60206370BD000070B50500AD
:102A20000C00062000F096F9C000210001F032FCF5
:102A3000C60908D00E4B9E4216D87F23184001309D
:102A40003400460800E001246C62AE6200220021DE
:102A50002800FFF7D1FF062000F07CF98000A101DB
:102A6000891901F017FC70BD0026024CECE7C04646
:102A7000FEFF0000FFFF000010B505394901013AD3
:102A8000D2001143002B09D002220A43012B07D0A8
:102A9000002111436E22FFF7AFFF10BD0022F4E7C3
:102AA0000421F6E7002909D00A22064B9C4660441F
:102AB000434258414000044BC252704780225200AA
:102AC000F3E7C0460080FCBFE011002070B50500B0
:102AD0000C00062000F03EF9061E27D0164B9D4242
:102AE00026D08022D203154B1A60154B1A60154B65
:102AF0009B6811009943FAD100212800FFF7D2FF0B
:102B000021002800FFF78AFF060000230122082188
:102B10002800FFF7B1FF2A002C3280239B011343CA
:102B200010221A60084B2B630323AB64300070BD86
:102B300080221204D7E7C0460080034000E0004036
:102B400000F0004000C0004001030000F8B5DE4680
:102B500057464E464546E0B505000F0092460A9A94
:102B6000934250D31A0E91461E020A9A0023300057
:102B7000494601F0CDFB80466C006419A400304B3F
:102B80009C4664446368834200D260602B1FDBB2C2
:102B90009B46012B3DD9C0239B0123438022120178
:102BA0001A60AB00274A9958002907D0506901F0F4
:102BB00071FB431C5800C0180338FDD253465A011C
:102BC00023685A40E0231A4080235B0123431A60A4
:102BD0005A46012A28D980239B01234380221201CF
:102BE0001A6043466360424600233000494601F0C4
:102BF0008FFBAD00134B58510120F0BCBB46B246D1
:102C0000A946A046F8BD104B104A3321104800F0E9
:102C100075F9012FBFD1C0239B01234303221A6002
:102C2000A368DB07FCD5C9E72168794003220A4085
:102C30001A60A2680123BB401342FAD0CBE7C0461A
:102C4000008000403C0F0020F46D00105C6E00100E
:102C5000086E001030B583B00C2000F011F9FEF7BB
:102C60008BFA00280DD0002304E099002D4A2E484D
:102C700088500133092BF8D92A4B2C4A5A6203B0E9
:102C800030BD2B4B00229A6700F002F9294B01223C
:102C90001A60274B5B6C012BFBD1274B03221A6078
:102CA000234B9B6B012BFBD1013300930433234A4D
:102CB0000121234800F054F805230093214A012103
:102CC000214800F04DF8214B0093002202210420FE
:102CD000FFF73CFF1E4D00952B000022012105202F
:102CE000FFF734FF104C009423000022002107203E
:102CF000FFF72CFF00942300002200210820FFF79B
:102D000025FF0A4B00932300002200210920FFF732
:102D10001DFF00952B00002200210620FFF716FF63
:102D2000ADE7C0463C0F0020006CDC021BB7000082
:102D3000008000403CB0004030B00040002F685997
:102D400000800240008C864700C00240001BB70094
:102D5000405973078000014BC05870473C0F00205A
:102D6000F0B5C64600B504000E0017001D00374838
:102D700001F090FA8046364BFA18364B9A4239D811
:102D80000100380001F086FA0200103A98235B0037
:102D90009A4235D86B1E062B38D8069B013B062B72
:102DA00034D83F09474537D32D04069B1A031543F2
:102DB0002368002B36DB284B9C4244D080225201F2
:102DC000264B1A60264B1A60264B9B6811009943CC
:102DD000FAD12660A060231DC02292011A4321234C
:102DE00013602368002BFCDAE5600823136080BCC5
:102DF000B846F0BD1C4B1D4A11211D4800F07EF85D
:102E00001C4B1A4A19211A4800F078F81A4B174A35
:102E10001C21174800F072F8184B144A232114485B
:102E200000F06CF822683F231340B342C3D1A3687B
:102E30001B051B0D8342BED1E368EE22D202134074
:102E4000AB42B8D1D3E780229201B9E7001BB700AB
:102E500080E84BD380F8A93200C0024000E0004077
:102E600000F0004000C000406C6E00109C6F00102D
:102E7000CC6E0010186F0010346F0010806F0010BF
:102E800080239B000343014AD362704700800540C2
:102E9000064BAA2212011A602F22DA60044B054A5F
:102EA0001A60024B5B68002BFBDA7047004002405F
:102EB0000060024000B0FA0000BEFDE703000A4ACD
:102EC0001268002A08D0084A1068C318074A9A42B4
:102ED00006D3054A13607047034A05491160F2E7BB
:102EE00001204042F7E7C046AC0F0020000004205C
:102EF000EC11002010B5FFF7DFFF000010B582B025
:102F00000C001900002A0CD0084B002A0BD00192AB
:102F1000009323000200064802F084FA0120FFF724
:102F2000CBFF044BF1E7034AF1E7C046A86F00105E
:102F3000B86F0010B46F001070B52B4B2B4A1A609D
:102F40002B4B2C4A1A602C4B9A682A4B9343FAD18C
:102F50002A4C01E008CC9847294B9C42FAD3FFF752
:102F600079FE234B274A1A60234B9B68DB43DB0126
:102F7000FAD1254B40229A675A671A67DA66234CC2
:102F800009E0234B234A87212348FFF7B7FF20009E
:102F9000FEF7AEFB0834214B9C4209D22368002B7C
:102FA000F5D0012BEDD12000FEF7AFFB0834F2E79E
:102FB0001B4CA1681B4DC022280002F0F1F8A5604F
:102FC000EFF30583002B00D000BEFEF761F9FEF79A
:102FD00079FBFEF7E9FE144C01E008CC9847134B4F
:102FE0009C42FAD370BDC04600E00040BFCDFBFE5E
:102FF00000F00040FE7F3C0000C00040B00C00200C
:10300000C00C0020FFFFFF0100F00140A00C0020D9
:10301000E86F00106C70001008700010B00C0020F9
:1030200000ED00E000000020C00C0020C80C0020D3
:103030000FB400B583B0084802F0C4F9049B002B1C
:1030400007D005A90191180002F0CCF9034802F05D
:10305000B9F90120FFF730FF5870001068700010B8
:103060009A4200D288547047704710B5002802D0A9
:103070000B684968984710BD0100002007E08300F5
:103080001B185B00501C08601078C01830380A68A4
:103090001378303BDBB2092BF1D97047F0B5DE462F
:1030A00057464E464546E0B583B093461F000C9BFD
:1030B0009A460D9C0E9B99460F9B9B0703D0B846E2
:1030C0000F00060022E00192A34688464E46B9460C
:1030D0000700B44207D2551C4B4641462020B84752
:1030E00001342A00F5E73D004F465C46019B9B46B4
:1030F000B1464646B84637002E0007E0013C551C55
:103100005346185D43463900B0472A00002CF5D1DC
:1031100035003E0047460F9B9B0707D4100003B0C5
:10312000F0BCBB46B246A946A046F0BDB0464E46EE
:10313000B9462F005D46531BB342EFD2541C4B4699
:1031400041462020B8472200F5E7F0B5CE46474675
:1031500080B585B0944698460C9D0D9C0EAB1B78AF
:103160009946109A119B129EB7071CD4002B0CD0C5
:10317000F7070AD54F46002F02D10C37374204D04B
:10318000013B02E030272F550134944201D21F2C1D
:10319000F8D9F70707D59C4205D21F2C03D8302752
:1031A0002F550134F5E7F70615D5770505D4002C22
:1031B00003D0944224D09C4222D00F9A102A2BD0C4
:1031C0000F9A102A30D00F9A022A35D01F2C02D81D
:1031D00030222A5501341F2C05D84A46002A31D006
:1031E0002D222A55013403960293019400954346FB
:1031F0006246FFF753FF05B0C0BCB946B046F0BD0C
:10320000621E012C06D00F9F102F01D01400D4E7AE
:10321000023CD2E71400D0E7B206D1D41F2CCFD89D
:1032200078222A550134D1E7B206CCD51F2CCAD852
:1032300058222A550134C9E71F2CC7D860322A55B5
:103240000134C3E7720703D52B222A550134CAE79C
:103250003207C8D520222A550134C4E7F0B5DE462E
:1032600057464E464546E0B593B081468A46089299
:1032700009931CAB10CB1B789B461E9D219B984647
:10328000002C03D1102342469A4390468023DB0052
:1032900046461E4042461A4212D0002C22D000263A
:1032A0000EE03033D9B2771C0AAB995529002000C3
:1032B00000F0F0FFAC4216D31F2F14D83E000400DC
:1032C0002900200000F0E6FFCBB2092BE9D94246E5
:1032D000920605D54121C918C9B20A39C9B2E2E737
:1032E0006121F8E7270043460693209B05931F9B27
:1032F000049303955B46029301970AAB0093099BE5
:10330000089A51464846FFF720FF13B0F0BCBB4671
:10331000B246A946A046F0BDF0B5DE4657464E4639
:103320004546E0B595B0089009910A920B931E9E10
:103330001F9C20AB1B789B46229B9946239D269B76
:103340009A463300234303D1103352469A439246A0
:103350008023DB0057461F4052461A4219D03300E3
:1033600023432DD0002714E03033DAB27B1C98467B
:103370000CABDA554A462B003000210000F0C8FFA4
:10338000A5421FD819D043461F2B1BD8474606001D
:103390000C004A462B003000210000F0B9FFD3B2E8
:1033A000092BE1D95246920605D54122D218D2B254
:1033B0000A3AD2B2DAE76122F8E7B145E3D901E08F
:1033C0000023984653460693259B0593249B04931C
:1033D0004B4603935B460293434601930CAB009329
:1033E0000B9B0A9A09990898FFF7AFFE15B0F0BC3D
:1033F000BB46B246A946A046F0BD0000F0B5DE4689
:1034000057464E464546E0B591B083468A460C92F3
:1034100098461A9C08941B9D099522002B002000B9
:10342000290001F000FA002800D0E5E00122524214
:10343000D74B2000290001F0F1F9002800D0DBE093
:1034400001225242D34B2000290001F0D1F900287B
:1034500000D0D1E000220023089E3000099D290001
:1034600001F0C6F9002800D0DDE00898099906901F
:1034700007918023DB001E9A1A400D921E9A1A4271
:1034800001D106231C930698079904000D000A0039
:103490000600024300D1D1E0080D4005400DBE4CAE
:1034A000A44660440A03120BBC4B13431F0001F0F7
:1034B000CDF9BB4ABB4B01F058F9BB4ABB4B01F0FD
:1034C0002DF904000D000022B94B3000390001F045
:1034D0001CF9B84AB84B01F048F902000B00200073
:1034E000290001F01BF901F0C9F9814601F0AEF99C
:1034F00004000D00B14AB24B01F037F90022B14B84
:1035000001F00CF901F0BAF90600AF4AAF4B200008
:10351000290001F02AF904000D00300001F096F9AD
:10352000AB4AAC4B01F021F902000B00200029004E
:1035300001F0EBF804000D0002000B0001F015F99A
:103540000A900B91A44BF31800261F0522002B00B4
:103550002000290001F0E2F80E900F9122002B00CC
:1035600000208021C90501F0D0F804000D000022E0
:103570009A4B0A980B9901F0DAF80022984B01F067
:10358000CDF802000B000A980B9901F0D0F8002248
:10359000944B01F0C3F802000B000A980B9901F05C
:1035A000C6F802000B002000290001F0B7F8020065
:1035B0000B000E980F9901F0BAF80022774B01F03A
:1035C000ADF832003B0001F0D0F806000F00040017
:1035D0000D00069A079B01F021F9002830D0012345
:1035E0005B429C46E14400227D4B3000390001F0F3
:1035F0009EF804000D0023E01E9B04931D9B039383
:103600001C9B0293089A099B0092019343460C9AD3
:103610005146584600F0FCF811B0F0BCBB46B2462B
:10362000A946A046F0BD0023002406930794069601
:1036300080231B069C46654407951AE7002399469C
:103640004B466333C62B1ED804261E9B1B0526D56E
:103650002B0023430FD0644A644B0698079901F06E
:10366000D5F8002879D00022614B0698079901F01F
:10367000BFF8002871D01C9B4B4506DD4A46981ABE
:10368000431E1C9303E00526DFE700231C938023E1
:10369000DB001E9A1A431E920026002399461D9BAA
:1036A0009E4264D29F1B02231E9A1A400A921E9ABF
:1036B000134202D0002E00D000274B46002B07D02B
:1036C00022002B000698079901F031F80690079127
:1036D000002200230898099901F08AF8002848D1AF
:1036E000444B1E9A1340049303971C9B0293069B22
:1036F000079C0093019443460C9A5146584600F0AB
:1037000087F8002E00D187E71E9B9B063DD54525F7
:10371000441C4346020051462800D8474B46DA175E
:103720009B18534005220592013E04960022039205
:103730000A3202924A46D00F01900093434622007B
:1037400051465846FFF78AFD0A9B002B00D163E7DC
:1037500002005F460C9E1D9D54E01C9B002B9ED0DA
:103760000D9B002B9BD01C9B013B1C9397E70027D4
:1037700099E7069C079D22002900802000068446C8
:1037800061440B0006920793AAE76525C0E7C0468F
:10379000FFFFEF7FFFFFEFFF01FCFFFF0000F03FA7
:1037A000FB799F501344D33FB3C8608B288AC63F30
:1037B0000000F83F61436F63A787D23F71A3790987
:1037C0004F930A400000E03F1655B5BBB16B024075
:1037D000EF39FAFE422EE63FFF03000000002C40C6
:1037E00000002440000018402D431CEBE2361A3F35
:1037F00080842E41FFF7FFFF541C43465146202092
:10380000B8472200931BAB42F6D3100004E7C04632
:10381000F0B5DE4657464E464546E0B595B00690B3
:10382000079193469946209F1E9A1F9B10001900EE
:1038300000F0F9FF002831D101225242BF4B1E98FF
:103840001F9900F0D5FF002837D101225242BC4B0E
:103850001E981F9900F0E2FF00283DD10022B94BCD
:103860001E981F9900F0DAFF002850D10022B64BB5
:103870001E981F9900F0BCFF002848D100220023A9
:103880001E981F9900F0B4FF002850D100239846DD
:10389000229B5B0500D4B6E0002458E0229B0393F2
:1038A000219B029303230193A84B00934B465A4656
:1038B00007990698FFF7F2FB0EE1229B0393219BE9
:1038C000029304230193A24B00934B465A46079957
:1038D0000698FFF7E3FBFFE00423229A1A4022999F
:1038E0000B4210D09B4B002A0FD004222299039147
:1038F00021990291019200934B465A4607990698E6
:10390000FFF7CCFBE8E0944BEDE70322EEE7229BC8
:103910000493219B039302971E9B1F9C0093019489
:103920004B465A4607990698FFF768FDD4E01E9A61
:103930001F9B0020002100F0E8FE1E901F91012334
:103940009846A5E70CAB30221A55013F01341F2CD5
:1039500001D8092FF6D81E981F9900F08FFF050097
:1039600000F074FF02000B001E981F9900F0CDFEBE
:10397000FA007A4B9B181A685B680A920B9300F066
:10398000F4FE0890099100F09DFF060000F05AFF38
:1039900002000B000898099900F0B7FE0890099101
:1039A00000226F4B00F03AFF00282ED00136300085
:1039B00000F048FF02000B000A980B9900F01EFF70
:1039C000002801D001350026002F2CD1280000F05E
:1039D0003DFF02000B001E981F9900F096FE0600A6
:1039E0000F0000225E4B00F003FF002846D10022AA
:1039F0005B4B3000390000F011FF00283ED1EB078F
:103A00003CD501353AE0062746E70022544B08989A
:103A1000099900F0EDFE0028D6D1002E01D0F30761
:103A2000D2D50136D0E7AA461F2C11D8013F0A2172
:103A3000300000F02FFC651C30310CAB19550A2109
:103A4000300000F027FC092E0ED906002C00EBE711
:103A500055461F2C0CD87B1E002F09D00CAA3021F4
:103A600011551F000134F4E72B0055461C00F0E708
:103A70001F2C03D80CAB2E221A5501341F2C10D842
:103A80000A21280000F0DEFB661C30310CAB195512
:103A90000A21280000F0D6FB051E01D03400EDE716
:103AA00034000323229A1340012B1CD01F2C06D86C
:103AB0004346002B32D00CAB2D221A550134229BE9
:103AC0000393219B029301940CAB00934B465A46FF
:103AD00007990698FFF7E2FA15B0F0BCBB46B2466C
:103AE000A946A046F0BD219B002B13D04346002BD6
:103AF00002D10C3313420FD0219B013B21931900BB
:103B000003E00CAB30221A5501348C42CED21F2C6C
:103B1000F7D9CBE72199F8E72199F6E7229B5B07D4
:103B200004D50CAB2B221A550134C8E7229B1B0786
:103B3000C5D50CAB20221A550134C0E7FFFFEFFFBB
:103B4000FFFFEF7F65CDCD4165CDCDC18870001001
:103B50008C700010807000107C7000107872001063
:103B60000000E03FF0B5DE4657464E464546E0B51C
:103B700093B082468B4690461193002900D1EBE228
:103B800000275546119B1878002800D1E7E2252828
:103B900009D07C1C43463A005946A847119B013383
:103BA00011932700EEE7013311930024119A117845
:103BB0000B00203BD8B2102803D88300D048C3584C
:103BC0009F460B00303BDBB2092B2CD92A292FD082
:103BD00000230A93119B1A782E2A39D000239A4683
:103BE000119A1378683BD9B2122976D88B00C5494F
:103BF000CB589F4601231C4301321192D6E7022382
:103C00001C4301321192D1E704231C43013211926B
:103C1000CCE708231C4301321192C7E710231C4351
:103C200001321192C2E711A8FFF726FA0A90D1E7F4
:103C30001C9B1A1D1C921868002804DB0A90119B1B
:103C400001331193C6E702231C4343420A93F6E76C
:103C50008022D20014435A1C11925A781300303B30
:103C6000DBB2092B04D92A2A07D000239A46B7E7EA
:103C700011A8FFF701FA8246B2E71C9B1A1D1C929D
:103C80001868002804DB8246119B01331193A7E7D3
:103C90000020F8E780235B002343511C11915278E8
:103CA0006C2A01D01C0018E0C0239B001C4301318A
:103CB000119112E080232343511C11915278682AFC
:103CC00001D01C0009E0C0231C430131119104E024
:103CD00080235B001C4301321192119B1878030072
:103CE000253BDAB2532A00D92CE29300864AD358F6
:103CF0009F4680239B001C4301321192EDE78023F5
:103D00005B001C4301321192E7E7782809D058285C
:103D100038D06F2838D0622838D010239C430A2628
:103D200000E01026582833D0692803D0642801D039
:103D30000C229443630501D50122944369282AD0BB
:103D4000642828D0A30500D59FE0E30500D5B8E09E
:103D5000630600D4CAE01C9A111D1C911168FF2251
:103D60000A4005940A9B049353460393029600234A
:103D70000193009243463A0059462800FFF76EFA35
:103D8000070027E01026CDE70826CBE70226C9E783
:103D900020221443C8E7A30520D4E30550D46306CA
:103DA00066D51C9A111D1C911168FF220A40D31779
:103DB000D118594005940A9B0493534603930296E5
:103DC000D20F0192009143463A0059462800FFF76E
:103DD00045FA0700119B01331193D3E61C9BDA1DB2
:103DE00007218A43110008311C91116853689C46D1
:103DF000DB170C930D930C9A0D9B100048400E900E
:103E0000624653400F930E980F990C9A0D9B801A9F
:103E100099410E900F9108940A9B0793534606937D
:103E20000496002305936346DA0F029200900191F5
:103E300043463A0059462800FFF76EFA0700C9E7E3
:103E40001C9A111D1C911268D317D1185940059462
:103E50000A9B0493534603930296D20F019200915A
:103E600043463A0059462800FFF7F8F90700B1E742
:103E7000230605D51C9A111D1C910023D25E96E7DE
:103E80001C9A111D1C91126891E71C9BDA1D0721D9
:103E90008A43110008311C9108940A9B07935346EA
:103EA00006930496002305930293136854680093C5
:103EB000019443463A0059462800FFF72DFA0700BF
:103EC00088E71C9A111D1C9105940A9B0493534684
:103ED00003930296002301931368009343463A002C
:103EE00059462800FFF7BAF9070073E723060DD5F6
:103EF0001C9A111D1C9112681204120C31E7C04665
:103F000094700010D8700010247100101C9A111DBC
:103F10001C91126825E746281AD01C9B07330722FC
:103F200093431A0008321C9204940A9A0392524650
:103F300002925C681B680093019443463A0059461C
:103F40002800FFF765FC0700119B0133119319E668
:103F500020231C43E1E7672801D0472802D18023B2
:103F60001B011C43452801D0472801D120231C43B5
:103F70001C9B0733072293431A0008321C920494B7
:103F80000A9A0392524602925C681B68009301945D
:103F900043463A0059462800FFF730FA0700119BC4
:103FA00001331193EEE502231A0022409246234288
:103FB0001FD001241C9B1A1D1C927A1C9146187854
:103FC00043463A005946A8475346002B16D1119B49
:103FD000013311934F46D5E5561C434659462020E0
:103FE000B847230032005C1C9D42F5D83D00170005
:103FF000E0E701233A002F000A9DF4E74A46A9466C
:104000000A9D06E0571C434659462020C847340005
:104010003A00661CA542F5D84D469146D7E71C9B51
:104020001A1D1C921B6899465346002B00D1013B78
:104030004E4601E0013613003278002A02D05A1EA3
:10404000002BF7D14B46F21A10928023DB0026009A
:104050001E401C4203D0524501D9534610930223FF
:104060001A0022400B92234205D03A0037004C46FA
:10407000A946554620E03A00109B5F46B3462E0005
:1040800006E0551C434639002020B04723002A0093
:104090005C1C0A999942F4D835005E46BB461094E0
:1040A00037004C46A946554606E01D000134561C13
:1040B00043465946C84732002078002804D0002FD4
:1040C000F4D06B1E002DF0D117004D460B9B002B3A
:1040D00003D1119B0133119354E50A9F109B06E015
:1040E000561C434659462020A847230032005C1C3A
:1040F0009F42F5D81700ECE721231C431C9B1A1D97
:104100001C921B6800930594082304935346039361
:10411000102302930023019343463A005946280096
:10412000FFF79CF80700119B013311932AE57C1CD3
:1041300043463A0059462520A847119B0133119365
:1041400027001FE57C1C43463A005946A847119BAF
:1041500001331193270015E50A4B9A4610E5AA464C
:10416000474502D343465A1E00E03A0043465946AB
:104170000020D047380013B0F0BCBB46B246A94679
:10418000A046F0BD693000100EB410B585B0010036
:1041900007AC08CC03940122009452420348FFF775
:1041A000E1FC05B010BC08BC03B01847613000103A
:1041B00000B585B0029003910121009313004A429B
:1041C00002A90248FFF7CEFC05B000BD6B3000101D
:1041D00001480421014B1847400400200D42001003
:1041E000014B9B68184700004004002010B50100F7
:1041F00018231B8814221088984710BD10B50100A1
:1042000018231B8816221088984710BDF0B5C646A3
:1042100000B507000E0000250123984600E0013597
:10422000B5420AD2AC003C192068FFF7DFFF2060DE
:104230000028F4D100239846F1E7404680BCB846F8
:10424000F0BD0000124A936F9B0815D29066D166AC
:10425000002905D0FFE7FFE7FFE7516F106F7047B8
:1042600004B580210906C2175140002800D0C84378
:1042700001F0CEFF002104BDF0B5146E556E576FEE
:10428000166FFFF7E3FF1466556657671667F0BDB4
:10429000000000D0114A936F9B0813D2106651663C
:1042A000002905D0FFE7FFE7FFE7516F106F704768
:1042B00004B5002801D00020C04301F0A9FF00216F
:1042C00004BDC046F0B5146E556E576F166FFFF7FC
:1042D000E5FF1466556657671667F0BD000000D00D
:1042E00094464A4A926F9208624601D228E0C0463C
:1042F000F0B5464E346E756E776F366F00F020F86D
:104300009446424A14665566576716676246F0BD82
:1043100094463E4A926F9208624601D254E0C046EB
:10432000F0B53A4E346E756E776F366F00F04CF81C
:104330009446364A14665566576716676246F0BD5E
:10434000002B24DB11D000293EDA00B5C9434042DE
:1043500000D1013100F038F8C943404200D10131A9
:10436000DB43524200D1013300BD002AEBD10028CB
:1043700001D1002905D00020C90FC90701D1C043D0
:10438000410800B501F03CFF0022002300BD00B54C
:1043900000290ADBDB43524200D1013300F014F85C
:1043A000C943404200D1013100BDC943404200D160
:1043B0000131DB43524200D1013300F005F8DB4309
:1043C000524200D1013300BD002923D1002B18D166
:1043D000002A0CD0BC460D4F38667A6600210023B7
:1043E000FFE7FFE7FFE77A6F386F674670470028FF
:1043F00001D00748010000B501F002FF00220023B0
:1044000000BD02000B00002000217047000000D01A
:10441000FFFFFFFF002B00D0BFE0130C28D1002AC4
:10442000E7D080B4114F39667A66FFE7FFE730B412
:10443000040C7B6F396F1B0423433B667A66FFE7EE
:10444000FFE7FFE7C04684B27B6F3D6F1B04234349
:104450003B667A66FFE7FFE7C04600232C042D0C7D
:104460007A6F386F00196941B0BC7047000000D006
:10447000F0B594460025140E01D112020835140F30
:1044800001D112010435940F01D192000235D40FED
:1044900001D152000135D40B0134254F7C66254CE7
:1044A0003C660E0C93B2FFE7FFE7FFE73C6F664305
:1044B000360C7703BE467343DF0B5B04C01AB94169
:1044C000130C7343DB18C91ACE086643360CB64486
:1044D00093B273431F0F1B01C01AB941130C7343EE
:1044E0001F0B1B05C01AB941860D8F023E43664360
:1044F000360C092D24DB520A7243801A7703460AD0
:104500006643360C16235B1BDE40DF40BF19644652
:104510006643821B7046043506330100D940A8402B
:10452000C01900D30131A24206D20023F0BD000021
:10453000000000D0FFFFFFFF121B0130F3D3F1E7B3
:1045400009277F1BFE406446A2B27243801A00D244
:104550000139220C7243130C1204821A99410B0088
:104560007046043513370100F940A840801900D384
:104570000131002B02D1A2420AD2F0BD013000D39A
:104580000131121BFAD2013BF8D1A24200D2F0BD98
:10459000013000D30131121BF7E7F0B51C0C00D03D
:1045A00080E00CB400251C0A04D11B02160E334314
:1045B000120208351C0B04D11B01160F33431201E4
:1045C00004359C0B04D19B00960F334392000235B7
:1045D000DC0B02D192185B4101351C009718644135
:1045E0000134464F7C66464C3C660E0CFFE7FFE705
:1045F000FFE7C0463C6F6643360C7703BE4697B272
:104600007743C01B00D20139C01B00D201399FB2D1
:104610007743C91BC91B170C77437E04FF0B801B14
:10462000B941CE086643360C0C2D33DBB644120B71
:104630001F053A431B0B97B27743C01B00D20139C9
:104640009FB27743C91B170C77433E043F0C801B76
:10465000B941860D8F023E43664329277F1BFE40EA
:104660000C3D7746AF40BF1930BCA2B2ABB272432B
:104670007343801A9941220C7243130C1204801A5E
:10468000994102000B000137001BA941F9D2781EA5
:104690000021F0BD0C277F1BFE4077467F0BAF400B
:1046A000FF19E0E700245D1C07D0144F7D663966D2
:1046B000FFE7FFE7FFE7FFE73C6F95B29EB2654378
:1046C0006643401BB141150C1E0C6543664336041E
:1046D0002F0C3E432D04401BB141994204D20200ED
:1046E0000B0020000021F0BD01D19042F7D3801AC9
:1046F000994101349942F2D3F6E70000000000D05E
:10470000FFFFFFFF48404140484018B41B4B5B6827
:10471000FC46019308BD04DFDF49001018B4174BB5
:104720001B68FC46019308BD00DFE9490010944670
:10473000134A926F920809D2624618B40F4BDB6895
:10474000FC46019308BD0CDFA14C00100C4AF0B5EB
:10475000146E556E576F166F6246FFF7EEFF084AEC
:104760001466556657671667F0BD18B4034B9B680F
:10477000FC46019308BD08DF454B0010C80F002020
:10478000000000D0FFB550404240504059404B40DF
:10479000594000E0FFB5154F4C00640D03D0BC42FA
:1047A00004D10C0314D80020090D09055C00640D28
:1047B00003D0BC4204D11C030AD800221B0D1B05E8
:1047C00001264B4009D44B4003D58B4200D1824295
:1047D000FFBD9942FCD19042FFBD0B43DB18034360
:1047E0001343F5D0C9434918FFBD0000FF0700007F
:1047F00000B5FFF7CFFF804100BDC04600B5FFF711
:10480000C9FF01D9002000BD012000BD00B5FFF7A0
:10481000B9FF01D9002000BD012000BD00B5FFF7A0
:10482000B1FF804100BD012040054A00121804D8A4
:104830005A00121801D8002070470120704700204C
:10484000704700000021002805D17047C11748407B
:10485000401AFAD0C90713B5064B1B6898470CBC21
:10486000441CA2401005120B0349091B09051943FA
:10487000114310BDC81000201F04000010B54C00EB
:10488000620D8023D218DB00D21A5B057E2A10DD70
:104890009E3A13DACC170903490819435242D14012
:1048A000640001341532202A05DAD0400843604301
:1048B00010BD002010BD0846604310BDC80FC018D1
:1048C000013810BD18B4044B5B6AFC46019308BD67
:1048D00024DF514E00100000C80F002070B51323D4
:1048E0001C78012C14D0012C14DC022C02DC1F4A91
:1048F0001F4B9A641F48FFF779FC1F4B186070BD6F
:1049000099001A481A4A885001331F2BF8D9EAE750
:104910000023FAE71948FFF771FC05001848FFF774
:104920006DFC023803789B007F2B19DD8022290063
:104930000F4800F035FC022CD7D1124B1A88B52352
:104940001B029A4209D1104B1A88104B9A4204D18B
:104950000F4B1A880F4B9A42C7D00020FEF768FB16
:104960000D4B0E4A32210E48FEF7C8FAA549001039
:10497000C80F00204C330000C81000205344000032
:104980005346000054380000D83800004946000063
:104990009C38000059460000C87200107473001063
:1049A0001C73001007B56046002800D100BE0188C6
:1049B0000A0A0230DF2AFAD1C9B2820804D3028877
:1049C00040880004104300E00068024A5050039001
:1049D00007BD0000C80F00200FB403BC0CBCF0B52D
:1049E0000124E407634000E0F0B50C0DCF0F661E14
:1049F0003605891B640503D3C943404200D3013106
:104A0000640D03D0661CF60A07D0E41B00207F006B
:104A1000791C89078912803C24031D0DDF0F6E1E4F
:104A200036059B1B6D0503D3DB43524200D3013394
:104A30006D0D03D06E1CF60A07D0ED1B00227F001F
:104A40007B1C9B079B12803D2D032F1B661B58D49C
:104A5000A446202E46DA20371400BC401D00BD407D
:104A6000F24033412A4380185941CB0F05D0C94346
:104A7000C043002264425041514162464D0D28D14D
:104A80000D0D07D100281FD0241940414941013A9A
:104A90000D0DF9D0640006D3013000D30131002C94
:104AA00001D140084000013A0BD4941CE40A04D11F
:104AB00012051144DB071944F0BDD907204B1943F7
:104AC00000E0D9070020F0BD0029DDD1002CDBD1AA
:104AD000F0BD0132C6074008CD0728434908002E23
:104AE000E1D0D9E73C2E29DA203E40371400BC4003
:104AF00000D00124F24014431A00BB401C43D317DA
:104B0000ACE7AC46202F08DA20360400B4400D0094
:104B1000B540F84039412843A5E73C2F0CDA203F47
:104B200040360400B44000D00124F840044308009B
:104B3000B1400C43C117EAE710001900002494E7C4
:104B40000000F07FF0B50C0D661E3605891BE60AE5
:104B50006405640D02D0651CED0A04D0002001211B
:104B60000905803C2403A4461C0D671E3F05DB1B82
:104B7000E70A6405640D02D0651CED0A04D000222A
:104B800001231B05803C24037740644497B484B21E
:104B900096B27443070C7E43150C6F4380B2684392
:104BA000361802D3012000043F183004350C0019D8
:104BB0007D41844688B29AB250430C0C62431F0C6C
:104BC0007C438EB27E43921902D301263604A41987
:104BD0001604170C3618674101BC81B29AB25143D2
:104BE000040C62431B0C5C4380B25843121802D37E
:104BF0000120000424181004130C401863412D18E0
:104C00005E410020474106BC88B293B258430C0C69
:104C10006343120C544389B251435B1802D3012100
:104C20000904641819041A0C091862416D185641D8
:104C30000020474118BCF902720D1143F0026A0DC1
:104C40001043ED020A0D03D16D1940414941013B6A
:104C5000124E9B1B7600B3420ED26D0007D301307B
:104C6000002671416646354301D1400840001B05CE
:104C7000C918E4072144F0BD0BDA013306D1013035
:104C800004D101314F0D01D04908F2E7E1070020BE
:104C9000F0BD013631050020EBE70000FF03000006
:104CA000F0B51C0D671E3F05DB1BE70A6405640DAC
:104CB00002D0661CF60A04D0002201231B05803CAA
:104CC0002403D0252D060026F6432E661E096E66A7
:104CD000CE0FF619B44649004F0D02D07E1CF60ADD
:104CE00003D000200021403F3F033E1BB600B444E8
:104CF000013F7F05C91B49082E6F013676089C02CB
:104D0000950D25437543ED137543AD1301356D10B6
:104D1000F603761B0CB4CC02450D2C43A2B2B3B201
:104D20005A43270C7B43350C6F43A4B26C431B19C9
:104D300002D3012424043F191C041D0CA4187D4136
:104D400024196D41009A91B2ACB26143170C7C43B7
:104D50002B0C5F4392B25A43A41802D301221204CF
:104D6000BF182204230C52187B41019C6C431B1971
:104D7000520ED9010A434401A01A81B2B2B2514382
:104D800003145A43360C734387B27743D617D219AC
:104D900000277E4136049B191704160C7F185E41CC
:104DA0007316ED18F301002680337541A90F06D163
:104DB0006400690AE8055B0A184309D22FE004225F
:104DC000944480337541A90AA8059B0A184326D349
:104DD000404149412404009A019B0D005543641B46
:104DE0004343E41A95B286B27543170C7E43030C15
:104DF0005F4392B25A43B61802D301221204BF187D
:104E00003204330C52197B4152429C41002C02D493
:104E10000022013051414008CA071043490802B03E
:104E20006246D7079210084BD218084B9A4203D219
:104E300012058918C919F0BD0020002A01DC3900CB
:104E4000F0BD01331905F5E7FD030000FE07000082
:104E5000002200B5203200F004F8080000BD000078
:104E600000220B150AD410B5944600F031F8141442
:104E7000013400DA0021CB17144C20470020002118
:104E800070476244343A0CD40C2A07DA040091408B
:104E9000904052422032D440214310BDD843D943E0
:104EA00010BD203207D40C469440524220321141AA
:104EB000D040204310BD0800C917203203D452420D
:104EC0002032104110BD1800190010BD834E001093
:104ED0000A0DCC0F531E1B05C91A520503D3C94333
:104EE000404200D30131520D03D0531CDB0A07D0DE
:104EF000121B00206400611C89078912803A12038A
:104F0000014BD21A70470000FF0300005143434396
:104F1000C9188C46110C83B24B4310B4040C614386
:104F200092B280B2504362431C041B0C001910BCA7
:104F300059411304120CC0185141614470470000DC
:104F400048404140484000239C46114B5B6818474D
:104F500000239C460E4B1B6818470E4A936F9B0814
:104F600004D200239C460A4BDB681847F0B5146E48
:104F7000556E576F166FFFF7F4FF064A14665566B5
:104F800057671667F0BD00239C46014B9B68184786
:104F9000CC100020000000D0491A002808D1084693
:104FA00070470000C10FC90700D54042002817D044
:104FB000F44603B40B4B1B68984706BC81409E38EF
:104FC0004042803107D20B0607D04900490AC0058C
:104FD0001043084360470130F8E7490A8902F5E7C2
:104FE00070470000C810002000239C46014B5B6AFC
:104FF00018470000CC10002070B513231D782A48F4
:10500000FFF7FCF80400012D11D0012D09DDA31ECE
:105010001B789B007F2B40DD80222100234800F07D
:10502000BFF82348FFF7E2F8224B186070BD542206
:1050300001001E4800F0B4F81F4B1A881F4B9A421B
:105040001CD1A7239B011A881D4B9A4216D11D4BD8
:105050001A881D4B9A4211D11C4B1A8894239B012C
:105060009A420BD11A4B1A881A4B9A4206D11A4B04
:105070001A681A4B9A4201D1152307E01848FDF728
:10508000D7FF99001748094A885001331F2BF8D9D8
:10509000144A064B1A62DA61B7E7134B134A4221EE
:1050A0001348FDF72BFFC04653460000CC100020EC
:1050B0004C330000C8100020EE290000C40F00008F
:1050C000C20D0000962B0000C0B50000182B000098
:1050D000CC2A000010B50000FC2C000051ED8764C4
:1050E000B46F0010F5500010887300101474001095
:1050F000BC73001007B56046002800D100BE0188CF
:105100000A0A0230DF2AFAD1C9B2820804D302881F
:1051100040880004104300E00068024A50500390A9
:1051200007BD0000CC10002070B504000A4E30000E
:1051300001F07EF8200000F00FFC0500300001F0C7
:1051400057F8002D05D02C19044B9C4201D828009B
:1051500070BD0348FDF76CFFA00C00200000042088
:105160002874001070B50400054D280001F060F8A7
:10517000200000F0FBFB280001F03AF870BDC046AB
:10518000A00C002001480421014B184750040020C6
:105190000D420010014B1B6818470000500400200E
:1051A000014B5B68184700005004002010B5030055
:1051B000080011001B68984710BD0000F8B50700F3
:1051C0000D001600437D002B02D0002400200CE0CF
:1051D00003681100280098472DE03B7D10E0022174
:1051E00015483B689847601C0134B44214DA002C1F
:1051F000F3DD2B19013B1B780D3B5A425341DBB2C7
:105200002A5D0A2AF0D1002BEED1A042E7DA211A5A
:1052100028183B689847E2E7B04203DA311A2818A9
:105220003B689847002E06DDAD19013D2B780D3BFC
:105230005A4253413B75F8BDB074001070B505007B
:105240000368002B16D00C4B1C6805E0290004C92C
:105250002000FFF7B3FF2469002C09D02368002B3E
:10526000F9D0064B1B68002BF0D0A342F3D1EDE739
:1052700000232B6070BDC046A40F0020A80F0020A3
:1052800070B505000C000B68802B05D021684B1C05
:1052900023606418257170BD0800FFF7CFFFF5E7A4
:1052A00010B5FDF745F802000B1E0BDB0D48002181
:1052B00012184B41002B0BDB002B0DDB0A4800F0D2
:1052C000AFFF10BD094B0A4A3F210A48FDF716FE01
:1052D00001225242084BEFE7044B054A3F210548A3
:1052E000FDF70CFE40420F00A80C0020F4670010F0
:1052F0009874001010680010FFFFFF7F10B502487F
:1053000000F076FF10BDC046A80C0020F0B5CE46D8
:10531000474680B583B006000D0090461C00FFF79D
:10532000BFFF81466B1C05D0002C08D0194F1A4BCB
:105330001C6807E0300000F0F3FD0500F4E7174FAC
:10534000F5E72469002C17D02368002BF9D0144B03
:105350001B68002B01D0A342F3D12A0031002000AA
:10536000B8474346002BECD06B46D91D0A230B707F
:1053700001222000B847E4E74B46002B07D16B1E03
:105380009D41E8B203B0C0BCB946B046F0BDFFF7DE
:10539000B5FFF4E7AD510010A40F0020BD5100107F
:1053A000A80F002010B5064B1C6801E0984724693F
:1053B000002C03D06368002BF8D1F8E710BDC0467D
:1053C000A40F002070B5050000F0AAFD0400002322
:1053D000012201002800FFF799FFFFF7E3FF2000FB
:1053E00070BD000070B5A2B004000E00FFF758FFBA
:1053F0000500002301933300220001A90848FEF7AD
:10540000D7FE040001A8FFF719FFFFF7CBFF002D1F
:1054100002D1200022B070BDFFF770FFF9E7C0464F
:10542000815200100FB400B583B004A901C90191E5
:10543000FFF7D8FF03B008BC04B01847002070473E
:105440000523CB56002B01DB934211D1094B9C461F
:105450006044434258418000074BC05809790123FA
:105460008B40013B9340184043425841C0B27047C3
:105470000020FCE70000D0AF240E002070B50A79B0
:10548000202A19D8174B9C4660444342584180005B
:10549000154BC45801239340013B497949B2002977
:1054A00010DB08002025AA1A914218DC8B401C4210
:1054B00001D00120404270BD0C4B0D4A40210D48E7
:1054C000FDF71CFD2020801A002805DB1A00824011
:1054D0001442F0D00138F7E701204042EBE7012009
:1054E0004042E8E70000D0AF240E0020B474001062
:1054F000C8750010E074001070B505000C001600AF
:10550000FFF79EFF002801D0002007E01548FDF7B7
:105510008FFD831912339B005A5101302379834246
:105520000FD92378617809021943A2781204114334
:10553000E3781B060B4342009A5A530BE9D19219A8
:10554000E7E701229A401300013B074A944665446D
:105550006A425541B340054AAD00A9580B43AB50D0
:1055600070BDC0462C7500100000D0AF240E002086
:1055700010B5054B9C466044434258418000411899
:105580000248FBF765FE10BD0000D0AFE811002017
:1055900010B582B00A4B9C46604443425841840097
:1055A000E31C084A009222000748FBF729FE8442C8
:1055B00002DC001B02B010BD01204042FAE7C046E9
:1055C0000000D0AF40750010E811002010B5054B69
:1055D0009C46604443425841800041180248FBF712
:1055E000EBFD10BD0000D0AFE811002070B5040045
:1055F0000E00FBF7CBFD050031002000FFF73EFF5A
:10560000441C631E9C41E4B22800FBF7CBFD200044
:1056100070BD0000F8B505000E00FBF7B7FD0700F0
:1056200031002800FFF72AFF041E09DB02003100C9
:105630002800FFF761FF3800FBF7B4FD2000F8BD3C
:105640000148FDF7F5FCC0462C75001070B504004C
:105650000B7901259D40013D9540FBF797FD0C4BD3
:10566000E3185A42534199000A4A8A5829001140C6
:10567000A94206D19B00AA4306495A50FBF792FD66
:1056800070BD054B054A8A210548FDF737FCC04629
:105690000000D0AF240E002064750010B475001017
:1056A000E0740010F0B5D6464F464646C0B5070038
:1056B0000E0090461D004B005A18D20082181100AF
:1056C000DC3109688A46CC32126891469B19DB00AE
:1056D000C833C3180433C0229201134380229202BC
:1056E0001A6018E02800FEF77BFD42018023DB04EE
:1056F00013437400A419E4003C192200DC32136047
:105700004246C24001231A40E0231B021343D8340F
:1057100023606B1E1D40002DE4D171008B19DB004E
:10572000FB18DC3352461A608919C9007F18CC3740
:105730004B463B60E0BCBA46B146A846F0BD00000F
:10574000F0B5D6464F464646C0B507000E00904617
:105750001D004B005A18D20082181100DC31096874
:105760008A46CC32126891469B19DB00C833C318B5
:105770000433C02292011343802292021A6017E080
:105780002800FEF72DFD42018023DB041343740043
:10579000A419E4003C192200DC3213604246C240E6
:1057A00001231A400C4B1343D83423606B1E1D4059
:1057B000002DE5D171008B19DB00FB18DC3352465C
:1057C0001A608919C9007F18CC374B463B60E0BC92
:1057D000BA46B146A846F0BD80E0000070B58AB078
:1057E00004000D00160002680121A9408A430260EE
:1057F000002B34D069004919C90041180A00C83289
:10580000186810600432586810600432986810609C
:10581000DB68DC310B6069004B19DB00D033E31827
:10582000802252011343802212061A601A60234B11
:10583000AB40A3602B1D01221000984080239B01E8
:10584000234318602800083082401A601F22164047
:105850004919C9006418D83426600AB070BD1022F6
:10586000002106A8FFF796FC80235B020693F8232D
:105870005B0207938023DB020893C0231B0308937A
:10588000102206A902A8FFF78BFC6B005B19DB0056
:10589000E3181A00C83202991160039A01921A00A3
:1058A000CC3201991160049A01921A00D032019908
:1058B0001160059ADC331A60ADE7C04601010101B1
:1058C00010B501000148FBF7C3FC10BDE411002036
:1058D00000B583B00100044B00930B230022034862
:1058E000FBF78EFC03B000BDE8750010E41100204A
:1058F00010B501000148FBF75FFC10BDE41100206A
:1059000010B5024800F004F810BDC046C00F0020DA
:1059100070B588B0040004AD002604960922002169
:1059200005A8FFF737FC00960922002101A8FFF720
:1059300031FC4B232B700D226946280000F050FCEF
:10594000002304E05A1D69468A5CE2540133072BA8
:10595000F8DD08B070BD000010B5034B01001868F9
:1059600000F00EF810BDC0466004002010B5034BD7
:105970000100186800F050FB10BDC0466004002014
:10598000F0B54E464546DE465746E0B50D000B35B0
:10599000060083B0162D22D8102900D9B2E000F0FD
:1059A000A9FA102518230220CC4FFB181A005C68B6
:1059B000083A944200D1B5E0032362689A43130089
:1059C000E268A168CA6091600122E318596830005A
:1059D0000A435A6000F090FA2000083095E007234F
:1059E0009D4300D58EE0A94200D98BE000F082FAF9
:1059F000FC235B009D4200D2A1E1680A00D18BE04C
:105A0000042800D974E138239846A8098044393025
:105A1000C100B24F79184C680839A1420ED0032357
:105A20009C4604E0002ACBDAE468A14206D0624634
:105A3000636893435A1B0F2AF4DD40463A003C69E1
:105A40000832944200D178E0032361689943894683
:105A50000B00491B0F2900DD75E17A613A610029CD
:105A6000B2DA80229200914500D310E15909DA0898
:105A700001238B40D2007968D2190B4391687B6077
:105A8000E260A1609460CC60012182109140994253
:105A900059D80B4205D103229043490004300B42F0
:105AA000FBD003239846C3009946B944CC468246AE
:105AB0006346DC68A44507D126E1002A00DB2FE11C
:105AC000E468A44500D11FE14246636893435A1B32
:105AD0000F2AF2DD01208046611905436560A06848
