:020000041000EA
:1000000000B5324B212058609868022188439860DF
:10001000D860186158612E4B002199600221596106
:100020000121F02299502B49196001219960352056
:1000300000F044F80222904214D00621196600F024
:1000400034F8196E01211966002018661A6600F04E
:100050002CF8196E196E196E052000F02FF8012189
:100060000842F9D1002199601B49196000215960AB
:100070001A491B48016001219960EB211966A021F2
:10008000196600F012F800219960164914480160C1
:100090000121996001BC002800D000471248134993
:1000A000086003C880F30888084703B5996A0420EC
:1000B0000142FBD001200142F8D103BD02B5186610
:1000C0001866FFF7F2FF186E186E02BD00000240BE
:1000D000000000180000070000035F00212200005C
:1000E000F4000018222000A00001001008ED00E03C
:1000F00000000000000000000000000074B24E7A12
:1001000000200420F7010010C3010010C5010010F9
:10011000C1010010C1010010C1010010C101001097
:10012000C1010010C1010010C1010010C701001081
:10013000C1010010C1010010C9010010CB01001065
:10014000CD010010CD010010CD010010CD01001037
:10015000CD010010CD010010CD010010CD01001027
:10016000CD010010CD010010CD010010CD01001017
:10017000CD010010CD010010CD010010CD01001007
:10018000CD010010CD010010CD010010CD010010F7
:10019000CD010010CD010010CD010010CD010010E7
:1001A000CD010010CD010010CD010010CD010010D7
:1001B000CD010010CD010010CD010010CD010010C7
:1001C00000BE00BE00BE00BE00BE00BEEFF3058054
:1001D000103800BEF2EB8871A4DE0510CCDE0510ED
:1001E0003402001090A31AE700201F49086006C8D7
:1001F00081F3088810471D48006800282FD10DA4FE
:100200000ECC002902D000F012F8F9E71849194A7B
:10021000002000E001C19142FCD1174988471749ED
:1002200088471749884700BEFDE701C901C29A42C5
:10023000FBD37047CCDE0510C00000203C16002028
:1002400048F40510000004200000042048F40510C4
:10025000001004200010042000000000704709482E
:1002600004F0FCFA0047000008ED00E0000000D0B8
:1002700040160020704000201D360010750E001042
:10028000DB3500105756000006005250ABB36053E8
:10029000E8CE041006005250861C0302F8CE04106B
:1002A000060052505422A29D04CF04100500525063
:1002B000DE65F46848F40510F8B5C046054B0648FD
:1002C000033310B51B1A062B03D9044B002B00D0A7
:1002D000984710BD3C1600203C160020000000008E
:1002E0000648074910B5091A8910CB0F591849104B
:1002F00003D0044B002B00D0984710BD3C160020C3
:100300003C1600200000000010B5074C2378002B9D
:1003100009D1FFF7D3FF054B002B02D0044800E0C2
:1003200000BF0123237010BD48170020000000000B
:1003300090AB0410094B10B5002B03D008490948B5
:1003400000E000BF08480368002B02D1FFF7C8FF98
:1003500010BD064B002BF9D09847F7E700000000CE
:100360004C17002090AB04103C1600200000000049
:100370000160C260002343608360704770B5040071
:100380000E008568681CE16804F0BCFA6368994255
:1003900004D023685E55A160012070BD0020FCE7F9
:1003A00010B5836842689B1AC168581804F0AAFA0D
:1003B000080010BD10B5C468FFF7F2FF201A01381D
:1003C00010BD002905D1102801D001207047002060
:1003D000FCE7102801D00320F8E70E38F6E700000C
:1003E00070B50E008723DB00C5182800FFF7E2FF79
:1003F000064B984209D90024044B9C4205D8315D34
:100400002800FFF7BBFF0134F6E770BDFF010000D5
:10041000012801D1C8B270472020FCE7002308E082
:100420000A4AA021C905895801229A4011420BD1DC
:1004300001330B2B06D80028F2D0054AA021C905AC
:100440008958F1E701235B42180070470C04000053
:100450001C04000010B50023012B0CDC1A000C3228
:10046000920012588A4202D00133DBB2F4E73830EE
:100470005C02001900E0002010BD0000F8B5060085
:10048000FFF7CCFF0400431C10D0B300154A9D5861
:10049000002D0BD001002800FFF7DCFF071E05D060
:1004A0002B7C002B03D001220F4BEA54F8BD010036
:1004B0002800FFF795FF002E0CD00123A3400B4A24
:1004C000A021C9058B50A401A023DB059C466444F0
:1004D0006760E8E70123A340054AA021C9058B50C6
:1004E000F1E7C046981700204C0400001C040000EF
:1004F0000C04000010B50020FFF7C0FF10BD10B5C0
:100500000120FFF7BBFF10BD70B504000D0005F022
:1005100043FE6368A26893420AD02268D35C2B70C2
:100520006368581CE16804F0EDF96160012070BD5A
:100530000020FCE7F0B5DE4657464E464546E0B59E
:1005400083B004000F681123C356102B10D004236E
:10055000A27C012A0ED001225A4393464D68110015
:10056000082004F0A7F9684380460023994648E034
:100570000E3BEDE70132EFE7022B4ED179198723CD
:10058000DB00E018FFF7C0FF002848D001239C469D
:10059000E14401235B429C46E0440136F6B2072E5B
:1005A0002EDC5346DA00234B9B189D576B1C0ED054
:1005B000237F002BE0D179198723DB00E018FFF7B8
:1005C000A3FF0028F7D001239C46E144E1E7237F05
:1005D000002B09D18723DB00E0186B46D91DFFF7FC
:1005E00093FF0028F6D0D4E7022B20D18723DB002D
:1005F000E0186B46D91DFFF787FF0028C9D10EE030
:100600005F444346002B0AD0A17C11202056FFF7FF
:10061000D8FEC3B29A460026C1E700239946484651
:1006200003B03CBC90469946A246AB46F0BD0023C1
:100630009946F4E74CBB041070B584B006000D0079
:100640001400037C002B20D11123C356DA17072195
:100650001140C918C910C9B2837C012B0CD00123E9
:100660005943C9B2200004F04DF9002910D1002CE3
:1006700004D1002004B070BD0133F1E7019502946C
:1006800001A93000FFF756FFF4E701204042F1E7EF
:1006900002204042EEE770B50400036A002B0FD041
:1006A0002420255C1A680121A9408A431A60215C34
:1006B000206A47F0E5F9206AA16AE26A47F04EFA3B
:1006C00070BD000010B50C2905D9064B064AC321A0
:1006D000064802F085FF064B02681340C902194321
:1006E000016010BD74BC0410DCBB041094BC041089
:1006F000FF87FFFFF0B583B007000025012D30DC38
:100700002B000C339B00DC59A601A023DB059C4683
:100710006644F3680193210001A8FFF7D3FF019B12
:1007200033613B78002B17D00123A3400E4A13609E
:100730000123A3400D4AA021C9058B50A301A0228B
:10074000D20594466344DB68DB01F7D4200047F010
:100750001DFB0135EDB2D1E70123A340044A13602C
:10076000E6E703B0F0BDC046143400504404000076
:100770000434005010B53F2905D9064B064AB5216F
:10078000064802F02DFF064B02681340C9031943C7
:10079000016010BDE4BC0410A4BB041094BC0410A0
:1007A000FF7FE0FF10B50378002B08D100210B205C
:1007B00001F070F806490B2001F0D6F910BD0021B8
:1007C0000C2001F067F803490C2001F0CDF9F5E7A2
:1007D000F5040010FF04001010B50400036A002B9C
:1007E0000ED0FFF758FF2000FFF784FF2000FFF72F
:1007F000D9FF8923DB00E05805F094FB0023236236
:1008000010BD000010B50378002B08D108490B205B
:1008100001F06AF801210B2001F03CF810BD0549F8
:100820000C2001F061F801210C2001F033F8F5E70C
:10083000F5040010FF040010F0B587B00400027C3E
:10084000012A1AD111228256102A13D1684A8262D3
:100850000027012F23D8BB00664A9E580025032D90
:100860000ED82900300047F039F9002815D001359D
:10087000EDB2F4E7604A8262EAE7604A8262E7E743
:100880000025A16A300047F039F90300002D01D09E
:10089000002804D10137FFB2DBE70125F1E7002D85
:1008A00000D19EE0002B00D19EE0266200213000A6
:1008B00047F0F6F824256055A16A206A47F032F91E
:1008C0000200E062615D0023206A47F00BFAF82322
:1008D0005B020393656911216156207CFFF798FD47
:1008E000AD00684305F050F8051C052002F03CFD02
:1008F00005F045F8291C04F0D8FF061C05F098F80F
:1009000085B2002D58D0280005F039F8011C301CA4
:1009100004F0C1FF8721C90504F0DDFF05F088F868
:10092000C0B200022D0428430290207C012845D14A
:1009300080235B03E2681343059311216156FFF79F
:1009400067FD4006F8239B051840C023DB020343E4
:100950008020C00518430490059BDB00DB08802144
:10096000C9051943039B0193254B019A1340254A5E
:100970001140626892021143E06AA26A12798218F9
:10098000013A214D2B40C001034312031343226A55
:100990002420245C0C38604312181000C830029CDC
:1009A00004600430036004981300D0331860DC3214
:1009B0001160002007B0F0BD0020B2E7E368DB0360
:1009C000059311216156FFF723FD0005F8235B0411
:1009D000184090231B030343802000061843049013
:1009E000BAE701204042E5E702204042E2E7C04684
:1009F00098AB04106CBB0410A0AB041090AB0410B7
:100A0000FFFFFF9FFF83FFFF7F00FEFFF0B583B076
:100A100006000191140008AA17780125A540A340FB
:100A20001A002B0047F0C6F83A00A2402B000199AB
:100A3000300047F00BF9054B9E4205D106212000FE
:100A400000F0BCFD03B0F0BD0721F8E70000205026
:100A500070B582B004002426815D01250095002335
:100A60004268006AFFF7D2FFA15D00950023A268EB
:100A7000206AFFF7CBFF237CAB4208D1206AA15D3F
:100A8000E26800950023FFF7C1FF02B070BD206A45
:100A90002423E15CE26800230093FFF7B7FFF4E74B
:100AA000F0B5CE46474680B583B0040000252E0041
:100AB0000B2D09D8280047F081F9002801D1013613
:100AC000F6B20135EDB2F3E7012E00DCF3E00025CC
:100AD000012D09DC002047F061F92B000C339B004D
:100AE00018510135EDB2F3E711216156207CFFF773
:100AF0008FFC102828D1012700263500012E00DDAB
:100B0000AFE033000C339B0019596F4B019301A8E0
:100B1000FFF7D8FD0C23019A9A43043B13436B4A19
:100B200013406B4A13406B4A1340012213436A4A35
:100B30001340022293430193974207D9674B684AB7
:100B4000D121684802F04CFD0227D5E70C23019A19
:100B50009A431300BA0013430193731C624A134073
:100B600004D5013B02225242134301330C339B0054
:100B7000195901A8FFF7A6FD230038336A029846E9
:100B80009044237C012B36D12333E15C574B226AFE
:100B90009A422ED10023C91801A8FFF7EBFD1023BC
:100BA000019A13432022934301930C35AD002D5934
:100BB0002423E35C04339B00226A9146994411216B
:100BC0006156207CFFF724FCC008C1B28020800061
:100BD00003F070FEAB01A022D20594466344424666
:100BE0001A604A465A609860019A1A610136F6B254
:100BF00083E70823CFE72423E15C04313B4B226ADF
:100C00009A422CD10023C91801A8FFF7B3FD102385
:100C1000019A9A431033134301930C35AD002D59BB
:100C20002423E35C08339B00226A914699441121F6
:100C30006156207CFFF7ECFBC008C1B28020800029
:100C400003F038FEAB01A022D205944663444A4625
:100C50001A6042465A609860019ADA60C6E7082333
:100C6000D1E700231A00012B2CDC257819000C3168
:100C700089000859002D12D0012181401C48A0256F
:100C8000ED05295020780C329200115900280DD022
:100C900001228A4017490A600133DBB2E2E70121F1
:100CA00081401548A025ED052950EBE701228A4037
:100CB00012490A60F0E70120404203B00CBC9046A4
:100CC0009946F0BD0020F8E710801F003FF8FFFFB5
:100CD000FFFFBFFFFFFFDFFFFFFF7FFF08BB041029
:100CE00018BC041094BC04100100008000002050C7
:100CF0001C040000142400500C04000004240050C4
:100D0000F0B5DE4657464E46C0B504008A469146C9
:100D10009B4608AB1D7809AB00269E570AAB1F788F
:100D20000B00013393424DD1012D4ED8102E01D02E
:100D3000202E4DD1012F4ED80B9B002B4EDD1800DD
:100D400005F0DEF801008923DB00E050103BE318DA
:100D50000B9A1800FFF70CFB534663604B46A360E9
:100D60005B46E36025746674A7740C9B63610B9B00
:100D7000A361002323772000FFF744FD2000FFF745
:100D80005BFD002819D12000FFF762FE2000FFF76D
:100D900087FE002811D1256A2423E25C2968233BC1
:100DA0001E0096403200B1430A432A60226B9340F2
:100DB0008622D200A021C9058B501CBC91469A46C0
:100DC000A346F0BD01204042F7E702204042F4E78D
:100DD00003204042F1E704204042EEE70520404274
:100DE000EBE70000F0B5C64600B58AB005000791F4
:100DF0000892099310AB1B78984611AB00269E57BA
:100E000012AB1F78012827DC8300144A9C58002C61
:100E10001ED18A20C00005F073F80400AA000F4B11
:100E2000D0500570149B0493139B03930297019673
:100E300043460093099B089A07992000FFF760FF3B
:100E4000002800D0002420000AB004BC9046F0BD69
:100E50002000FFF7C1FCE5E70024F4E79817002025
:100E600010B501F07BFD024903F04CFD10BDC046FA
:100E70001027000030B587B005F0DAF90F2000F038
:100E8000CFFB80221202D0231B069A62002201218E
:100E90000F2000F0ABFB6E4805F08EF96D4800F0B6
:100EA000C3FA002803D16C4805F086F9FEE76B48C9
:100EB00005F082F96A4800F059F9002803D1694821
:100EC00005F07AF9FEE7684805F076F9614C2000F4
:100ED00000F056FA654B1860200000F077FA852183
:100EE000C90504F0F8FC04F071FD614B18602000A6
:100EF00000F076FA04F048FD5E4B1860FA239B017F
:100F000004938023DB0003930020029010230193BD
:100F100000900A3B03220221FFF764FF564B186042
:100F2000002803D1554805F047F9FEE7544805F07D
:100F300043F9544805F040F9534805F03DF953484A
:100F400005F03AF9524805F037F927E04F4C2000F8
:100F500005F032F94F4805F02FF9200005F02CF983
:100F60004D4805F029F94D4B19684D4800F0CCFA71
:100F7000002456E0FFF774FF0400364800F008FA3A
:100F8000FFF76EFF001B03F09DFF0022454B03F0AF
:100F900006FF02000B00444805F03EF9364B186886
:100FA0008022D2004149FFF747FB414B1860D02314
:100FB0001B065B681B04C9D52C4B19687C230422D3
:100FC000274800F08EF93B4C8023DB00E11880229B
:100FD0005200200004F0B8FF621CFF3280239B0007
:100FE0000021324848F06AFC0024032CC2DC2302B2
:100FF0003049C91823007833DA01D3181B4A126824
:10100000D2181B4B1B681B4800680090144800F066
:1010100003F90134E9E7224B195D274805F0FCF894
:101020002C002B2C06DC651CEB06F4D1174805F0D0
:10103000C3F8F0E7154805F0BFF8204805F0BCF804
:10104000164B19681E4805F0E7F8002007B030BDC0
:10105000F8BC04107C2A002020BD041040BD041000
:101060001821002068BD04108CBD0410583D0020DC
:10107000643D0020683D002074250020B4BD0410AC
:10108000D4BD0410FCBD041024BE041060BE0410C6
:1010900034BE04104CBE041064BE0410A82000200E
:1010A000442100200000594080BE04106C1C002028
:1010B000303D0020782500208CBE041094BE041022
:1010C000ACBE041070B504000D00012805D0002C42
:1010D00002D10D4B9D420FD070BD0B4B9942F6D102
:1010E00080214900094800F037F88022920208491F
:1010F000084800F02DF9EAE7064800F003F9034834
:1011000000F012F8E8E7C046FFFF000018210020B9
:10111000A8AB04107C2A002010B502490120FFF77B
:10112000D1FF10BDFFFF000010B50400044B0833D1
:1011300003608068002801D004F014FF200010BD77
:10114000B4BE041010B50400FFF7EEFF2421200008
:1011500004F00CFF200010BD034B08330360416016
:10116000002383607047C046B4BE0410F0B583B05E
:1011700006004068244B984233D8400004F0EEFE4D
:10118000B06000283DD0002475682900AC422BD205
:10119000200004F0F4FB1D4904F09DFB071C28000F
:1011A00004F0F2FB011C381C04F07FFB48F050FAFD
:1011B00004F04EFC02000B000020154903F0DDFD99
:1011C0000022144B03F009FE03F018FF01906100A8
:1011D000B3689C466144012201A848F00FF901342C
:1011E000D2E701204042C9E730000C300123002241
:1011F00046F0ECFD002802D1012003B0F0BD002034
:10120000FBE70020F9E7C046FCFFFF3FDB0FC940CA
:101210000000F03F0000E03FF0B5CE46474680B505
:1012200083B000AF040016007B6043685A000832A8
:10123000D208D2006846821A954610009A000832F9
:10124000D208D2006D46AA1A95463A60DA0FD21833
:101250005210013252000832D208D2006D46AA1A4A
:101260009546E94605000200A06848F0B5FA23005B
:101270000C3318003A68290046F0B6FE6368DA0FAE
:10128000D218521001326946386848F033F9002507
:1012900003E07F203070013546466268D30F9B180B
:1012A0005B1001339D4216DA731C98466B004A4668
:1012B000985E796803F0FEFA04F066FBB96A04F000
:1012C000EFFA04F083FB7F28E3DC03008033E1DAEC
:1012D00080204042DEE7BD4603B00CBC90469946F4
:1012E000F0BD70B50D004168CC0F64186410013476
:1012F0001100614369189A1A6243280048F094FE6D
:1013000070BD000070B504000A4B083303608569A6
:10131000002D08D0280041F064FD9821280004F039
:1013200025FE0023A361E068002801D004F01AFE26
:10133000200070BD74BF041010B50400FFF7E2FF79
:101340000249200004F012FE200010BDB41200007B
:1013500010B50400084B083303604160826000232D
:10136000C360064A026143618361C3610362243042
:101370000AF094F8200010BD74BF0410143D05104D
:10138000C369002B01D0186970470020FCE70000FA
:1013900070B50400806942F013F9002811D1246A65
:1013A00023690020185604F0EFFA051CE06804F0E9
:1013B000EBFA011C281C04F06EFAA16804F08BFA09
:1013C00070BD0148FCE7C0460000C07FC369002B28
:1013D00001D0986870470148FCE7C0460000C07F14
:1013E000C369002B01D0D86870470020FCE7704724
:1013F00010B50068FFF7FBFF10BD704710B500681F
:10140000FFF7FBFF10BD704710B50088FFF7FBFF2B
:1014100010BD10B504000068FFF7E9FF201810BDEB
:1014200010B5FFF7F6FF10BD70B584B0040040683A
:10143000FFF7F6FF05006061FFF7E0FF2E1A3000AE
:10144000FFF7E2FF042813DD301DFFF7DDFF002862
:1014500010D02818FFF7CCFF0200032A0CD0200080
:1014600010300323244907F075FB002004B070BD41
:101470000020ECE70022F0E7A06804F06FFDE060D8
:10148000002824D0982004F065FD050026001036C1
:1014900022002432002302930196A3680093E3689C
:1014A000616941F031FDA561002D18D0280041F09F
:1014B000A1FF002819D10021A06941F011FEE061CF
:1014C0000021A06941F04EFD20620120CEE72000FE
:1014D0001030A268094907F03DFB0020C6E7084923
:1014E000300007F037FB0020C0E70649300007F066
:1014F00031FB0020BAE7C046C4BE04100CBF041084
:1015000038BF041058BF041070B552230370093B54
:101510004370033B8370C3700B00243303711A0ABA
:1015200042711A0C82711B0EC37157230372163B52
:10153000437215338372113BC37221330373073334
:101540004373742282732025C5731024047400230E
:1015500043748374C3740126067543758675C37519
:101560007F360676423E46768376C37603773F36ED
:1015700046778377C3777B3E465501354355013522
:1015800044551334035541342433C4543D333F3C54
:101590000355013402554D3A8354393BC1540A1264
:1015A0000133C2540A140133C254090E0133C15429
:1015B00070BD10B504F032FF10BD000010B58300FF
:1015C000084A944663441C6840226240C024144088
:1015D0008022520113431C60C000034B9C466044B0
:1015E000416010BD04C001400040014080000B4B31
:1015F0009C46604400290DD00823002A0CD100220B
:101600001343026853400C221A4080235B011843A5
:10161000026070470023F0E70422F1E704C00140B4
:1016200010B501238340D0221206936293610521F5
:10163000FFF7C4FF10BD0000034B1B6802201840D9
:10164000431E9841C0B2704700C00640EFF31080BF
:1016500072B6034B1B68002BFBD0BFF35F8F704744
:101660002C0100D0BFF35F8F0022024B1A6080F381
:10167000108870472C0100D0CB08C25C07231940AA
:10168000012088401040431E9841C0B2704770B599
:1016900005000E001400FFF7D9FFF208AA1815780C
:1016A0000721314001238B402B4205D1DBB22B4374
:1016B0001370FFF7D7FF70BD3100200002F02AF849
:1016C000F0B583B00700019114001E00FFF7BEFFC4
:1016D000B4420ED8E208BA18157807212140012338
:1016E0008B402B4201D00134F2E7DBB22B43137065
:1016F00001E001246442FFF7B5FF002C02DB20006B
:1017000003B0F0BD019B002BF9D0089802F002F85D
:1017100070B504000D00FFF799FFEB08E3181C7883
:101720000721294001228A40224204D094431C70A0
:10173000FFF798FF70BD034B034A3321034801F0C4
:101740004FFFC04694BF041084BF0410B4BF041000
:10175000002307E0054A9A189200BFF35F8F00212B
:10176000116001331F2BF5D97047C046400000348B
:10177000054A1078431CDBB21370172B02D91022D4
:10178000014B1A707047C046B80C002000B583B0FA
:101790000100044B00931F2318220348FFF790FF1A
:1017A00003B000BDF8BF04107C200020074B9B68ED
:1017B000103080001950BFF35F8FBFF35F8F00219F
:1017C000034B196082F310887047C04600ED00E0BB
:1017D000240100D010B5091A0B1F0A4A944661442F
:1017E000094A914208D8DA0706D45B105B055B0D05
:1017F0000648184380B210BD054B064AA32106488F
:1018000001F0EEFEFC070000FE0F000000E0FFFF0D
:1018100048C2041030C0041078C2041010B5091A70
:1018200004394C08090B08D14905490D064A1143F2
:101830000180064B2343438010BD054B054AAB2175
:10184000054801F0CDFEC04600F0FFFF00F8FFFFA5
:10185000ACC004103CC0041078C2041001238340C3
:10186000034A10681840431E9841C0B27047C046F2
:1018700000E100E0002902D1034B18607047034BE0
:101880001860034B1860F9E780E100E080E200E0B7
:1018900000E100E010B5012383401800FFF7EAFFE4
:1018A00010BD000001238340014A13607047C04609
:1018B00000E200E0024B9B6810308000C058704787
:1018C00000ED00E010B5FFF7F5FF002807D0054B4D
:1018D000C01A2F2801D9002010BD0120FCE70020EC
:1018E000FAE7C046BC0C002070B504000D00EFF311
:1018F000108672B60C4B1B68002BFBD0BFF35F8FBA
:101900002000FFF7D7FF094B984201D0A84205D12C
:10191000320029002000FFF749FF70BD044B054A43
:101920008621054801F05CFE240100D0CD010010A5
:1019300010C2041014C0041078C20410F0B5DE46C2
:1019400057464E464546E0B589B0019002911500D4
:10195000EFF3108B72B6724B1B68002BFBD0BFF3FA
:101960005F8F704B00269E57002E41DB73009B1942
:101970009A006D48914681444B4606229A56694B1F
:101980001A706A4B9A68019B10339B00D7583C0031
:101990003B1A2F2B38D9664B9F422FD105AC654B94
:1019A000238073009A469B1998005F4FC01902303C
:1019B0006149FFF70FFF6080604BA380FF23A37195
:1019C000E571029BA3605644B300FB1807CC07C324
:1019D00001274B463B431F005A4639000198FFF749
:1019E000E5FE09B03CBC90469946A246AB46F0BD28
:1019F000534B544AD721544801F0F2FD534B514AFE
:101A0000DE21514801F0ECFDC04338180C2102F0F2
:101A100079FF002912D101239C43A2462100002412
:101A2000CB799D4211D206228A56002A0CDB530044
:101A30009B189A000C003C498918F1E7444B414A35
:101A4000EA21414801F0CCFD0C00002C3AD005AB56
:101A5000404A1A80813A5A800623E3569846002B62
:101A60002EDB73009B1998002F4BC0180430221DE9
:101A7000A388D90A1C291DD15905491502314900ED
:101A80005118FFF7A7FE05AB9A46988042469A7117
:101A9000DD71029A0792201D4946FFF79BFEA08048
:101AA000A67173009E19B2001F4B9B18524613CAB1
:101AB00013C391E7284B294AB121234801F090FD37
:101AC0002748E0E705AC1B4B2380730098469B1921
:101AD0009800154FC3190393981C1749FFF77AFE16
:101AE0006080039B181D5146FFF774FEA0801D4BBC
:101AF0005246D21B524153431B0DA371E571029B09
:101B0000A3604644B300FB1807CC07C3114B5246F1
:101B10001380813B538001274B463B431F005BE70B
:101B2000240100D0A23D0020BC0C002000ED00E00C
:101B3000CD01001000A1FFFFEC0C002001BDFFFF54
:101B4000BCC0041064C0041078C20410E4C00410C7
:101B50000CC104100148000080C1041054C00410DE
:101B600001BD0000AAAA0000F0B5CE4600B582B0C3
:101B700005000F00EFF3108972B6564B1B68002B5F
:101B8000FBD0BFF35F8F544B9A682C001034A30036
:101B9000D658524B9E4200D197E0BE4200D196E00B
:101BA00000964F4BF31A2F2B08D94A4631002800D4
:101BB000FFF7FCFD02B004BC9146F0BD2800FFF722
:101BC0004DFE019000212800FFF764FEBFF35F8FF8
:101BD000EFF30581002901D08C4211D10123009C33
:101BE0009C430020A3689F4212D00622A256002ADE
:101BF0000DDB53009B189A002000394CA418F1E724
:101C0000384B394A3621FF31384801F0E9FC2000D1
:101C10009F4253D10627E757002F35DB7A00D219B0
:101C200091002F4B5B189A68A260DA79E271062264
:101C30009A56A2719B795BB2002B23DB201D284AA8
:101C40008B181A1D9B88D90A1C2915D159054915CD
:101C5000023149005118FFF7BDFDA0807B00DB1960
:101C60009A001F4B9B18224A11789971177001999D
:101C70002800FFF70FFE98E71E4B1F4AB1211B48B3
:101C800001F0AEFC1D48E8E7002912D100280ED073
:101C9000FF2383711A4B8380154A1378A371194B64
:101CA0000F49641A644163431B0D1370DFE70B4E49
:101CB000F2E7201D1449FFF7B1FDD8E7134B0A4A9C
:101CC0006A21FF31094801F08BFC044E6DE7034E99
:101CD0006BE7C046240100D000ED00E0CD0100100C
:101CE000BC0C0020D4C104107CC0041078C20410C5
:101CF000A23D002080C1041054C0041001BD0000AA
:101D000001BDFFFFAAAA0000F60C002008C20410C3
:101D1000F8B501220243304BD31A2F2B28D8EFF30A
:101D20000583002B2BD0EFF3108572B62B49096881
:101D30000029FBD0BFF35F8F29490400264EA41B66
:101D400064416143090D49B2264CA4689B00E458E4
:101D5000A2421BD00023032B28D85A00D21894008B
:101D60001D4A1219927952B28A4214D00133F2E715
:101D70001D4B1E4AC72149001D4801F031FC1D4B77
:101D80001A4A9221FF311A4801F02AFC154A92683A
:101D9000194CD4500DE0104C5A00D718BE00A619AB
:101DA000FF27B771154BB380012300E00023002B00
:101DB0000BD0134B1A7882711970BFF35F8F00221A
:101DC000064B1A6085F31088F8BD0E4B074AD121E7
:101DD0004900074801F004FCBC0C0020240100D09D
:101DE000AAAA000000ED00E098C1041090C0041001
:101DF00078C20410C0C10410CD01001001BDFFFF66
:101E0000A23D0020CCC104100023044A03E0044991
:101E1000116001330432072BF9D9704700E400E068
:101E20008080808000B583B00100064B00930523BD
:101E300000220548FFF744FC002801DB1F23181A85
:101E400003B000BDB8C20410A73D0020024B9C4661
:101E500061448900016070474000003410B50400FF
:101E6000FFF786FC01002000FFF7F0FFFF2323713E
:101E7000BFF35F8F10BD10B50400FFF779FC0100C0
:101E80002000FFF7E3FFFF23237100236371BFF3FB
:101E90005F8F10BD034B9C46614489000160BFF316
:101EA0005F8F70474000003410B504000120FFF739
:101EB0006DFC01002000FFF7EDFF10BD70B50500BF
:101EC0000C00080000F04AFE0949200000F08AFDDD
:101ED000FFF74EFC074B9C466044800068602C7501
:101EE000D0231B061B786B75A400034BE55070BD17
:101EF0000922001040000034403D00200A4B1A68BF
:101F0000EFF3108172B61368002BFCD0BFF35F8F24
:101F1000054B1B68BFF35F8F00221A6081F31088A6
:101F200040BF002000217047603D002010B500290F
:101F300022D003681B7B99421ED8174B9C466144F4
:101F4000090183689C4661440C684968002A19D0DD
:101F500003681B7B9A4215D883680F488446624405
:101F600012019A1810685368020001208B4201D8B0
:101F70000ED00020C0B210BD084B094A3C210948D0
:101F800001F02EFB054B064A3C21064801F028FBD8
:101F9000A242EFD8EDE7C046FFFFFF0FD0C6041006
:101FA0005CC4041098C6041010B500291FD0037B30
:101FB00099421CD84B005B18033B0468A446634459
:101FC00000291AD0002A1ED0914222D0002A26D001
:101FD000047BA24223D804685000801803382018DC
:101FE00081701978002920D041701A7010BD104BF3
:101FF000104A6821104801F0F3FA104B104A6F3173
:102000000D4801F0EDFA0F4B0D4A70210A4801F01E
:10201000E7FA0D4B0A4A7121074801F0E1FA044B37
:10202000044A6821044801F0DBFA1A70DEE7C04672
:10203000ECC504101CC4041008C6041054C60410D7
:1020400028C4041060C604106CC6041070B50600E5
:102050000D001400002916D0002A01D1080013E059
:10206000806873689847002806D12A002100300054
:10207000FFF79AFF200007E0220029003000FFF759
:1020800093FF280000E0100070BD000070B5CE4640
:1020900000B583B00500009201930AAB1C780BAB2E
:1020A0001B789946002C28D003685A7B944214D0A0
:1020B000002C0CD01A7B944209D81A6863001B19B3
:1020C000033BD3189B78002B08D0012306E0434B39
:1020D000434A6821434801F083FA0123002B06D1CB
:1020E000002C28D1200003B004BC914670BD3E4BAB
:1020F0003E4A67213E4801F073FA03689C7B002C3E
:10210000EED012D01A7B94420FD862001219033A13
:1021100019688C46624451789973002900D1D973AB
:102120000023937053701370DAE72C4B2C4A68210C
:102130002C4801F055FA002C39D02B681B7B9C42AF
:1021400035D82C4BE3181B01AA68944663440099C8
:10215000019A19605A60089A9A60099ADA602E68A2
:10216000002C2AD02FD0337B9C422CD863001B1923
:10217000033B32689446634400229A705A701A7086
:10218000717B22003000FFF761FF70738442A9D198
:10219000287D009A019B00F06DFC061E02D04B4684
:1021A000002B16D00C9B002B9CD01E709AE7124B74
:1021B000124A3C210E4801F013FA114B114AA52195
:1021C000084801F00DFA054B054A6821054801F061
:1021D00007FA2868210000F075FEE3E7ECC504105B
:1021E0001CC4041008C60410E0C4041094C40410F5
:1021F00098C60410FFFFFF0FD0C604105CC4041083
:1022000094C604103CC40410F0B5D6464F4646466A
:10221000C0B58CB00B908200B74BD55836E1002387
:102220000024089309946A68EFF3108672B6136865
:10223000002BFCD0BFF35F8F2F687C7B002C38D144
:1022400000239846002700206B68BFF35F8F0022B1
:102250001A6086F31088002F00D115E153461E0244
:10226000264341463000B847069007916A68EFF36D
:10227000108972B61368002BFCD0BFF35F8F079BE9
:10228000002B00DB84E02B69002B00D180E0B342FF
:1022900068D1089A099B06980799121A8B41002B5E
:1022A00066DB002B68DA954B954A3F21954801F093
:1022B00097F9002C1AD03A7B944217D8924BE21827
:1022C0001201AB689846904443461A685B68121A3C
:1022D0008B411000002B0FDD43461A685B680B989A
:1022E00000F0C8FB002398460027ADE7874B884ADB
:1022F0003C21884801F074F9002B01D10028EBD172
:102300000021380000F0D4FDA04219D143461A68DC
:102310005B680892099343469F68DB689846002FE4
:1023200014D0002C18D02B681B7B9C4214D8631E41
:10233000EA68D35C9A461B0218432861002083E7B1
:10234000754B764A8E21734801F04AF9744B734AF3
:102350009221704801F044F96C4B724A41216D485A
:1023600001F03EF9704B6D4AA1216A4801F038F93D
:10237000012252426D4B94E70021049101310391F7
:1023800002944146019100972800FFF77FFE72E01A
:10239000079B002B0EDD2B69002B11D0B34225D1FA
:1023A00000F0DCFA002927DA544B554A3F21554802
:1023B00001F016F9069A079B002B01D1002AEAD1F9
:1023C0002B68002C6DD05A7B944239D0002C31D030
:1023D0001A7B94422ED862001219033A19688C466F
:1023E00062449278002A2CD001222AE04E4B4B4ABC
:1023F000A421484801F0F4F8069A079B12184B41B3
:10240000002B07DB002B09DA3C4B3D4A3F213D48BE
:1024100001F0E6F801225242444BF3E70021049117
:102420000131039102944146019100972800FFF782
:102430002DFE20E03E4B3F4A68213F4801F0D0F896
:102440000122002A2DD1DA7B002A30D19A7B002A82
:1024500003D1DA7B002A3DD19C73DC73002C3FD082
:102460002B681B7B9C423BD8013CEB689C46644438
:1024700023780133237000232B616A68BFF35F8FD9
:10248000136089F31088012000282FD000F066FA2D
:10249000002900DBC3E6194B194A3F21194801F016
:1024A0009FF8264B264AF621234801F099F8002A86
:1024B0000AD0197B8A4207D851008A18033A196852
:1024C0008C4662445470C1E7194B1A4A68211A4875
:1024D00001F086F81B4B1A4AFB21174801F080F8DF
:1024E0000A4B104A41210B4801F07AF80CB01CBC91
:1024F00090469946A246F0BD403D002068C30410B6
:1025000004C4041084C30410FFFFFF0FD0C60410DE
:102510005CC4041098C6041008C50410ACC40410B0
:1025200020C5041068C404102CC50410FFFFFF7FF1
:10253000ECC504101CC4041008C6041068C50410BF
:102540004CC404108CC5041010B50C4B5B68002BF8
:1025500004D00A210A48FFF779FC10BD074C23007C
:10256000084A1021206800F0C3FB032000F0EAF9BC
:1025700003212000FFF7A2FCEBE7C046040D00207A
:10258000603D00202D1F001010B5064B5B68002B2E
:1025900001D0044810BD044B044A5E21044801F0F8
:1025A0001FF8C046040D0020C8C504107CC40410E8
:1025B00098C60410F0B5DE4657464E464546E0B58F
:1025C00089B0804616001F00129B994614AB1B78F9
:1025D0009A4600221F236B441A7032E000280AD06A
:1025E00042461268127B904205D8421E4146C96895
:1025F0008A5C934645E03F4B3F4A41213F4800F00B
:10260000EFFF012676423E4F60E000F0A7F9002977
:1026100005DA3C4B3C4A3F213C4800F0E1FF2418DE
:102620004D41002D07DB002D09DA364B364A3F219C
:10263000364800F0D5FF01246442314DF3E726000F
:102640002F0043465B68EFF3108572B61A68544258
:102650005441E4B2002CF9D1BFF35F8F1F236B44C8
:102660000493002303930293139B01934B4600931F
:1026700032003B004046FFF709FD031EAED10022A9
:10268000934641464968BFF35F8F00220A6085F395
:102690001088002B22D01F236B441B78002B02D103
:1026A0005A4614020443002B1AD05346002B17D06D
:1026B00013992000C84704000D0003000B4317D0F6
:1026C0000029A2DA361BAF41002F9ADB002FB8DABF
:1026D0000C4B0D4A3F210D4800F082FF012464425B
:1026E000200009B03CBC90469946A246AB46F0BDDE
:1026F0000024F5E7D0C6041068C4041098C604107E
:10270000FFFFFF7F68C3041004C4041084C30410D7
:1027100070B50400002961D04268EFF3108572B6ED
:102720001368002BFCD0BFF35F8FCAB22668737B9F
:102730009A4215D0002A0DD0337B9A420AD8530012
:102740009B18033B3068844663449B78002B23D15D
:10275000002006E0224B234A6821234800F040FF76
:102760000120002834D02369994217D0090AC9B240
:10277000002A1AD023681B7B9A4216D8531EE068A1
:10278000C35C994217D000206368BFF35F8F0022BB
:102790001A6085F3108870BD0120E2E7134B144ADC
:1027A0002C21FF31134800F01BFF134B134A41212A
:1027B000104800F015FF1100300000F083FB0028E6
:1027C000E2D10F4B0A4A992149000A4800F008FF5C
:1027D00023699942D8D100232361D5E70020DAE7A5
:1027E000ECC504101CC4041008C60410A0C50410D5
:1027F000C8C4041098C60410D0C6041068C40410DD
:10280000C4C50410407D704770B584B005000C004D
:10281000EFF30583002B12D0244B5B6A994209D851
:10282000224A926A824208D2994201D0012002E0F3
:10283000002000E0002004B070BD0120FBE7FFF79E
:10284000A3FE002302930193194B00932A00230057
:10285000FFF7B0FE061E11DD20BFFFF795FE310029
:10286000FFF756FF114B5B6A9C421BD80F4A926AD6
:10287000AA4219D29C4213D00120DCE70B4B5B6AC1
:102880009C4209D8094A926AAA4207D29C4201D0C6
:102890000120D0E70020CEE70020CCE70120CAE7E6
:1028A0000020C8E70020C6E70120C4E7004005403B
:1028B000FD1E001070B5EFF305801038EFF31084A3
:1028C00072B61A4B1B68002BFBD0BFF35F8F01223F
:1028D0001300834016494B6316490B60164909786B
:1028E0000D00C5402A4214D0114A556A8200134E89
:1028F0009259954206D38200114D525999430E4B7D
:10290000197007E00A4A031D9B009958995000224C
:1029100000E00022BFF35F8F0021044B196084F3B5
:102920001088002A00D0904770BDC046280100D012
:10293000004005403C700540A63D0020743D00204D
:102940005C1B002010B50100024A0348FEF79FFE01
:1029500010BDC04628C70410A03D0020044B596A92
:1029600000E01900024B986A5B6A9942F9D17047FE
:1029700000400540084B5B6A01E0074B5B6A8B42F5
:10298000FBD301E0044B5B6A8B4203D1024B9B6A91
:102990008342F7D37047C0460040054070B504003D
:1029A0000D00FFF7DBFF02000B002000290080185C
:1029B00059418B4202D804D1824202D901204042BF
:1029C000C117002905DA044B044A3F21044800F0EE
:1029D00007FEFFF7CFFF70BD68C30410F4C60410F4
:1029E00084C3041070B504000D00EFF3108672B6B6
:1029F0001B4B1B68002BFBD0BFF35F8F002D1CD03F
:102A00002000FEF757FF174B98420BD0190020000B
:102A1000FEF76AFF01212000FEF73CFF0123A340DF
:102A2000114A1360A400114BE550BFF35F8F0022E1
:102A30000B4B1A6086F3108870BDA20000210B4B6F
:102A4000D1500122A2400A490B7893430B700549EB
:102A50002000FFF789F800212000FEF71BFFE4E7C4
:102A6000280100D0B5280010386005405C1B00200C
:102A7000A63D0020F0B5DE4600B584B00500140088
:102A800001921E000293FFF769FF03948E422CD936
:102A9000EFF3108B72B6294B1B68002BFBD0BFF3F2
:102AA0005F8F274A17780124AC40E3B23B43137091
:102AB000244B5C632A1D92000199D150AA0022493F
:102AC000029850501B6A23421BD11E4B1B6C2342A1
:102AD00011D00020BFF35F8F0022184B1A608BF3D8
:102AE000108804B004BC9346F0BD8E4201D18442EC
:102AF000CED80120F5E7154B154AC521154800F041
:102B00006FFDFFF72BFF8E4214D802D1039B834247
:102B100010D80B4B1B789F420ED00A4B1C625C6393
:102B20001F222A40012393400B4A1360044B1F705D
:102B30000120CFE70020CDE70120CBE7280100D01E
:102B4000A63D002000400540743D00204CC7041005
:102B50000CC7041070C7041080E200E010B5EFF35A
:102B6000108472B60A4B1B68002BFBD0BFF35F8F3B
:102B700001238340074A136207490A789A430A707F
:102B8000BFF35F8F0022024B1A6084F3108810BDE0
:102B9000280100D000400540A63D002010B50029C6
:102BA0001FD0037B99421CD84B005B18033B046881
:102BB000A446634400291AD0002A1ED0914222D094
:102BC000002A26D0047BA24223D804685000801833
:102BD0000338201881701978002920D041701A70AC
:102BE00010BD104B104A6821104800F0F9FC104B42
:102BF000104A6F310D4800F0F3FC0F4B0D4A702165
:102C00000A4800F0EDFC0D4B0A4A7121074800F01C
:102C1000E7FC044B044A6821044800F0E1FC1A7008
:102C2000DEE7C046ECC50410B4C7041008C60410A3
:102C300054C60410C0C7041060C604106CC604104B
:102C400070B506000D001400002916D0002A01D12D
:102C5000080013E0806873689847002806D12A00AE
:102C600021003000FFF79AFF200007E02200290032
:102C70003000FFF793FF280000E0100070BD000057
:102C800010B50023437301338373037BC3730123A4
:102C900008E05A00D218033A01688C4662440133B6
:102CA000DBB25370027B93420AD2002B02D0027B2C
:102CB0009342EED90B4B0C4A68210C4800F090FC73
:102CC000002A09D0924207D8016853009A18033AA3
:102CD0008A180023537010BD024B034A6821034831
:102CE00000F07EFCECC50410B4C7041008C6041044
:102CF00010B5017342608360FFF7C2FF10BD000092
:102D000070B50400002901D1080070BD002928D049
:102D1000037B994225D84B005B18033B026894461D
:102D200063445A78002AEFD021D0007B82421ED81B
:102D30005000801803382568AC466044467800256A
:102D400045705D702000FFF77BFF0500310020001B
:102D5000FFF7D6FF020029002000FFF771FF0100F6
:102D6000D2E7064B064A6821064800F039FC034BBF
:102D7000034A6821034800F033FCC046ECC5041048
:102D8000B4C7041008C6041070B505000C00160086
:102D900000292FD034D0037B994231D84B005B18E7
:102DA000033B0268944663445A78002A2ED19A78ED
:102DB000002A31D11978FFF7A3FF0300002E0AD0B3
:102DC000EA7B002A2ED1AA7B002A03D1EA7B002AC3
:102DD0003BD1AC73EC73002B3DD1002C4FD02B7B3F
:102DE0009C424CD82A6863001C19033C1419002328
:102DF000637070BD254B264A3821264800F0F0FB51
:102E0000254B264A6821264800F0EAFB254B204A3C
:102E10003A21204800F0E4FB234B1D4A3B211D488A
:102E200000F0DEFB002A0AD0297B8A4207D8510035
:102E30008A18033A29688C4662445470C3E7164BDB
:102E4000164A6821164800F0CBFB184B104A422165
:102E5000104800F0C5FB002B0BD02A7B934208D80A
:102E600043001B18033B2A689446634400229A706F
:102E7000B3E7094B094A6821094800F0B1FB064B4A
:102E8000064A6821064800F0ABFBC04620C8041083
:102E9000D4C7041028C80410ECC50410B4C704102B
:102EA00008C6041064C804108CC804108CC5041033
:102EB00070B504000A00457B2900FFF765FF6073C9
:102EC000280070BD10B5040000296AD0437B9942E8
:102ED0000ED0002911D0037B99420ED84B005B180D
:102EE000033B0268D0188378002B0CD1002059E0F6
:102EF0000121FFF7DDFF012054E02B4B2B4A682115
:102F00002B4800F06DFB002B1AD0227B934217D880
:102F10005A00D318033B2268D2181378994215D06F
:102F2000002B16D0227B934213D85A00D318033BB0
:102F30002268D2185378994211D0002BF0D111E0B9
:102F4000194B1A4A68211A4800F04AFB437813705B
:102F50000AE0154B154A6821154800F041FB4378FB
:102F600053700123002B10D0002383704370012283
:102F70002000FFF709FF0200617B88420BD0200090
:102F8000FFF75EFE607301200CE00A4B0A4A6B21DA
:102F90000A4800F025FB0A4B074A7121074800F058
:102FA0001FFB002010BDC046ECC50410B4C70410C0
:102FB00008C60410CCC10410E8C7041028C80410C7
:102FC00000C8041070B5046BE30701D4200070BD85
:102FD00002003032C0239B0113430A4A1A60436A3D
:102FE000856A9B01ED18AD02062000F0BDF9064987
:102FF00001F088FC0100280001F084FC0021FFF7AB
:10300000CDFCE3E7010300004E0E000070B50400A4
:103010000E001500FFF7D6FF22002C32E36A5E4057
:10302000354080235B0113431D60206370BD0000A9
:1030300070B506000C00062000F096F9C0002100D3
:1030400001F060FCC40908D00E4B9C4216D87F23C7
:10305000184001302500440800E001257562B46283
:10306000002200213000FFF7D1FF062000F07CF99C
:103070008000A901611801F045FC70BD0024024DDB
:10308000ECE7C046FEFF0000FFFF000010B5053969
:103090004901013AD2001143002B09D00222114309
:1030A000012B07D0002211436E22FFF7AFFF10BDA6
:1030B0000022F4E70422F6E7074B9C4660444342B3
:1030C0005841002905D1802252004000034BC252D2
:1030D00070470A22F9E7C0460080FCBFA83D0020E7
:1030E00070B505000C00062000F03EF900282CD039
:1030F000174B9D4226D08022D203164B1A60164BE6
:103100001A60164B9B6811009943FAD100212800E0
:10311000FFF7D2FF21002800FFF78AFF04000023F9
:10312000012208212800FFF7B1FF2A002C3280235A
:103130009B01134310221A60094B2B630323AB64DA
:10314000200070BD80221204D7E70024F8E7C046B3
:103150000080034000E0004000F0004000C000405C
:1031600001030000F0B5DE46574680B583B0070086
:103170000D0092460A9A93424FD31A0E1100019203
:103180001B02180000930A9A002301F0F9FB0400C7
:103190007B00DB199E002F4B9C466644736883427C
:1031A00000D270603B1FDBB29B46012B3BD9C02392
:1031B0009B013343802212011A60BB00264A9958B2
:1031C000002907D0506901F09DFB431C5800C0182E
:1031D0000338FDD253465B0132685340E02213406E
:1031E00080225201324313605B46012B26D9802393
:1031F0009B013343802212011A6074602200002375
:103200000098019901F0BCFBBF00134BF85001205E
:1032100003B00CBC92469B46F0BD104B104A3321C4
:10322000104800F0DDF9012DC1D1C0239B013343CB
:1032300003221A60B368DB07FCD5CBE7316869402D
:1032400003230B401360B3680122AA401A42FAD04C
:10325000CDE7C0460080004080200020C0C8041098
:10326000B0C80410D4C8041030B583B00C2000F0EE
:1032700011F9FEF7E1F900280DD0002304E09900D0
:103280002D482E4A88500133092BF8D92C4A2B4B54
:103290005A6203B030BD00222A4B9A6700F066F9EB
:1032A0000122294B1A60274B5B6C012BFBD10322B7
:1032B000264B1A60234B9B6B012BFBD101330093F0
:1032C0000433234A0121234800F054F805230093D6
:1032D000214A0121214800F04DF8214B00930022A2
:1032E00002210420FFF73EFF1E4D00952B00002217
:1032F00001210520FFF736FF0F4C00942300002228
:1033000000210720FFF72EFF009423000022002158
:103310000820FFF727FF0A4B00932300002200211B
:103320000920FFF71FFF00952B0000220021062037
:10333000FFF718FFADE7C046006CDC0280200020DC
:103340001BB70000008000403CB0004030B000409F
:10335000002F685900800240008C864700C0024060
:10336000001BB700405973078000014BC0587047DD
:1033700080200020F0B583B005000C0017001E006F
:10338000374801F0BFFA0190364BFA18364B9A4293
:1033900039D80199380001F0B5FA0200103A9823A3
:1033A0005B009A4235D8731E062B38D8089B013B28
:1033B000062B34D83B09019A9A4236D83304089A2E
:1033C00016031E432B68002B35DB284B9D4243D050
:1033D00080214901264B1960264B1960264A9268C4
:1033E0000B009343FAD12C60A8602B1DC0218901EA
:1033F000194321230B602A68002AFCDAEE600823B7
:103400000B6003B0F0BD1D4B1D4A11211D4800F09B
:10341000E7F81D4B1A4A19211A4800F0E1F81B4B36
:10342000174A1C21174800F0DBF8194B144A2321D6
:10343000144800F0D5F82A683F2313409C42C4D1B9
:10344000AB681B051B0D9842BFD1EB68EE22D20280
:1034500013409E42B9D1D4E780218901BAE7C04622
:10346000001BB70080E84BD380F8A93200C00240AF
:1034700000E0004000F0004000C0004024C90410FB
:1034800018C9041084C90410C4C90410E0C9041088
:103490002CCA041080239B001843014BD86270474C
:1034A00000800540024B1A68024B5A607047C046C4
:1034B000782A00200080054010B58022D205144BE8
:1034C0001A60144A144B1A60002917D0E022D20463
:1034D000124B1A60002816D0FA23DB005843104B19
:1034E0001860104B984202D91A000D4B1A60FFF772
:1034F000D9FF8022D205094B1A6010BDE022D20408
:10350000034B1A60E6E780221206044B1A60F4E7C8
:1035100000B00540FCFF01000820014000A005406C
:10352000782A0020FFFFFF0010B58024E4050B4B34
:103530001C60002807D10021094BD961002110002F
:10354000FFF7BAFF10BD012303430548054CC461D2
:10355000054C5C40046241628362EFE700B00540C5
:1035600000800540D3C007B02D3FF84F064BAA227C
:1035700012011A602F22DA60044A054B1A60024BCE
:103580005B68002BFBDA70470040024000B0FA0095
:103590000060024000BEFDE70A4B1B68002B09D00B
:1035A000084B1B681818084A824207D3054A106066
:1035B00018007047054A034B1A60F1E701204042AA
:1035C000F7E7C04670210020000004207040002072
:1035D0000020704701204042704710B5FFF7DAFF26
:1035E00010B582B00C001900002A0CD0084B002A3C
:1035F0000BD00192009323000200064802F00CFE5B
:103600000120FFF7C7FF044BF1E7034AF1E7C0468B
:1036100048CA041058CA0410B0BE041070B52B4A32
:103620002B4B1A602B4A2C4B1A602C4B9A68294B57
:103630009343FAD12A4C01E008CC9847294B9C428D
:10364000FAD3FFF711FE284A234B1A60234B9B68DD
:10365000DB43DB01FAD1254B40229A675A671A6790
:10366000DA66234C03E02000FEF705FC0834214B0A
:103670009C420FD22368002B07D0012BF3D01E4BA6
:103680001E4A87211E48FFF7ABFF2000FEF7E6FB2E
:103690000834ECE71B4CA1681B4DC022280002F047
:1036A00053FCA560EFF30583002B00D000BEFEF7AE
:1036B0004FF8FEF7A9FBFEF747FF144C01E008CCDA
:1036C0009847134B9C42FAD370BDC046BFCDFBFE5A
:1036D00000E00040FE7F3C0000F0004000C00040E1
:1036E0001C1600202C160020FFFFFF0100F00140F7
:1036F000141600201C160020A8CA041088CA041042
:10370000C8CA041000ED00E0000000202C160020C4
:103710003C1600200FB400B583B0084802F04CFD01
:10372000049B002B07D005A90191180002F054FD5D
:10373000034802F041FD0120FFF72CFF98CA041056
:1037400048D70410704710B5002800D110BD0B6891
:1037500049689847FAE710B50400002307E098008D
:10376000C31858004B1C23600B781B18303B216892
:103770000A78303AD2B2092AF1D9180010BDF0B552
:10378000D6464F464646C0B582B00500009101932B
:103790000A9B99460B9C0C9B98460D9B9B0717D048
:1037A0004B4691461E0022E0541C019B00992020AC
:1037B000B04701372200AF42F6D354460C9535008E
:1037C00046460C9B98464B460A93B1461E000EE0B7
:1037D0002700A24643460C93904606001D00EAE7E8
:1037E000013C571C305D019B0099A8473A00002C12
:1037F000F6D14E460D9B9B070BD52C00474605E0A6
:10380000551C019B00992020A0472A00931B9F4232
:10381000F6D8100002B01CBC90469946A246F0BDF6
:10382000F0B5CE4600B586B0049205930C9D0D9C74
:103830000EAE33789946109A119B129EB7071CD48E
:10384000002B0CD0F7070AD54F46002F02D10C37BA
:10385000374204D0013B02E030272F550134944217
:1038600005D21F2CF8D902E030272F550134F70775
:1038700003D59C4201D21F2CF6D9F70615D5770542
:1038800005D4002C03D094421CD09C421AD00F9A2D
:10389000102A23D00F9A102A28D00F9A022A2DD04E
:1038A0001F2C02D830272F5501341F2C2FD84A4601
:1038B000002A29D1720736D4320728D520272F5560
:1038C000013424E0671E002F06D00F9A102A01D081
:1038D0003C00DCE7023CDAE73C00D8E7B206D9D48A
:1038E0001F2CD7D878272F550134D9E7B206D4D565
:1038F0001F2CD2D858272F550134D1E71F2CCFD8F1
:1039000062272F550134CBE72D272F55013403961D
:10391000029301940095059B049AFFF730FF06B0CF
:1039200004BC9146F0BD2B272F550134EFE7F0B5CD
:10393000C64600B594B0089009910A920B931AAB51
:1039400010CB1B7898461F9D002C01D110239D435E
:103950008027FF002F4015D0002C20D0002711E039
:10396000AA061AD54121C918C9B20A39C9B20CAB85
:10397000D9551C99200000F0C5FF041E10D0370057
:103980001F2E0DD81C99200000F0BCFFCBB27E1C6E
:10399000092BE5D83033D9B2E9E76121E3E7002606
:1039A00006951E9B05931D9B04931C9B0393434606
:1039B000029301960CAB00930B9B0A9A0999089805
:1039C000FFF72EFF14B004BC9046F0BDF0B5DE4604
:1039D000574680B599B00C900D910E920F93209C94
:1039E000219D22AB1B789B46249B0A93259B0B931E
:1039F000289B9A4623002B4303D1103352469A4307
:103A000092468026F60053461E4006D023002B43E4
:103A10002FD000265746099419E05746099416E01E
:103A2000BA0621D54122D218D2B20A3AD2B210AB8C
:103A30009A550A9A0B9B0998290000F0A1FF09905A
:103A40000D000B00034316D026001F2C0ED80A9A37
:103A50000B9B0998290000F093FFD3B2741C092B2B
:103A6000DED83033DAB2E2E76122DCE7BA4627007B
:103A700003E0002701E0BA46270053460693279B40
:103A80000593269B04930A9B03935B46029301973D
:103A900010AB00930F9B0E9A0D990C98FFF7C0FE88
:103AA00019B00CBC92469B46F0BD0000F0B5DE4656
:103AB00057464646C0B594B00400069115000793DA
:103AC0001C9E08961D9F099732003B00300039006C
:103AD00001F0E9F9002800D0E9E001225242D04B80
:103AE0003000390001F0DAF9002800D0DFE00122CF
:103AF0005242CC4B3000390001F0BAF9002800D016
:103B0000D5E0002200230898099901F0B1F90028B6
:103B100000D0E2E0089A099B0A920B938023DB0015
:103B2000209A1A409246131E01D106331E930A981A
:103B30000B9902000B000C920D9303000A00024344
:103B400000D1D3E00A00100D4005400DB64EB4463A
:103B500060441203120B1E00B44B13431F0001F00C
:103B6000B5F9B34AB34B01F038F9B34AB34B01F09E
:103B70000DF90C900D910022B14B3000390001F08D
:103B8000FCF8B04AB04B01F028F902000B000C9889
:103B90000D9901F0FBF801F0B1F9060001F096F97A
:103BA000AA4AAB4B0C900D9101F017F90022A94BDA
:103BB00001F0ECF801F0A2F90700A74AA74B0C9816
:103BC0000D9901F00AF90C900D91380001F07EF981
:103BD000A34AA44B01F001F902000B000C980D99C7
:103BE00001F0CBF802000B000E900F9101F0F5F8F8
:103BF000109011919C4BFB181B050D9300230C9307
:103C00000E980F9902000B0001F0C0F8129013916A
:103C10000E9A0F9B00208021C90501F0AEF80E908E
:103C20000F910022914B1098119901F0B8F80022E1
:103C30008F4B01F0ABF802000B001098119901F0C6
:103C4000AEF800228B4B01F0A1F802000B00109897
:103C5000119901F0A4F802000B000E980F9901F0E1
:103C600095F802000B001298139901F098F80022C1
:103C70006E4B01F08BF80C9A0D9B01F0AEF8020030
:103C80000B000C920D930E900F9102000B000A98FE
:103C90000B9901F0EDF8002829D0013E0022744B69
:103CA0000E980F9901F07BF80C900D911FE0209B6E
:103CB00004931F9B03931E9B0293089A099B0092F7
:103CC0000193079B2A000699200000F0F7F814B032
:103CD0001CBC90469A46A346F0BD089B0A93099BDC
:103CE00080221206944663440B9317E700263300A4
:103CF0006333C62B2BD80427209B1B0521D50C9A98
:103D00000D9B190011430FD05B4A5C4B0A980B992D
:103D100001F0BCF800281FD00022594B0A980B99DB
:103D200001F0A6F8002817D01E9B9E4211DA9E1BB8
:103D3000731E1E938023DB00209A1A4320920027D3
:103D400000261F9B9F4211D2DB1B9B4610E00527DC
:103D5000D2E700231E93EDE71E9B002BF1D05346C4
:103D6000002BEED01E9B013B1E93EAE700239B46EF
:103D70000223209A1A40924603D0002F01D000233C
:103D80009B46002E07D00C9A0D9B0A980B9901F0C8
:103D900006F80A900B91002200230898099901F077
:103DA00067F8002870D1374B209A134004935B4684
:103DB00003931E9B02930A9A0B9B00920193079B0D
:103DC0002A000699200000F079F8002F00D17EE744
:103DD000209B9B0663D545230893431C9846079B6D
:103DE000020006990898A047F217B1185140F30F46
:103DF0007A1E052005900492002203920A32029254
:103E000001930091079B424606992000FFF78FFD22
:103E10005346002B00D15AE702001F9E48E0C046DF
:103E2000FFFFEF7FFFFFEFFF01FCFFFF0000F03F10
:103E3000FB799F501344D33FB3C8608B288AC63F99
:103E40000000F83F61436F63A787D23F71A37909F0
:103E50004F930A400000E03F1655B5BBB16B0240DE
:103E6000EF39FAFE422EE63FFF03000000002C402F
:103E700000002440000018402D431CEBE2361A3F9E
:103E800080842E41FFF7FFFF0A990A000B998020DA
:103E90000006844661440B000A920B9383E7652376
:103EA00008939AE7571C079B06992020A0473A00E1
:103EB000531B9E42F6D8100009E7C046F0B5D6461F
:103EC000474680B597B00690079108920993209FC6
:103ED0001E9A1F9B1000190000F0E5FF00282AD150
:103EE00001225242BA4B1E981F9900F0C1FF0028D0
:103EF00030D101225242B74B1E981F9900F0CEFFDD
:103F000000283AD00423229A134032D0B24A002B20
:103F100031D10323229903912199029101930092B7
:103F2000099B089A07990698FFF729FC17B00CBC63
:103F300090469A46F0BD229B0393219B0293032354
:103F40000193A64B0093099B089A07990698FFF7DF
:103F500016FCEBE7229B0393219B0293042301931E
:103F60009F4B0093099B089A07990698FFF707FC57
:103F7000DCE79C4ACBE70423CCE700229A4B1E984F
:103F80001F9900F08BFF002817D10022974B1E9835
:103F90001F9900F06DFF00280FD1002200231E980A
:103FA0001F9900F065FF002817D100239A46229B35
:103FB0005B0500D4062700261FE0229B0493219B6B
:103FC000039302971E9B1F9C00930194099B089AE0
:103FD00007990698FFF76AFDA8E71E9A1F9B002025
:103FE000002100F0CAFE1E901F9101239A46DEE7D1
:103FF00030220EAB9A55013F01361F2E01D8092FF2
:10400000F6D81E981F9900F079FF040000F05EFFBB
:1040100002000B001E981F9900F0AFFEFA00744BCF
:104020009B181A685B680C920D9300F0D6FE0A90FC
:104030000B9100F087FF050000F044FF02000B0029
:104040000A980B9900F099FE0A900B910022694B97
:1040500000F024FF00282CD00135280000F032FFAA
:1040600002000B000C980D9900F008FF002801D009
:1040700001340025002F2AD1200000F027FF020084
:104080000B001E981F9900F078FE0022594B0A90F1
:104090000B9100F0EDFE002843D10022554B0A9809
:1040A0000B9900F0FBFE00283BD1E30739D5013422
:1040B00037E000224F4B0A980B9900F0D9FE0028F8
:1040C000D8D1002D01D0EB07D4D50135D2E70A9421
:1040D0001F2E10D8013F741C0A21280000F012FC8A
:1040E00030310EAB99550A21280000F00BFC051E5B
:1040F00003D02600ECE70A9C08E0A0460A9C46464E
:1041000004E030210EAA91551F0001361F2E02D85F
:104110007B1E002FF5D11F2E03D82E220EAB9A55F1
:1041200001361F2E10D8751C0A21200000F0C2FB9A
:1041300030310EAB99550A21200000F0BBFB041E64
:1041400001D02E00EDE72E000323229A1340012B0D
:1041500016D01F2E06D85346002B28D02D220EAB8A
:104160009A550136229B0393219B029301960EAB35
:104170000093099B089A07990698FFF700FBD5E67C
:10418000219B002B0DD05346002B02D10C33134240
:1041900007D0219B013B219303E030220EAB9A55BF
:1041A0000136219B9E42D4D21F2EF6D9D1E7229B05
:1041B0005B0704D52B220EAB9A550136D2E7229B22
:1041C0001B07CFD520220EAB9A550136CAE7C04651
:1041D000FFFFEFFFFFFFEF7FECCC0410F8CC0410E3
:1041E000FCCC0410F4CC041065CDCD4165CDCDC11F
:1041F00008CD04100000E03FF0B5DE4657464E46BD
:104200004546E0B593B083460B910A92119300297D
:1042100012D000275E46119B1878002800D1E5E2F5
:1042200025280CD07C1C0A9B3A000B99B047119BA7
:10423000013311932700EEE7CD4B9B46E9E70133AD
:104240001193002506E001231D4301321192012440
:10425000002C23D0119A1378203BD9B210291BD8F7
:104260008B00C449CB589F4602231D430132119253
:104270000124EDE704231D43013211920124E7E7F5
:1042800008231D43013211920124E1E710231D434D
:10429000013211920124DBE70024D9E7119B1A783F
:1042A0001300303BDBB2092B10D92A2A13D0A346C6
:1042B000119B1A782E2A1ED0119A1378683BD9B216
:1042C000122959D88B00AC49CB589F4611A8FFF74B
:1042D00042FA8346ECE71C9B1A1D1C921B68002BBC
:1042E00004DB9B46119B01331193E1E70222154346
:1042F0005B429B46F6E78022D20015435A1C11927E
:104300005A781300303BDBB2092B0BD92A2AD3D1C0
:104310001C9B1A1D1C921C68002C08DB119B01338E
:104320001193C9E711A8FFF716FA0400C4E70024A7
:10433000F4E780235B002B43511C119152786C2AC7
:1043400001D01D0018E0C0239B001D4301311191D5
:1043500012E080232B43511C11915278682A01D01E
:104360001D0009E0C0231D430131119104E08023A9
:104370005B001D4301321192119B18780300253B0D
:10438000DAB2532A00D927E293007C4AD3589F46D9
:1043900080239B001D4301321192EDE780235B00D7
:1043A0001D4301321192E7E778280AD0582840D0FF
:1043B0006F2841D0622842D010239D43063B9C4683
:1043C00001E010239C4658283CD0692803D064287B
:1043D00001D00C2295436B0501D501229543692834
:1043E00033D0642831D0AB0500D5A4E0EB0500D56F
:1043F000C6E06B0600D5D8E02B0600D4DCE01C9AA2
:10440000111D1C9112681204120C05955B46049351
:104410000394634602930023019300920A9B3A009F
:104420000B993000FFF783FA0700119B01331193BA
:10443000F1E610239C46C6E708239C46C3E7022307
:104440009C46C0E720221543BFE7AB051ED4EB0511
:104450004DD46B0663D42B0668D51C9A111D1C9194
:104460000023D25ED317D1185940D20F05955B4671
:104470000493039463460293019200910A9B3A00CD
:104480000B993000FFF753FA0700CEE71C9BDA1DAB
:1044900007218A43110008311C911168536898461E
:1044A000DB170E930F930E9A0F9B100048400C9051
:1044B0001900404641400D910C980D99801A994180
:1044C0000C900D914346DA0F08955B4607930694CE
:1044D00063460493002305930292009001910A9B86
:1044E0003A000B993000FFF771FA07009DE71C9A1C
:1044F000111D1C911268D317D1185940D20F059580
:104500005B460493039463460293019200910A9BD5
:104510003A000B993000FFF70AFA070085E71C9A6A
:10452000111D1C911168FF220A409BE71C9A111D66
:104530001C91126896E71C9BDA1D07218A43110023
:1045400008311C915368126800920193002208956B
:104550005B460793069463460493059202920A9B76
:104560003A000B993000FFF731FA07005DE7C046CB
:10457000453700100CCB041050CB04109CCB04101A
:104580001C9A111D1C911368009305955B460493BA
:10459000039463460293002301930A9B3A000B990C
:1045A0003000FFF7C4F907003FE71C9A111D1C916A
:1045B0001168FF220A4028E71C9A111D1C911268FD
:1045C00023E7462819D01C9B0733072293431A0080
:1045D00008321C921A685B680092019304955B464E
:1045E000039302940A9B3A000B993000FFF766FC94
:1045F0000700119B013311930DE620231D43E2E7D1
:1046000067281FD047281DD045281FD047281DD018
:104610001C9B0733072293431A0008321C921A6826
:104620005B680092019304955B46039302940A9B96
:104630003A000B993000FFF739FA0700119B01335C
:104640001193E8E580231B011D43DDE720231D4373
:10465000DEE702232B409A461ED001251C9B1A1D23
:104660001C927C1C18780A9B3A000B99B047534661
:10467000002B22D1119B013311932700CBE5541C51
:104680000A9B0B992020B0472B0022005D1C9F4203
:10469000F5D8BB461700E1E701233A005F46F5E78E
:1046A000571C0A9B0B992020C04725003A006C1C20
:1046B000AE42F5D814004646DCE72200B0465E461E
:1046C000F5E71C9B1A1D1C921B689846002C02D013
:1046D0002300414604E001235B42FAE70131130065
:1046E0000A78002A02D05A1E002BF7D14346CB1A73
:1046F0009A468023DB002B40994602D0A24500D980
:10470000A24602232B40109315D03A004546B046EE
:104710004E461CE0571C0A9B0B992020B0472B00EB
:104720003A005D1C9C42F5D8A3465446AA4645462D
:10473000B0464E460BE03A005346A2465C46F0E7D0
:104740001C000135571C0A9B0B99C0473A0028787A
:10475000002804D0002EF4D0631E002CF0D11700E6
:104760004646109B002B0FD1119B0133119352E54C
:10477000551C0A9B0B992020B04723002A005C1C83
:104780009F42F5D81700EFE75F465346F7E721232E
:104790002B431C9A111D1C9112680092059308234B
:1047A0000493039408330293002301930A9B3A0075
:1047B0000B993000FFF7BBF80700119B01331193F1
:1047C00029E57C1C0A9B3A000B992520B047119BD8
:1047D0000133119327001EE57C1C0A9B3A000B99BC
:1047E000B047119B01331193270014E5B3460A9A91
:1047F00097420CD3013A0A9B0B990020D847380006
:1048000013B03CBC90469946A246AB46F0BD3A0078
:10481000F1E7C04600B585B0029003910093130004
:104820000122524202A90248FFF7E6FC05B000BD92
:104830004737001001480421014B1847300D002074
:104840007D480010014B5B6818470000300D0020C8
:10485000014B9B6818470000300D002010B5010087
:1048600018231B8814221088984710BD10B501002A
:1048700018231B8816221088984710BDF0B5C6462D
:1048800000B507000E0000250123984600E0013521
:10489000B5420AD2AC003C192068FFF7DFFF206068
:1048A0000028F4D100239846F1E7404604BC904626
:1048B000F0BD0000124A936F9B0815D29066D16636
:1048C000002905D0FFE7FFE7FFE7516F106F704742
:1048D00004B580210906C2175140002800D0C84302
:1048E00046F0EEF8002104BDF0B5146E556E576F1A
:1048F000166FFFF7E3FF1466556657671667F0BD3E
:10490000000000D0114A936F9B0813D210665166C5
:10491000002905D0FFE7FFE7FFE7516F106F7047F1
:1049200004B5002801D00020C04346F0C9F800219A
:1049300004BDC046F0B5146E556E576F166FFFF785
:10494000E5FF1466556657671667F0BD000000D096
:1049500094464A4A926F9208624601D228E0C046C5
:10496000F0B5464E346E756E776F366F00F020F8F6
:104970009446424A14665566576716676246F0BD0C
:1049800094463E4A926F9208624601D254E0C04675
:10499000F0B53A4E346E756E776F366F00F04CF8A6
:1049A0009446364A14665566576716676246F0BDE8
:1049B000002B24DB11D000293EDA00B5C943404268
:1049C00000D1013100F038F8C943404200D1013133
:1049D000DB43524200D1013300BD002AEBD1002855
:1049E00001D1002905D00020C90FC90701D1C0435A
:1049F000410800B546F05CF80022002300BD00B578
:104A000000290ADBDB43524200D1013300F014F8E5
:104A1000C943404200D1013100BDC943404200D1E9
:104A20000131DB43524200D1013300F005F8DB4392
:104A3000524200D1013300BD002923D1002B18D1EF
:104A4000002A0CD0BC460D4F38667A660021002340
:104A5000FFE7FFE7FFE77A6F386F67467047002888
:104A600001D00748010000B546F022F800220023DB
:104A700000BD02000B00002000217047000000D0A4
:104A8000FFFFFFFF002B00D0BFE0130C28D1002A4E
:104A9000E7D080B4114F39667A66FFE7FFE730B49C
:104AA000040C7B6F396F1B0423433B667A66FFE778
:104AB000FFE7FFE7C04684B27B6F3D6F1B042343D3
:104AC0003B667A66FFE7FFE7C04600232C042D0C07
:104AD0007A6F386F00196941B0BC7047000000D090
:104AE000F0B594460025140E01D112020835140FBA
:104AF00001D112010435940F01D192000235D40F77
:104B000001D152000135D40B0134254F7C66254C70
:104B10003C660E0C93B2FFE7FFE7FFE73C6F66438E
:104B2000360C7703BE467343DF0B5B04C01AB941F2
:104B3000130C7343DB18C91ACE086643360CB6440F
:104B400093B273431F0F1B01C01AB941130C734377
:104B50001F0B1B05C01AB941860D8F023E436643E9
:104B6000360C092D24DB520A7243801A7703460A59
:104B70006643360C16235B1BDE40DF40BF196446DC
:104B80006643821B7046043506330100D940A840B5
:104B9000C01900D30131A24206D20023F0BD0000AB
:104BA000000000D0FFFFFFFF121B0130F3D3F1E73D
:104BB00009277F1BFE406446A2B27243801A00D2CE
:104BC0000139220C7243130C1204821A99410B0012
:104BD0007046043513370100F940A840801900D30E
:104BE0000131002B02D1A2420AD2F0BD013000D324
:104BF0000131121BFAD2013BF8D1A24200D2F0BD22
:104C0000013000D30131121BF7E7F0B51C0C00D0C6
:104C100080E00CB400251C0A04D11B02160E33439D
:104C2000120208351C0B04D11B01160F334312016D
:104C300004359C0B04D19B00960F33439200023540
:104C4000DC0B02D192185B4101351C0097186441BE
:104C50000134464F7C66464C3C660E0CFFE7FFE78E
:104C6000FFE7C0463C6F6643360C7703BE4697B2FB
:104C70007743C01B00D20139C01B00D201399FB25B
:104C80007743C91BC91B170C77437E04FF0B801B9E
:104C9000B941CE086643360C0C2D33DBB644120BFB
:104CA0001F053A431B0B97B27743C01B00D2013953
:104CB0009FB27743C91B170C77433E043F0C801B00
:104CC000B941860D8F023E43664329277F1BFE4074
:104CD0000C3D7746AF40BF1930BCA2B2ABB27243B5
:104CE0007343801A9941220C7243130C1204801AE8
:104CF000994102000B000137001BA941F9D2781E2F
:104D00000021F0BD0C277F1BFE4077467F0BAF4094
:104D1000FF19E0E700245D1C07D0144F7D6639665B
:104D2000FFE7FFE7FFE7FFE73C6F95B29EB2654301
:104D30006643401BB141150C1E0C654366433604A7
:104D40002F0C3E432D04401BB141994204D2020076
:104D50000B0020000021F0BD01D19042F7D3801A52
:104D6000994101349942F2D3F6E70000000000D0E7
:104D7000FFFFFFFF48404140484018B41B4B5B68B1
:104D8000FC46019308BD04DF2B52001018B4174BEA
:104D90001B68FC46019308BD00DF355200109446A5
:104DA000134A926F920809D2624618B40F4BDB681F
:104DB000FC46019308BD0CDFED5400100C4AF0B521
:104DC000146E556E576F166F6246FFF7EEFF084A76
:104DD0001466556657671667F0BD18B4034B9B6899
:104DE000FC46019308BD08DF91530010AC3D002044
:104DF000000000D0FFB550404240504059404B4069
:104E0000594000E0FFB5154F4C00640D03D0BC4283
:104E100004D10C0314D80020090D09055C00640DB1
:104E200003D0BC4204D11C030AD800221B0D1B0571
:104E300001264B4009D44B4003D58B4200D182421E
:104E4000FFBD9942FCD19042FFBD0B43DB180343E9
:104E50001343F5D0C9434918FFBD0000FF07000008
:104E600000B5FFF7CFFF01D0002000BD012000BD3D
:104E700000B5FFF7C7FF804100BDC04600B5FFF792
:104E8000C1FF01D9002000BD012000BD00B5FFF722
:104E9000B1FF01D9002000BD012000BD00B5FFF722
:104EA000A9FF804100BD012040054A00121804D826
:104EB0005A00121801D800207047012070470020C6
:104EC000704700000021002805D17047C1174840F5
:104ED000401AFAD0C90713B5064B1B6898470CBC9B
:104EE000441CA2401005120B0349091B0905194374
:104EF000114310BD5C3D00201F04000010B54C00A4
:104F0000620D8023D218DB00D21A5B057E2A10DDE9
:104F10009E3A13DACC170903490819435242D1408B
:104F2000640001341532202A05DAD040084360437A
:104F300010BD002010BD0846604310BDC80FC0184A
:104F4000013810BD18B4044B5B6AFC46019308BDE0
:104F500024DF9D5600100000AC3D002018B4044B27
:104F6000DB6DFC46019308BD5CDFA9570010000013
:104F7000AC3D002018B4044B5B6EFC46019308BDA9
:104F800064DFA15700100000AC3D0020C94211D3DE
:104F900000B549004908002200F024F8002904D493
:104FA000002240428A41114600BD802109060020AE
:104FB00000BD000018B4044BDB6EFC46019308BD35
:104FC0006CDFAB5600100000AC3D002018B4044B61
:104FD0005B6FFC46019308BD74DFC55600100000EE
:104FE000AC3D002018B4044B9B6FFC46019308BDF8
:104FF00078DFC75600100000AC3D002018B4044B09
:10500000DB6FFC46019308BD7CDF355700100000C4
:10501000AC3D002070B513231C78012C27D0012C47
:1050200012DD2048FFF722FC05001F48FFF71EFC99
:10503000023803789B007F2B1BDD802229001B4850
:1050400000F082FF022C1AD0022C02DC174B184A07
:105050009A641848FFF702FC174B186070BD99005E
:10506000124A1348885001331F2BF8D9D7E7002381
:10507000FAE7124B124A32211248FEF7B1FA124BEC
:105080001A88B5231B029A4209D1104B1A88104B7B
:105090009A4204D10F4B1A880F4B9A42D4D0002069
:1050A000FEF738FB5344000053460000AC3D00209F
:1050B000F15100104C3300005C3D002058CD04102D
:1050C000F8CD0410ACCD041054380000D8380000DE
:1050D000494600009C3800005946000070B50B0D91
:1050E0005B055B0D1A4A944663445A1C1DDB5A1C2F
:1050F00021D03422D21A002A16DD3324E41A2023C8
:105100005B42E5181ED40126AE4033000125A540C0
:105110002A008018594192185B41002554429D4154
:10512000060026402940300070BD0022C90FCB0781
:1051300010001900F8E7CB0FDB070020054A1A43DF
:105140001100F1E720252D1B0126EE403300DDE79D
:1051500001FCFFFF0000F03FF0B5C64600B50600B9
:105160000F000B0D5B055B0D27D01F4A9B182CD43D
:105170003424E31A9846002B24DD203B9C4629D496
:1051800001256446A5402B0001254446A5402A0080
:1051900001246442E517A4185D41002903DA2418AC
:1051A0004D4126002F00002554429D4133002340ED
:1051B00018003B002B40190004E00022C90FCB0768
:1051C0001000190004BC9046F0BD002909DA002047
:1051D0000649F7E720254346ED1A0124EC40230059
:1051E000D2E700200021EDE701FCFFFF0000F0BF47
:1051F00007B56046002800D100BE01880A0A0230C7
:10520000DF2AFAD1C9B2820804D302884088000498
:10521000104300E00068024A5050039007BD0000B0
:10522000AC3D00200FB403BC0CBCF0B50124E40776
:10523000634000E0F0B50C0DCF0F661E3605891BEC
:10524000640503D3C943404200D30131640D03D048
:10525000661CF60A07D0E41B00207F00791C890732
:105260008912803C24031D0DDF0F6E1E36059B1B2B
:105270006D0503D3DB43524200D301336D0D03D0E0
:105280006E1CF60A07D0ED1B00227F007B1C9B07DB
:105290009B12803D2D032F1B661B58D4A446202E45
:1052A00046DA20371400BC401D00BD40F2403341B7
:1052B0002A4380185941CB0F05D0C943C04300226F
:1052C00064425041514162464D0D28D10D0D07D128
:1052D00000281FD0241940414941013A0D0DF9D051
:1052E000640006D3013000D30131002C01D1400805
:1052F0004000013A0BD4941CE40A04D11205114475
:10530000DB071944F0BDD907204B194300E0D9074A
:105310000020F0BD0029DDD1002CDBD1F0BD013231
:10532000C6074008CD0728434908002EE1D0D9E739
:105330003C2E29DA203E40371400BC4000D0012426
:10534000F24014431A00BB401C43D317ACE7AC46F1
:10535000202F08DA20360400B4400D00B540F84094
:1053600039412843A5E73C2F0CDA203F40360400A2
:10537000B44000D00124F84004430800B1400C437D
:10538000C117EAE710001900002494E70000F07F3D
:10539000F0B50C0D661E3605891BE60A6405640D22
:1053A00002D0651CED0A04D0002001210905803CD3
:1053B0002403A4461C0D671E3F05DB1BE70A64059A
:1053C000640D02D0651CED0A04D0002201231B05E8
:1053D000803C24037740644497B484B296B274430B
:1053E000070C7E43150C6F4380B26843361802D316
:1053F000012000043F183004350C00197D4184461B
:1054000088B29AB250430C0C62431F0C7C438EB29C
:105410007E43921902D301263604A4191604170CF0
:105420003618674101BC81B29AB25143040C624301
:105430001B0C5C4380B25843121802D301200004B5
:1054400024181004130C401863412D185E410020ED
:10545000474106BC88B293B258430C0C6343120C0C
:10546000544389B251435B1802D3012109046418E3
:1054700019041A0C091862416D1856410020474161
:1054800018BCF902720D1143F0026A0D1043ED02CF
:105490000A0D03D16D1940414941013B124E9B1B3E
:1054A0007600B3420ED26D0007D301300026714161
:1054B0006646354301D1400840001B05C918E40782
:1054C0002144F0BD0BDA013306D1013004D10131A2
:1054D0004F0D01D04908F2E7E1070020F0BD013689
:1054E00031050020EBE70000FF030000F0B51C0DC4
:1054F000671E3F05DB1BE70A6405640D02D0661CCE
:10550000F60A04D0002201231B05803C2403D02589
:105510002D060026F6432E661E096E66CE0FF6197E
:10552000B44649004F0D02D07E1CF60A03D000207D
:105530000021403F3F033E1BB600B444013F7F05BE
:10554000C91B49082E6F013676089C02950D25432C
:105550007543ED137543AD1301356D10F603761BDE
:105560000CB4CC02450D2C43A2B2B3B25A43270C63
:105570007B43350C6F43A4B26C431B1902D3012447
:1055800024043F191C041D0CA4187D4124196D41ED
:10559000009A91B2ACB26143170C7C432B0C5F4371
:1055A00092B25A43A41802D301221204BF18220453
:1055B000230C52187B41019C6C431B19520ED901DC
:1055C0000A434401A01A81B2B2B2514303145A43B0
:1055D000360C734387B27743D617D21900277E4122
:1055E00036049B191704160C7F185E417316ED18CC
:1055F000F301002680337541A90F06D16400690AC2
:10560000E8055B0A184309D22FE004229444803352
:105610007541A90AA8059B0A184326D34041494170
:105620002404009A019B0D005543641B4343E41A74
:1056300095B286B27543170C7E43030C5F4392B25A
:105640005A43B61802D301221204BF183204330C95
:1056500052197B4152429C41002C02D4002201305D
:1056600051414008CA071043490802B06246D707B3
:105670009210084BD218084B9A4203D2120589188F
:10568000C919F0BD0020002A01DC3900F0BD01334A
:105690001905F5E7FD030000FE070000002200B534
:1056A000203200F010F8080000BD002200B500F024
:1056B0000CF8CA179A4200D100BDD8430121C9078E
:1056C000414000BD00220B150AD410B5944600F0ED
:1056D000A7F81414013400DA0021CB17144C20472A
:1056E0000020002170476244343A0CD40C2A07DAB7
:1056F00004009140904052422032D440214310BDDA
:10570000D843D94310BD203207D40C4694405242AE
:1057100020321141D040204310BD0800C91720326B
:1057200003D452422032104110BD1800190010BDA0
:10573000E75600104A00520D144BD21A13DDFF2A0F
:105740001EDAD205CB0FDB071A43C300400F090353
:10575000490A084310435B0001D301D00130704770
:105760004308FBD2704702D0C80FC00770470A0336
:1057700012130132F8D1420F072AF5D1012200E0BD
:10578000FF22C80F00028018C00570478003000088
:1057900000210A00002104E000210A00C11704E0F2
:1057A0000022002306E0C0460022CB175840594093
:1057B000C01A994130B5184CA21A002903D1010032
:1057C00010D00020203A4C1512D104D2013A001812
:1057D00049414C0DFAD3114CA24204D2120589184A
:1057E000DB07C91830BDD243520D00200021F5E778
:1057F00003D4013A00184941FBD50B324405C00AD5
:105800004D052843C90A640003D00024604161416A
:10581000E1E7E0D34408F8E732040000FE070000A7
:105820000A0DCC0F531E1B05C91A520503D3C943D9
:10583000404200D30131520D03D0531CDB0A07D084
:10584000121B00206400611C89078912803A120330
:10585000014BD21A70470000FF030000514343433D
:10586000C9188C46110C83B24B4310B4040C61432D
:1058700092B280B2504362431C041B0C001910BC4E
:1058800059411304120CC018514161447047000083
:1058900048404140484000239C46114B5B681847F4
:1058A00000239C460E4B1B6818470E4A936F9B08BB
:1058B00004D200239C460A4BDB681847F0B5146EEF
:1058C000556E576F166FFFF7F4FF064A146655665C
:1058D00057671667F0BD00239C46014B9B6818472D
:1058E000AC3E0020000000D007B548404140484091
:1058F00001E0C04607B54200120E03D0FF2A03D1D3
:10590000420218D8C00DC0054A00120E03D0FF2A6B
:1059100003D14A020FD8C90DC9050122414005D45F
:10592000414001D5814207BD884207BD0143491866
:1059300001D0C043001807BD00B5FFF7DBFF01D061
:10594000002000BD012000BD00B5FFF7D3FF80415E
:1059500000BDC04600B5FFF7CDFF01D9002000BD56
:10596000012000BD00B5FFF7BFFF01D9002000BD39
:10597000012000BD00B5FFF7B7FF804100BD491A07
:10598000002807D108467047C10FC90700D540421B
:10599000002817D0F44603B40B4B1B68984706BC8D
:1059A00081409E384042803107D20B0607D0490023
:1059B000490AC0051043084360470130F8E7490A27
:1059C0008902F5E7704700005C3D002041000A0EA7
:1059D00080231B067E2A0BDD9E3A0BDAC11740029C
:1059E000400818435242D0404900013148437047B3
:1059F00000207047C00FC01801387047C0420DD357
:105A000000B540004008002100F012F8002801D441
:105A1000404200BD8020000600BD0000034BDB6952
:105A2000FC4618471CDFB95E00100000AC3E0020A9
:105A300000239C46014B5B6A18470000AC3E0020E7
:105A400000239C46014B1B6B18470000AC3E002016
:105A5000034BDB6FFC4618477CDFD15E0010000073
:105A6000AC3E0020C11504D400239C46054B9B6925
:105A70001847C843FF2801D1C0077047C817C005A1
:105A800070470000AC3E00204100090E862904DA70
:105A900000239C46044BDB6B1847044900B500F01B
:105AA000EBF902BC8E46F3E7AC3E0020DB0FC940A9
:105AB0004100090E862904DA00239C46044B1B6C26
:105AC0001847044900B500F0D7F902BC8E46F3E749
:105AD000AC3E0020DB0FC94000239C46014BDB6C31
