:020000041000EA
:1000000000B5324B212058609868022188439860DF
:10001000D860186158612E4B002199600221596106
:100020000121F02299502B49196001219960352056
:1000300000F044F80222904214D00621196600F024
:1000400034F8196E01211966002018661A6600F04E
:100050002CF8196E196E196E052000F02FF8012189
:100060000842F9D1002199601B49196000215960AB
:100070001A491B48016001219960EB211966A021F2
:10008000196600F012F800219960164914480160C1
:100090000121996001BC002800D000471248134993
:1000A000086003C880F30888084703B5996A0420EC
:1000B0000142FBD001200142F8D103BD02B5186610
:1000C0001866FFF7F2FF186E186E02BD00000240BE
:1000D000000000180000070000035F00212200005C
:1000E000F4000018222000A00001001008ED00E03C
:1000F00000000000000000000000000074B24E7A12
:1001000000200420F7010010C3010010C5010010F9
:10011000C1010010C1010010C1010010C101001097
:10012000C1010010C1010010C1010010C701001081
:10013000C1010010C1010010C9010010CB01001065
:10014000CD010010CD010010CD010010CD01001037
:10015000CD010010CD010010CD010010CD01001027
:10016000CD010010CD010010CD010010CD01001017
:10017000CD010010CD010010CD010010CD01001007
:10018000CD010010CD010010CD010010CD010010F7
:10019000CD010010CD010010CD010010CD010010E7
:1001A000CD010010CD010010CD010010CD010010D7
:1001B000CD010010CD010010CD010010CD010010C7
:1001C00000BE00BE00BE00BE00BE00BEEFF3058054
:1001D000103800BEF2EB8871A0B80510C8B8051041
:1001E0003402001090A31AE700201F49086006C8D7
:1001F00081F3088810471D48006800282FD10DA4FE
:100200000ECC002902D000F012F8F9E71849194A7B
:10021000002000E001C19142FCD1174988471749ED
:1002200088471749884700BEFDE701C901C29A42C5
:10023000FBD37047C8B80510C0000020A0250020DF
:10024000A8DD05100000042000000420A8DD051032
:10025000001004200010042000000000704709482E
:1002600004F094FB0047000008ED00E0000000D01F
:10027000A0250020B04F0020FD36001079030010AB
:10028000BB3600105756000006005250ABB3605307
:1002900018B0041006005250861C030228B0041047
:1002A000060052505422A29D34B004100500525052
:1002B000DE65F468A8DD0510F8B5C0460448054BB6
:1002C00010B5834203D0044B002B00D0984710BDDB
:1002D000A0250020A02500200000000006480749B6
:1002E000091A8B10C90FC91810B5491003D0044B57
:1002F000002B00D0984710BDA0250020A02500208D
:100300000000000010B5074C2378002B09D1FFF73F
:10031000D5FF054B002B02D0044800E000BF0123AD
:10032000237010BDA826002000000000B88B041028
:10033000054B10B5002B03D00449054800E000BF71
:10034000FFF7CCFF10BDC04600000000AC26002027
:10035000B88B041010B58022044B1868D2000449F1
:1003600001F078F9034B188010BDC04674350020A9
:100370009C2C00209E4F002030B587B006F006F878
:10038000554805F0C7FF554800F048FB002803D149
:10039000534805F0BFFFFEE7524805F0BBFF524847
:1003A00000F01AF9002803D1504805F0B3FFFEE72A
:1003B0004F4805F0AFFF494C200000F0DDFA4D4BEF
:1003C0001860200000F0FCFA8521C90505F02DFB1E
:1003D00005F0A6FB484B1860200000F0FBFA05F082
:1003E0007DFB464B1860464D2878FA239B01049309
:1003F000C823DB0103930023029310220192009390
:1004000006330D3A022101F0DFF83E4C20602978D6
:100410003D4801F0B9F82368002B06D03B4805F0B1
:1004200079FF3B4805F076FF15E03A4805F072FF8A
:10043000FEE72A4800F0A6FA041CFC21890505F015
:100440003BFB00283ED0201C05F0ACFB02000B005B
:10045000314805F08FFF8023DB00304A12889A4232
:10046000F9D32E4B00221A80224B19687C230432C8
:100470001D4800F06CF92A4C8023DB00E118802233
:10048000200005F00FFE8023621CFF329B0000213C
:10049000244846F04DF90024032CCADC2102200038
:1004A0007830C2011018144B1B68124A12681218D7
:1004B0001B4809181148006800900B4800F0E2F84A
:1004C0000134E9E7201C05F06DFB02000B00164823
:1004D00005F050FFBFE7C046B88B04107C3A0020FF
:1004E000E08B0410008C041044310020288C041090
:1004F0004C8C0410544D0020604F0020644F0020AD
:10050000A64F00207435002055030010948C041071
:10051000BC8C0410748C0410E48C04109E4F0020DA
:10052000783500209C2C0020108D041070B504003C
:100530000D00012805D0002C02D10D4B9D420FD09B
:1005400070BD0B4B9942F6D180214900094800F05B
:1005500039F8802292020849084800F0F1F9EAE7E8
:10056000064800F06DF9034800F012F8E8E7C046CD
:10057000FFFF000044310020408D04107C3A002031
:1005800010B502490120FFF7D1FF10BDFFFF0000A9
:1005900010B50400054B083303608068002803D0C1
:1005A00005F08EFD0023A360200010BDA09C041068
:1005B00010B50400FFF7ECFF2421200005F084FDB6
:1005C000200010BD034B08330360416000238360AB
:1005D0007047C046A09C0410F0B583B00500406889
:1005E000244B984207D8400005F066FDA86000281B
:1005F0003BD000242AE001204042F5E7200005F02E
:1006000068FA1D4905F011FA061C380005F066FA73
:10061000011C301C05F0F3F945F050FF05F0C2FA5B
:1006200002000B000020154904F03FFC0022144B8F
:1006300004F06BFC04F07AFD01906100AB689C460D
:100640006144012201A845F009FE01346F68A74208
:10065000D4D828000C3001230022390044F0AEF930
:10066000002804D1013003B0F0BD0020FBE70020DA
:10067000F9E7C046FCFFFF3FDB0FC9400000F03F39
:100680000000E03FF8B5DE4657464E464546E0B529
:1006900000AF804616009946BB6A9B4643685A00E5
:1006A0000732D208D2006846821A95466D469A00F3
:1006B0000732D208D200AA1A95466C46DA0FD21831
:1006C0005210013252000732D208D200A21A9546C7
:1006D000EA462A004046806845F0B4FF40460C30A8
:1006E0002200290044F074FA43465B68DA0FD218FE
:1006F000521001325146200045F02CFE002503E047
:100700007F2030700135013643465B68DC0FE4180A
:100710006410A54214DC6B005246985E494604F012
:1007200061F905F0DBF9594605F064F905F0F8F9CF
:100730007F28E5DC03008033E3DA80204042E0E7F5
:10074000BD46F0BCBB46B246A946A046F8BD70B552
:100750000500080014006968CA0F521852100132CF
:100760002100514341181B1B5A4347F0A7FB70BDA2
:100770000023036043608360704710B503685B69C2
:10078000984710BD10B503689B69984710BD0000DD
:10079000034B0360034B0360034B03607047C04689
:1007A000C09D0410989D04107C9D0410034B0360B1
:1007B000034B0360034B03607047C046C09D0410A9
:1007C000989D04107C9D0410044B0360044B03604F
:1007D000044B0360044B03607047C046E89D04105F
:1007E000C09D0410989D04107C9D0410044B036070
:1007F000044B0360044B0360044B03607047C04626
:10080000E89D0410C09D0410989D04107C9D041068
:1008100010B5040020290CD00022084BE358934265
:1008200009D95301E318181D9B698B4204D001328A
:10083000F3E7002000E0002010BDC04604100000D7
:1008400070B50400114B083303608569002D08D092
:1008500028003FF0D6F89821280005F035FC002349
:10086000A361E068002803D005F02AFC0023E360C0
:10087000074B6362074B6362074B6362074B63621C
:10088000074B2361074B2361200070BD089E0410B5
:10089000E89D0410C09D0410989D04107C9D0410D8
:1008A00020160510689D041010B50400FFF7C8FF5E
:1008B0000249200005F008FC200010BDB412000021
:1008C00070B50D4BC458802C01D8002302E046F0CF
:1008D000C9FF01339C420CD9C218084DAC46624492
:1008E00012788A42F5D1064A944663449B00185810
:1008F00000E0002070BDC046881200000810000013
:1009000022040000F8B505000E00002400E00134C8
:100910000A4BEB58A3420ED96301EB181F1D9B69CC
:10092000202BF4D16301EB18D869310047F09AFC11
:100930000028ECD100E000273800F8BD04100000CA
:1009400010B50400094B0833036041608260002346
:10095000C360074A0261074A026143618361C36160
:10096000036224300AF016FE200010BD089E041019
:10097000689D041020160510C069002800D0006989
:100980007047000070B5040080693FF02DFC00281E
:1009900011D1246A23690020185605F09FF8051C20
:1009A000E06805F09BF8011C281C05F01EF8A16802
:1009B00005F03BF870BD0148FCE7C0460000C07F71
:1009C000C369002B01D0986870470148FCE7C04616
:1009D0000000C07FC369002B01D0D8687047002099
:1009E000FCE7704710B50068FFF7FBFF10BD7047CC
:1009F00010B50068FFF7FBFF10BD704710B5008809
:100A0000FFF7FBFF10BD10B504000068FFF7E9FF1A
:100A1000201810BD10B5FFF7F6FF10BD70B584B0FB
:100A200004004068FFF7F6FF05006061FFF7E0FF94
:100A30002E1A3000FFF7E2FF042803D9301DFFF71C
:100A4000DDFF00E00020002804D02818FFF7CAFFCF
:100A5000020000E00022032A08D020001030032307
:100A6000224908F015F9002004B070BDA06805F017
:100A700023FBE060002824D0982005F019FB050036
:100A80002600103622002432002302930196A36828
:100A90000093E36861693FF047F8A561002D18D025
:100AA00028003FF0BBFA002819D10021A0693FF0CF
:100AB00069F8E0610021A0693FF022F9206201207D
:100AC000D2E720001030A268094908F0E1F80020C0
:100AD000CAE70849300008F0DBF80020C4E70649FF
:100AE000300008F0D5F80020BEE7C046B09C0410E6
:100AF000F89C0410249D0410449D04100160C26001
:100B0000002343608360704770B504000D00866861
:100B1000701CE16803F08EFF63688B4204D0236889
:100B20009D55A160012070BD0020FCE710B50400B8
:100B30004368826893420AD00268D35C0B704368B2
:100B4000581CE16803F076FF6160012010BD0020B1
:100B5000FCE710B5030082684168501AD968401854
:100B600003F068FF080010BD10B5C468FFF7F1FF7F
:100B7000201A013810BD002905D1102801D001200C
:100B800070470020FCE7102801D00320F8E70E385A
:100B9000F6E70000F0B5DE4657464E464546E0B55E
:100BA00083B006000F681123C356102B10D0042306
:100BB000B27C012A0ED001225A4393464C681100A0
:100BC000082003F00FFF6043804600239A4648E068
:100BD0000E3BEDE70132EFE779198E239B00F01809
:100BE000FFF7A4FF0028F7D001239C46E2440DE064
:100BF000337F002B2AD0022B49D18E239B00F01883
:100C00006B46D91DFFF792FF002838D001235B42C5
:100C10009C46E0440134E4B2072C21D84B46DA006C
:100C20001C4B9B181D576B1CE2D0337F002BD3D07D
:100C3000022B22D179198E239B00F018FFF776FF43
:100C400000281CD001239C46E244DFE78E239B0052
:100C5000F0186B46D91DFFF769FF0028F6D0D5E7DD
:100C60005F444346002B0AD0B17C11203056FFF779
:100C700082FFC3B299460024CEE700239A4650462D
:100C800003B0F0BCBB46B246A946A046F0BD002367
:100C90009A46F4E7D89F041070B50E008E239B008F
:100CA000C5182800FFF760FFFF2808D9002404E0DA
:100CB000315D2800FFF728FF0134FF2CF8D970BD03
:100CC000012801D020207047C8B2FCE701000020B5
:100CD00008E0A022D205094BD258012383401A42D2
:100CE0000BD101300B2806D80029F2D0A022D20562
:100CF000034BD258F1E70120404270470C0400003A
:100D00001C04000010B50023012B0CD81A000C3273
:100D1000920012588A4202D00133DBB2F4E7383035
:100D20001C02001900E0002010BD0000F8B506000C
:100D3000FFF7CCFF0400431C1CD0B3001E4A9F5891
:100D4000002F17D001003800FFF7DCFF051E11D07F
:100D50003B7C002B0FD0194B1A8880239B019A42B1
:100D600008D3164B00221A8093239B00FB58002BBC
:100D700000D09847F8BD01003800FFF78DFF002E26
:100D800013D00123A340A021C9050D4A8B50A40113
:100D9000A023DB059C4664446560084A13888021D3
:100DA00089008C4663441380D5E70123A340A0212A
:100DB000C905044A8B50EAE7082700209A4F002013
:100DC0001C0400000C04000010B50020FFF7AEFF6B
:100DD00010BD10B50120FFF7A9FF10BD10B50378B5
:100DE000002B08D108490B2000F0D8FD01210B2071
:100DF00000F0AAFD10BD05490C2000F0CFFD012137
:100E00000C2000F0A1FDF5E7C90D0010D30D001076
:100E1000F0B587B0040000250020237C012B00D111
:100E2000B6E0854BA3620026012E00D8BAE0002D63
:100E300000D1FAE0002800D1FAE027620021380052
:100E400043F004FC24256055A16A206A43F040FC6D
:100E50000200E062615D0023206A43F01DFD102264
:100E6000002102A805F018F980235B020293F82301
:100E70005B0203938023DB020493C0231B030493D0
:100E8000656911216156207CFFF71AFF68438000D5
:100E900004F024FE051C052002F0D0FA04F019FE2F
:100EA000291C04F0ACFD061C04F06CFE85B2002D7C
:100EB00000D195E0280004F00CFE011C301C04F069
:100EC00094FD8721C90504F0B0FD04F05BFEC0B2BB
:100ED00000022D0405430295207C012800D181E009
:100EE000059B0193554B019A1340E268D2031343CB
:100EF000059311216156FFF7E3FE049B0193504ACD
:100F00001A4080235B0213430005F822520410406C
:100F1000184304908000800880231B061843049027
:100F2000059B0193DB00DB088021C905194305916E
:100F3000039B0193434A1A400392434B1940636851
:100F40009B0219430591E56AA36A187928180138AC
:100F50003E4B1340ED012B43000303430393256AEB
:100F60002422A45C60000219D200AA181600C83618
:100F7000029F376004363360049BD032136000193F
:100F8000C00028180300DC331960002007B0F0BD52
:100F90001123E356102B02D02D4BA36243E72D4BB8
:100FA000A36240E7B3002C4A9F580025032D08D8C0
:100FB0002900380043F068FB00280FD00135EDB25E
:100FC000F4E70025A16A380043F06EFB002D02D043
:100FD000002800D02BE70136F6B225E70125F1E71E
:100FE000002075E7059B01931C4B019A1340E268B2
:100FF0001A4380235B031343059311216156FFF7C6
:101000005FFE049B0193164A1A4080239B02134300
:101010004006F82292051040184304908000800892
:101020008023DB05184304907AE701204042ADE7B6
:1010300002204042AAE7C046C09F0410FF7FF0FF95
:10104000FFFF0AFEFFFFFF9FFF83FFFF7F00FEFF02
:10105000D09F0410C89F0410F89F0410E0FF0FFCFD
:10106000FFFFF5C1F0B5C64600B505000E0014003F
:1010700006AA127890460127A740A3401A003B0019
:1010800043F06EFB4246A2403B003100280043F093
:10109000B5FB064B9D4206D00721200000F00EFB59
:1010A00080BCB846F0BD0621F7E7C04600002050DE
:1010B00070B582B004002426815D012500950023CF
:1010C0004268006AFFF7CEFFA15D00950023A26889
:1010D000206AFFF7C7FF237C012B09D0E268242395
:1010E000E15C206A00230093FFF7BCFF02B070BDF3
:1010F000E2682333E15C206A233B00930023FFF77F
:10110000B1FFF3E770B50400036A002B0FD0242071
:10111000255C1A680121A9408A431A60215C206A73
:1011200043F084FAE26AA16A206A43F0EDFA70BDE6
:1011300010B50378002B08D100210B2000F004FC2F
:1011400006490B2000F06EFD10BD00210C2000F0C0
:10115000FBFB03490C2000F065FDF5E7C90D00100D
:10116000D30D001070B5050000241BE01B4B1C4A7A
:10117000C3211C4802F0A4FA012383401A4A1360D9
:1011800001238340A021C905184A8B508301A02266
:10119000D20594466344DB68DB01F7D443F0EEFBF1
:1011A0000134E4B2012C18D823000C339B005859A9
:1011B0008201A023DB059C466244D3680C28D5D865
:1011C0000B490B40C1020B4313612B78002BD3D08A
:1011D00001238340074A1360D2E770BD189E0410B4
:1011E000389E0410749E041004340050440400001F
:1011F000FF87FFFF14340050F0B5D6464F464646F1
:10120000C0B506000024002501E00134E4B20B2C37
:1012100007D8200043F0CAFB0028F6D10135EDB213
:10122000F3E7012D06D801204042E0BCBA46B146A2
:10123000A846F0BD0024012C09D8002043F0A6FBED
:1012400023000C339B00F0500134E4B2F3E711218A
:101250007156307CFFF734FD102802D0022700259C
:1012600080E00127FBE77B4B7B4AC3217B4802F0F0
:1012700027FA7B4B7B4AD121784802F021FA754B43
:10128000754AC321754802F01BFA2332B25C7649D5
:10129000306A88422ED0082152183F2A2CD8734930
:1012A0002140D4030C4310221443103294430C33D6
:1012B0009B009B5999462423F35C04339B00326ABC
:1012C00092469A4411217156307CFFF7F9FCC1080F
:1012D000C9B28020400003F085FB4B469B01A02251
:1012E000D2059446634442461A6052465A6098605A
:1012F0001C6135E00021CFE75D4B5E4AB5215748C0
:1013000002F0DEF9002152183F2A70D857492140D7
:10131000D4030C4310229443103214430C339B002B
:101320009B5999462423F35C08339B00326A92460A
:101330009A4411217156307CFFF7C2FCC108C9B232
:101340008020400003F04EFB4B469B01A022D205BB
:101350009446634452461A6042465A609860DC6084
:101360000135EDB2012D48D82B002A000C32920035
:101370009259414C0C2A00D975E740490C40D202E1
:1013800014430C229443043A14433D4A14403D4A0A
:1013900014403D4A1440012214433C4A14400222A6
:1013A0009443022F00D964E70C229443BA001443FB
:1013B000691C01220A400C32920092590C2A00D971
:1013C0005DE72E492140D4020C4332003832290215
:1013D00090468844327C012A00D156E72422B25C30
:1013E00004322149306A88428CD008218BE7204B97
:1013F000204AB521194802F063F900230CE00121CD
:101400008140A024E4052248215015E001228A40B1
:1014100020490A600133DBB2012B18D834781A0056
:1014200019000C3189008859002CE8D00121814035
:10143000A024E4051848215030780C3292009159CC
:101440000028E3D001228A4014490A60E2E7002024
:10145000EBE6C046189E0410389E0410749E0410DB
:10146000D49E0410189F041000002050FF7FE0FF5E
:10147000749F0410889F041010801F00FF87FFFFD7
:101480003FF8FFFFFFFFBFFFFFFFDFFFFFFF7FFF13
:101490000C040000042400501C040000142400501C
:1014A000F0B5D6464F464646C0B504000E001500BE
:1014B000984608AB1B789A4609AB1B785BB29946F5
:1014C0000AAB1F784B1C93424FD15346012B4FD888
:1014D0004B46102B01D0202B4DD1012F4ED80B9B0A
:1014E000002B4EDD180004F0B9FD010092239B0093
:1014F000E050103BE0180B9AFFF700FB6660A56018
:101500004346E360534623744B466374A7740C9BB5
:1015100063610B9BA361002323772000FFF75EFC30
:101520002000FFF775FC002804D0E0BCBA46B146A5
:10153000A846F0BD2000FFF7BBFD2000FFF75CFED2
:101540000028F2D1256A2423E25C2968233B1E008F
:1015500096403200B1430A432A60226B9340A02197
:10156000C9058622D2008B50DFE701204042DCE72C
:1015700002204042D9E703204042D6E704204042FF
:10158000D3E705204042D0E78900034BCA58932394
:101590009B00D0507047C0460827002010B50400BB
:1015A000036A002B0ED0FFF7ADFD2000FFF7DAFD38
:1015B0002000FFF7BDFD92239B00E05804F060FD82
:1015C0000023236210BD0000F0B5DE4657464E46AC
:1015D0004546E0B587B0050089469246984610AB6F
:1015E0001E7811AB0027DF5712AB1B789B460128F2
:1015F00029D88300164A9C58002C1AD02000FFF7E7
:10160000CDFF149B0493139B03935B4602930197B6
:1016100000964346524649462000FFF741FF002806
:1016200013D1200007B0F0BCBB46B246A946A04685
:10163000F0BD9420800004F011FD0400AA00044BCA
:10164000D0500570DDE70024EBE70024E9E7C04651
:101650000827002070B584B005000C001600037C3C
:10166000002B20D111214156CA17073313405B18B4
:10167000DB10DBB2827C012A0CD001215943C9B2B4
:10168000300003F0D7F9002910D1002E04D100203A
:1016900004B070BD0221F1E70194029601A928006F
:1016A000FFF778FAF4E701204042F1E702204042D8
:1016B000EEE710B504F068FF10BD000010B5830020
:1016C000084A944663441C6840226240C024144087
:1016D0008022520113431C60C000034B9C466044AF
:1016E000416010BD04C0014000400140034B1B6835
:1016F00002201840431E9841C0B2704700C0064007
:10170000EFF3108072B6034B1B68002BFBD0BFF3C6
:101710005F8F70472C0100D0BFF35F8F024B002218
:101720001A6080F3108870472C0100D0CB08C25C8F
:1017300007231940012088401040431E9841C0B241
:101740007047F8B506000C001500FFF7D9FFE30855
:10175000F718F15C07222240012393400B4205D188
:10176000DBB20B433B70FFF7D7FFF8BD2100280029
:1017700002F040F8F0B583B00600019114001F009C
:10178000FFF7BEFF00E00134BC420CD8E308F518B7
:10179000F35C0721214001228A401A42F3D1D2B2E0
:1017A0001A432A7001E001246442FFF7B5FF002CC0
:1017B00002DB200003B0F0BD019B002BF9D008989C
:1017C00002F018F870B505000C00FFF799FFE30868
:1017D000EE18EA5C07210C400123A340134204D019
:1017E0009A433270FFF798FF70BD034B034A2C31C8
:1017F000034801F065FFC04630A00410A0A004100B
:1018000050A00410002307E0054A9A189200BFF385
:101810005F8F0021116001331F2BF5D97047C0463F
:1018200040000034054A1078431CDBB21370172BBC
:1018300002D9130010221A707047C046181C0020ED
:1018400000B583B00100044B00931F231822034806
:10185000FFF790FF03B000BDB0A00410AC30002033
:10186000074B9B68103080001950BFF35F8FBFF3A8
:101870005F8F044B0021196082F310887047C046C7
:1018800000ED00E0240100D010B5091A081F0A4B32
:101890009C466144094A914208D8C30706D44010C7
:1018A0004005400D064B184380B210BD054B064A5B
:1018B000A321064801F004FFFC070000FE0F000012
:1018C00000E0FFFFCCA0041048A30410FCA004100B
:1018D00010B5091A04394C08090B08D14905490DFE
:1018E000064A11430180064B2343438010BD054B3C
:1018F000054AAB21054801F0E3FEC04600F0FFFFBA
:1019000000F8FFFF48A104101CA30410FCA0041061
:1019100001238340034A10681840431E9841C0B217
:101920007047C04600E100E0002904D0034B186076
:10193000034B18607047034B1860FBE780E200E040
:1019400000E100E080E100E010B5012383401800D1
:10195000FFF7EAFF10BD000001238340014A136036
:101960007047C04600E200E0024B9B6810308000E8
:10197000C058704700ED00E010B5FFF7F5FF0028F4
:1019800005D0054BC01A2F2803D8012010BD002018
:10199000FCE70020FAE7C0461C1C002070B50400DC
:1019A0000D00EFF3108672B60C4B1B68002BFBD0BA
:1019B000BFF35F8F2000FFF7D7FF094B984201D09C
:1019C000A84205D1320029002000FFF749FF70BD71
:1019D000044B054A8621054801F072FE240100D01F
:1019E000CD01001058A104107CA30410FCA0041029
:1019F000F0B5DE4657464E464546E0B589B08146CD
:101A000001911500EFF3108A72B6744B1B68002B1E
:101A1000FBD0BFF35F8F724B0027DF57002F40DBF7
:101A20007C00E419A4006F4824180622A2566C4BCF
:101A30001A706D4B9A684B4610339B00D3589846EA
:101A40001E001B1A2F2B38D9684B98452FD105AE95
:101A5000674B33807B009B46D8198000614B9846CA
:101A6000404402306349FFF70FFF7080624BB38040
:101A7000FF23B371F571019B07935F44BF00474497
:101A80000ECE0EC701231C43A0465246414648468F
:101A9000FFF7E6FE09B0F0BCBB46B246A946A04639
:101AA000F0BD564B564AD721564801F009FE564B19
:101AB000534ADE21534801F003FEC04340440C2149
:101AC00002F0B8FF002912D101239E43B346330030
:101AD0000026DA79AA4211D90621595600290CDBD1
:101AE0004A00521892001E003E4B9B18F1E7474BEC
:101AF000434AEA21434801F0E3FD1E00002E3AD09C
:101B000005AB434A1A80813A5A800623F356029362
:101B1000002B17DA3F4805AB9B469880029A9A71D2
:101B2000DD71019A0792301D2100FFF7ADFEB080F4
:101B3000B7717B00DB199B002A4FFF185B4607CB70
:101B400007C7A2E77800C0198000264BC0180430F0
:101B5000321DB388D90A1C2907D15B0559150231FA
:101B600049005118FFF790FED5E72B4B2B4AB121C6
:101B7000244801F0A5FD05AE1D4B33807B00029388
:101B8000D8198000174A9046020042440392901CE4
:101B90001849FFF779FE7080039A101D5946FFF728
:101BA00073FEB0801E4B5A464146521A524153436F
:101BB0001B0DB371F571019A0792029B9C46674415
:101BC000BF0047440ECE0EC7114B5A461380813BCF
:101BD000538001231C43A04657E7C046240100D090
:101BE000A74F00201C1C002000ED00E0CD010010DC
:101BF00000A1FFFF4C1C002001BDFFFF90A10410BD
:101C000064A30410FCA00410B8A10410E0A1041007
:101C10000148000001BD000054A2041054A30410A8
:101C2000AAAA0000F0B5CE46474680B583B00600AC
:101C30000D00EFF3108872B6564B1B68002BFBD0DB
:101C4000BFF35F8F544B9A6834001034A300D75809
:101C5000524B9F4207D0AF4200D198E00197504BC2
:101C6000FB1A2F2B09D9424639003000FFF7F8FD47
:101C700003B0C0BCB946B046F0BD3000FFF748FE27
:101C8000814600213000FFF75FFEBFF35F8FEFF367
:101C90000581002901D08C4211D10123019C9C4374
:101CA0000022A368AB4212D00622A256002A0DDB06
:101CB00053009B189B002200394CE418F1E73621B1
:101CC000384B394AFF31394801F0FAFC2200AB4267
:101CD00056D106256557002D38DB6B005B199A003D
:101CE0002F4B9B189A68A260DA79E27106229A5605
:101CF000A2719B795BB2002B0FDA2D48A0806B009C
:101D00005B199B00264AD3182A4A117899711570DD
:101D100049463000FFF718FEA5E7201D6B005B1950
:101D20009B001F4A9B181A1D9B88D90A1C2907D1A2
:101D30005B055B15023359005118FFF7A5FDDDE780
:101D40001D4B1E4AB121194801F0BAFC002912D1DD
:101D5000002A0ED0FF239371194B9380154A1378F4
:101D6000A371184B0E49641A644163431B0D137031
:101D7000CEE70A4FF2E7201D1349FFF7A9FDC7E799
:101D80006A21124B084AFF31084801F099FC034FC1
:101D900069E7C046240100D000ED00E0CD0100104D
:101DA0001C1C00206CA2041034A30410FCA004101E
:101DB00001BD0000A74F002054A2041054A304103A
:101DC00001BDFFFFAAAA0000561C0020A0A204101B
:101DD00070B5012101432E4BCB1A2F2B28D8EFF3DE
:101DE0000583002B2BD0EFF3108C72B6294A1268B2
:101DF000002AFBD0BFF35F8F274A0400244D641BE9
:101E000064416243120D54B2244A92689B00D25836
:101E10008A421BD00022032A32D853009B189B0011
:101E20001B49CB189B795BB2A3421FD00132F2E76A
:101E3000C7211B4B1B4A49001B4801F041FC922162
:101E40001A4B184AFF31184801F03AFC134A9268BD
:101E50001749D150174B1A7882711C70BFF35F8FEE
:101E60000C4B00221A608CF3108870BD0D005300DB
:101E7000991889006918FF268E710F4A8A80E9E750
:101E8000D1210E4B074A4900074801F019FCC04612
:101E90001C1C0020240100D0AAAA000000ED00E0D4
:101EA000A8A2041000A30410FCA00410D0A20410E7
:101EB000CD010010A74F002001BDFFFFDCA20410E0
:101EC0000022044B02E0044902C30132072AFAD976
:101ED0007047C04600E400E08080808000B583B099
:101EE0000100064B0093052300220548FFF742FC42
:101EF000002801DB1F23181A03B000BDE4A2041060
:101F0000AC4F0020024B9C46614489000160704741
:101F10004000003410B50400FFF784FC01002000ED
:101F2000FFF7F0FFFF232371BFF35F8F10BD10B5E4
:101F30000400FFF777FC01002000FFF7E3FFFF2319
:101F4000237100236371BFF35F8F10BD034B9C4669
:101F5000614489000160BFF35F8F70474000003427
:101F600010B504000120FFF76BFC01002000FFF713
:101F7000EDFF10BD70B505000C00080000F04CFE30
:101F80000949200000F08CFDFFF74CFC074B9C46F4
:101F90006044800068602C75D0231B061B786B752D
:101FA000A400034BE55070BDB9220010400000347E
:101FB0003C4D00200A4B1A68EFF3108172B613688B
:101FC000002BFCD0BFF35F8F054B1B68BFF35F8F07
:101FD00000221A6081F3108840BF00200021704762
:101FE0005C4F002010B5002922D003681B7B99426A
:101FF0001ED8174B9C466144090183689C46614486
:102000000C684968002A19D003681B7B9A4215D8CE
:1020100083680F488446624412019A181068536816
:10202000020001208B4201D80ED00020C0B210BDAA
:10203000084B094A3C21094801F042FB054B064A7E
:102040003C21064801F03CFBA242EFD8EDE7C04638
:10205000FFFFFF0F3CA5041060A70410F4A40410B8
:1020600010B500291ED0037B99421BD84B005B188A
:10207000033B0468A4466344002919D0002A1DD0FC
:10208000914221D0002A25D0047BA24222D80468A4
:1020900050008018033820188170197800291FD14A
:1020A0001A7010BD104B114A6821114801F008FB4D
:1020B000104B114A6F310E4801F002FB0F4B0E4AD4
:1020C00070210B4801F0FCFA0D4B0B4A71210848B6
:1020D00001F0F6FA044B054A6821054801F0F0FAD0
:1020E00041701A70DDE7C04660A50410CCA704104B
:1020F0007CA50410D8A50410A8A70410E4A504101A
:10210000F0A5041070B506000D001400002914D0CD
:10211000002A14D0806873689847002806D02200EF
:1021200029003000FFF79CFF280007E02A0021006B
:102130003000FFF795FF200000E0100070BD0800A0
:10214000FCE70000F0B583B00500009201930AABF4
:102150001C780BAB1F78002C26D003685A7B944266
:1021600007D10123002B19D1002C3BD1200003B053
:10217000F0BD002C0CD01A7B944209D81A68630079
:102180001B19033BD3189B78002BEBD00123E9E705
:102190003E4B3F4A68213F4801F092FA3E4B3F4A8E
:1021A00067213F4801F08CFA03689C7B002CDBD050
:1021B00012D01A7B94420FD862001219033A1968A0
:1021C0008C46624451789973002900D1D973002359
:1021D000937053701370C7E72C4B2D4A68212D481C
:1021E00001F06EFA002C3AD02B681B7B9C4236D84B
:1021F0002C4BE3181B01AA6894466344009A1A60AA
:10220000019A5A60089A9A60099ADA602E68002C3E
:102210002BD030D0337B9C422DD863001B19033B5D
:1022200032689446634400229A705A701A70717B27
:1022300022003000FFF766FF7073844200D095E7FC
:10224000287D009A019B00F073FC061E01D0002F30
:1022500017D00C9B002B00D188E71E7086E7124B2D
:10226000124A3C210E4801F02BFA114B114AA521CC
:10227000084801F025FA054B054A6821054801F098
:102280001FFA2868210000F08BFEE2E760A5041029
:10229000CCA704107CA5041008A60410D8A704102D
:1022A000F4A40410FFFFFF0F3CA5041060A7041066
:1022B000F0A40410BCA70410F0B5DE4657464E4605
:1022C0004546E0B58BB00990002308938200B54BDA
:1022D000D658370052E0B44BB44A3F21B44801F01D
:1022E000EFF9B44BB44A3C21B44801F0E9F90029B4
:1022F00001D1002869D10021404600F047FEA042EC
:1023000019D12A686B6806920793AB689846EB6808
:102310009A464346002B14D0002C18D03B681B7BF8
:102320009C4214D8631EFA68D35C08931B021843BE
:102330003861002015E0A24BA24A8E219F4801F08F
:10234000BFF9A14B9F4A92219C4801F0B9F9994BE2
:102350009E4A4121994801F0B3F900239A469846D4
:1023600000207B68BFF35F8F00221A6086F310881D
:102370004346002B32D1002800D10CE100F04CFB89
:1023800002000B1EA7DB0020002106900791786851
:10239000EFF3108672B601680029FCD0BFF35F8F9F
:1023A000396888464C7B002CD7D09AD0097B8C4268
:1023B00097D8874965182D01B9688C466544286807
:1023C0006968801A9941002991DD2A686B6809982B
:1023D00000F0AEFB00239A469846C2E7089B1B021A
:1023E0002343994651461800C04705000E007A68FD
:1023F000EFF3108B72B6136859424B41D9B2002BE0
:10240000F9D1BFF35F8F002E1EDB002E46DD3B6946
:10241000002B47D04B456DD100F0FEFA02000B1E99
:102420006EDB52197341002B70DB002B72DB002135
:10243000049101310391029451460191414600916A
:102440003800FFF77FFE4CE03B69002BDDD04B45A9
:1024500014D1069A079B521BB341002B14DB002BAF
:1024600016DB002104910131039102945146019140
:10247000414600913800FFF765FE32E0554B514A66
:10248000A1214E4801F01CF901225242524BE6E7CD
:10249000454B464A3F21464801F012F9002E01D132
:1024A000002DB4D13B68002C50D05A7B944237D1D8
:1024B000012100294AD1DA7B002A4DD19A7B002ADA
:1024C00003D1DA7B002A5AD19C73DC73002C5CD0D8
:1024D0003B681B7B9C4258D8FA68013C135D013372
:1024E000135500233B617A68BFF35F8F13608BF352
:1024F000108843E7374B334AA421304801F0E0F815
:10250000294B2A4A3F212A4801F0DAF80122524297
:10251000314B8AE7244B254A3F21254801F0D0F86A
:10252000002C0DD01A7B94420AD862001219033A8B
:102530001868844662449278002ABAD00121B8E72C
:10254000264B274A6821274801F0BAF8264B274A2C
:10255000F621244801F0B4F8002A0AD0197B8A42F7
:1025600007D851008A18033A19688C46624454709F
:10257000A4E71A4B1A4A68211A4801F0A1F81C4B2B
:102580001A4AFB21174801F09BF80A4B0F4A4121D8
:102590000A4801F095F80BB0F0BCBB46B246A9461C
:1025A000A046F0BD3C4D0020FCA304102CA7041055
:1025B00018A404103CA5041060A70410F4A404108F
:1025C00030A6041044A7041048A6041084A70410E1
:1025D000FFFFFF0F54A60410FFFFFF7F60A504104C
:1025E000CCA704107CA5041090A6041098A7041092
:1025F000B4A6041010B50C4B5B68002B04D00A2164
:102600000A48FFF77FFC10BD074C2300084A102141
:10261000206800F0CBFB032000F0F2F9032120003A
:10262000FFF7A8FCEBE7C046641C00205C4F0020CD
:10263000E51F001010B5064B5B68002B01D0044865
:1026400010BD044B044A5E21044801F039F8C0462D
:10265000641C0020C8A604106CA70410F4A4041085
:10266000F0B5DE4657464E464546E0B58BB080464F
:1026700016001F00149B9A46159B994616AB1B78B3
:102680009B461F2302AA9446634400221A702BE043
:10269000002809D042461268127B904204D8421E9C
:1026A0004146C9688A5C41E0404B414A412141486A
:1026B00001F006F807984CE0361BAF41002F07DB0E
:1026C000002F11DA3C4B3D4A3F213D4800F0F8FF16
:1026D000012676423B4FF3E7374B384A3F213848D3
:1026E00000F0EEFF002F4FDB43465A68EFF31084F3
:1026F00072B6136859424B41D9B20791002BF8D1F9
:10270000BFF35F8F1F3302AA9446634404930023F0
:10271000039302934B4601935346009332003B00D0
:102720004046FFF70FFD031EB2D102004146496843
:10273000BFF35F8F00250D6084F31088002B29D034
:102740001F2302A98C4663441B78002BB2D11202CE
:102750001043002B20D05B46002B1DD04946D047AC
:1027600004000D0003000B431DD00029A4DB00F082
:1027700053F906000F1EAFDB36196F41002FB1DA97
:10278000012676420F4FADE70B4B0C4A3F210C4818
:1027900000F096FF012040420BB0F0BCBB46B246B1
:1027A000A946A046F0BD0798F6E7C0463CA5041030
:1027B00084A70410F4A40410FCA304102CA7041094
:1027C00018A40410FFFFFF7FF8B50400002900D112
:1027D00062E04268EFF3108572B6136858424341D5
:1027E000D8B2002BF9D1BFF35F8FCBB22268567BF2
:1027F000B3421BD10120002848D0206988422BD049
:10280000090AC9B2002B2ED02068007B83422AD847
:10281000581EE668305C88422BD000206368BFF306
:102820005F8F00221A6085F31088F8BD002B0DD051
:10283000167BB3420AD85E00F618033E1768BC4602
:102840006644B678002ED6D00120D4E7134B144A44
:102850006821144800F034FF2C21134B134AFF3138
:10286000134800F02DFF134B134A4121104800F08C
:1028700027FF1900100000F093FB0028CED199210A
:102880000E4B0A4A49000A4800F01AFF23698B429E
:10289000C4D100232361C1E70020C6E760A504106E
:1028A000CCA704107CA50410ECA6041014A70410F7
:1028B000F4A404103CA5041084A7041010A704106D
:1028C000407D704770B584B005000C00EFF30583C0
:1028D000002B1ED1FFF7AEFE002302930193224B83
:1028E00000932A002300FFF7BBFE061E23DD20BF56
:1028F000FFF7A0FE3100FFF767FF1C4B5B6A9C42AD
:102900002DD81A4A926AAA422CD29C4225D0012084
:1029100026E0164B5B6A994209D8144A926A8242B1
:1029200007D2994201D001201AE0002018E00020CF
:1029300016E0012014E00D4B5B6A9C4209D80B4A5B
:10294000926AAA4207D29C4201D0012008E00020EE
:1029500006E0002004E0012002E0002000E000206A
:1029600004B070BD0120FBE7B51F0010004005401A
:1029700070B5EFF305801038EFF3108C72B61A4B78
:102980001B68002BFBD0BFF35F8F01221300834035
:1029900016494B6316490B60164909780C00C44070
:1029A000224214D0114A546A8200134D5259944263
:1029B00006D38200114C125999430E4B197007E04F
:1029C0000A4A031D9B0099589950002200E00022FA
:1029D000BFF35F8F044B002119608CF31088002A2D
:1029E00000D0904770BDC046280100D0004005408F
:1029F0003C700540AB4F0020704F00208C2B002016
:102A000010B50100024A0348FEF79BFE10BDC04608
:102A1000F0A70410A44F0020044B5B6A034A906A9D
:102A20001900536A9942F9D17047C04600400540E9
:102A3000084B5B6A01E0074B5B6A8B42FBD301E00A
:102A4000044B5B6A8B4203D1024B9B6A8342F7D3F0
:102A50007047C0460040054070B504000D00FFF708
:102A6000DBFF02000B0020002900801859418B4237
:102A700002D804D1824202D901204042C117002964
:102A800002DBFFF7D5FF70BD024B034A3F2103482D
:102A900000F016FEFCA30410A4A8041018A404104F
:102AA00070B504000D00EFF3108672B61B4B1B6867
:102AB000002BFBD0BFF35F8F002D1CD02000FEF752
:102AC00053FF174B83420BD019002000FEF766FF1F
:102AD00001212000FEF738FF0123A340114A1360B3
:102AE000A400114BE550BFF35F8F0C4B00221A601E
:102AF00086F3108870BDA2000B4B0021D15001223B
:102B0000A2400A490B7893430B7005492000FFF758
:102B100089F800212000FEF717FFE4E7280100D024
:102B200071290010386005408C2B0020AB4F00202D
:102B3000F0B5DE4600B584B00400150001921E0019
:102B40000293FFF769FF03958E4202D84ED185426A
:102B50004CD9EFF3108B72B6274B1B68002BFBD0C0
:102B6000BFF35F8F254A17780125A540EBB23B43A1
:102B70001370234B5D63221D92000199D150A20076
:102B80002049029850501B6A2B4212D11C4B1B6CDF
:102B90002B4208D00020BFF35F8F174B00221A6032
:102BA0008BF3108823E0184B184AC521184800F011
:102BB00087FDFFF731FF8E4214D802D1039B834279
:102BC00010D80E4B1B78BB420ED00D4B1D625D63BF
:102BD0001F2004400123A3400E4A1360074B1F70BF
:102BE0001E38D8E70020D6E70120D4E7012004B042
:102BF00080BCBB46F0BDC046280100D0AB4F0020D2
:102C000000400540704F002014A8041088A804104C
:102C100038A8041080E200E0EFF3108C72B60B4B82
:102C20001B68002BFBD0BFF35F8F01238340084A52
:102C3000136208490A789A430A70BFF35F8F034B07
:102C400000221A608CF310887047C046280100D01B
:102C500000400540AB4F002010B500291ED0037B7B
:102C600099421BD84B005B18033B0468A44663449D
:102C7000002919D0002A1DD0914221D0002A25D048
:102C8000047BA24222D80468500080180338201820
:102C90008170197800291FD11A7010BD104B114A8C
:102CA0006821114800F00CFD104B114A6F310E489D
:102CB00000F006FD0F4B0E4A70210B4800F000FD9E
:102CC0000D4B0B4A7121084800F0FAFC044B054AF1
:102CD0006821054800F0F4FC41701A70DDE7C04639
:102CE00060A50410B8A904107CA50410D8A5041090
:102CF000A4A90410E4A50410F0A5041070B5060002
:102D00000D001400002914D0002A14D080687368C4
:102D10009847002806D0220029003000FFF79CFFCA
:102D2000280007E02A0021003000FFF795FF20006F
:102D300000E0100070BD0800FCE7000010B50023A3
:102D4000437301338373037BC3730123027B9A4272
:102D500014D9002B0CD0027B934209D85A00D21808
:102D6000033A01688C4662440133DBB25370EDE7ED
:102D70000B4B0C4A68210C4800F0A2FC002A09D039
:102D8000924207D8016853009A18033A8A18002320
:102D9000537010BD024B034A6821034800F090FCB9
:102DA00060A50410B8A904107CA5041010B5017327
:102DB00042608360FFF7C2FF10BD000070B50400E1
:102DC000081E00D170BD002934D0237B994231D830
:102DD0004B005B18033B2268944663445A78002AF0
:102DE000F0D02DD0237B9A422AD853009B18033B66
:102DF00021688C4663445D7800215970002825D0F5
:102E0000237B984222D843001B18033B21688C4641
:102E100063440021597001002000FFF76FFF060096
:102E200029002000FFF7CAFF020031002000FFF751
:102E300065FFC7E7084B094A6821094800F040FCD4
:102E4000054B064A6821064800F03AFC024B034A4B
:102E50006821034800F034FC60A50410B8A90410F0
:102E60007CA5041070B505000C00160000292FD0B9
:102E700034D0037B994231D84B005B18033B026886
:102E8000944663445A78002A2ED19A78002A31D188
:102E90001978FFF793FF0300002E0AD0EA7B002A7F
:102EA0002ED1AA7B002A03D1EA7B002A3BD1AC7346
:102EB000EC73002B3DD1002C4FD02B7B9C424CD887
:102EC0002B6861000C19033C1C190023637070BD52
:102ED000254B264A3821264800F0F2FB254B264A8E
:102EE0006821264800F0ECFB254B204A3A21204877
:102EF00000F0E6FB234B1D4A3B211D4800F0E0FBA0
:102F0000002A0AD0297B8A4207D851008A18033A3E
:102F100029688C4662445470C3E7164B164A6821F0
:102F2000164800F0CDFB184B104A4221104800F023
:102F3000C7FB002B0BD02A7B934208D843001B18F9
:102F4000033B2A689446634400229A70B3E7094B16
:102F5000094A6821094800F0B3FB064B064A68217C
:102F6000064800F0ADFBC046BCA8041090A90410B0
:102F7000C4A8041060A50410B8A904107CA504100E
:102F80000CA9041034A90410B4A6041070B50400F0
:102F90000A00457B2900FFF765FF6073280070BDBC
:102FA00070B50400002967D0437B8B420ED0002906
:102FB00011D0037B99420ED84B005B18033B02688B
:102FC000D0188378002B0CD1002056E00121FFF7A8
:102FD000DDFF012051E0294B294A6821294800F0F2
:102FE0006FFB002B20D0227B93421DD85A00D318B0
:102FF000033B2268D2182568EB5C8B421AD0002B69
:103000001BD0227B934218D85A00D318033B226866
:10301000D21853788B4216D0002BF0D11A4B1B4A92
:103020006B211B4800F04CFB144B154A68211548D6
:1030300000F046FB4378137007E0104B104A6821FC
:10304000104800F03DFB43785370002383704370B9
:1030500001222000FFF706FF0200617B814205D0BC
:103060002000FFF74BFE6073012006E0094B074A82
:103070007121074800F024FB002070BD60A50410FA
:10308000B8A904107CA50410DCA2041078A90410CF
:10309000C4A8041058A9041070B5046BE30701D448
:1030A000200070BD02003032C0239B0113430A4A46
:1030B0001A60456A826AAD01AD18AD02062000F0C3
:1030C000BDF9064901F0B6FC0100280001F0B2FC90
:1030D0000021FFF7C1FCE3E7010300004E0E0000F2
:1030E00070B504000E001500FFF7D6FF22002C3249
:1030F000E16A4E40354080235B0113431D6020632D
:1031000070BD000070B505000C00062000F096F9B7
:10311000C000210001F08EFCC60908D00E4B9E4273
:1031200016D87F23184001303400460800E00124FF
:103130006C62AE62002200212800FFF7D1FF06205A
:1031400000F07CF98000A101891901F073FC70BDC9
:103150000026024CECE7C046FEFF0000FFFF000027
:1031600010B505394901013AD2001143002B09D0AD
:1031700002220A43012B07D0002111436E22FFF7E0
:10318000AFFF10BD0022F4E70421F6E7002909D0C3
:103190000A22064B9C466044434258414000044B7F
:1031A000C252704780225200F3E7C0460080FCBF45
:1031B000804F002070B505000C00062000F03EF99D
:1031C000061E27D0164B9D4226D08022D203154BD7
:1031D0001A60154B1A60154B9B6811009943FAD180
:1031E00000212800FFF7D2FF21002800FFF78AFF07
:1031F00006000023012208212800FFF7B1FF2A0062
:103200002C3280239B01134310221A60084B2B633E
:103210000323AB64300070BD80221204D7E7C046A0
:103220000080034000E0004000F0004000C000408B
:1032300001030000F8B5DE4657464E464546E0B568
:1032400005000F0092460A9A934250D31A0E9146F7
:103250001E020A9A00233000494601F029FC8046EC
:103260006C006419A400304B9C466444636883423C
:1032700000D260602B1FDBB29B46012B3DD9C023DF
:103280009B012343802212011A60AB00274A995800
:10329000002907D0506901F0CDFB431C5800C0182D
:1032A0000338FDD253465A0123685A40E0231A409E
:1032B00080235B0123431A605A46012A28D98023C0
:1032C0009B012343802212011A60434663604246F9
:1032D00000233000494601F0EBFBAD00134B585181
:1032E0000120F0BCBB46B246A946A046F8BD104B33
:1032F000104A3321104800F0E3F9012FBFD1C02359
:103300009B01234303221A60A368DB07FCD5C9E7AE
:103310002168794003220A401A60A2680123BB4059
:103320001342FAD0CBE7C04600800040B030002006
:10333000C4A904102CAA0410D8A9041030B583B075
:103340000C2000F011F9FEF7D1F900280DD0002370
:1033500004E099002D4A2E4888500133092BF8D9F2
:103360002A4B2C4A5A6203B030BD2B4B00229A677D
:1033700000F06CF9294B01221A60274B5B6C012B82
:10338000FBD1274B03221A60234B9B6B012BFBD1F4
:10339000013300930433234A0121234800F054F8F9
:1033A00005230093214A0121214800F04DF8214BCB
:1033B0000093002202210420FFF73CFF1E4D0095E0
:1033C0002B00002201210520FFF734FF104C009450
:1033D0002300002200210720FFF72CFF0094230088
:1033E000002200210820FFF725FF0A4B009323004D
:1033F000002200210920FFF71DFF00952B0000226D
:1034000000210620FFF716FFADE7C046B0300020D0
:10341000006CDC021BB70000008000403CB00040A4
:1034200030B00040002F685900800240008C864771
:1034300000C00240001BB700405973078000014BD9
:10344000C0587047B0300020F0B5C64600B5040043
:103450000E0017001D00374801F0ECFA8046364B8D
:10346000FA18364B9A4239D80100380001F0E2FAD6
:103470000200103A98235B009A4235D86B1E062B47
:1034800038D8069B013B062B34D83F09474537D334
:103490002D04069B1A0315432368002B36DB284BAB
:1034A0009C4244D080225201264B1A60264B1A605F
:1034B000264B9B6811009943FAD12660A060231D1A
:1034C000C02292011A43212313602368002BFCDAE7
:1034D000E5600823136080BCB846F0BD1C4B1D4A54
:1034E00011211D4800F0ECF81C4B1A4A19211A480A
:1034F00000F0E6F81A4B174A1C21174800F0E0F8D4
:10350000184B144A2321144800F0DAF822683F23AC
:103510001340B342C3D1A3681B051B0D8342BED128
:10352000E368EE22D2021340AB42B8D1D3E7802247
:103530009201B9E7001BB70080E84BD380F8A932AD
:1035400000C0024000E0004000F0004000C0004029
:103550003CAA04106CAB04109CAA0410E8AA041046
:1035600004AB041050AB041080239B000343014ABA
:10357000D362704700800540024B1A68024B5A60C4
:103580007047C046783A00200080054010B5020020
:10359000164B8020C0051860154B1648186000298E
:1035A0000AD0154BE021C9041960002A09D1124B39
:1035B000802212061A6010BD0C4BE021C90419606C
:1035C000F3E753019B1A9800801800010B4B186019
:1035D00080235B04984202D3084B094A1A60FFF724
:1035E000CBFF054B8022D2051A60E4E700B005400E
:1035F00008200140FCFF010000A00540783A0020AF
:10360000FFFFFF0010B5030010000C4A8024E40502
:103610001460002B0DD001221343094A094CD461D8
:10362000094C5C401462516293620021FFF7AEFFC7
:1036300010BD034B0022DA61F7E7C04600B0054039
:1036400000800540D3C007B02D3FF84F064BAA229B
:1036500012011A602F22DA60044B054A1A60024BED
:103660005B68002BFBDA70470040024000600240BC
:1036700000B0FA0000BEFDE703000A4A1268002A03
:1036800008D0084A1068C318074A9A4206D3054A68
:1036900013607047034A05491160F2E70120404278
:1036A000F7E7C0467031002000000420B04F002032
:1036B0000020704701204042704710B5FFF7DAFF45
:1036C00010B582B00C001900002A0CD0084B002A5B
:1036D0000BD00192009323000200064802F04AFE3C
:1036E0000120FFF7C7FF044BF1E7034AF1E7C046AB
:1036F00078AB041088AB04103C8D041070B52B4BD4
:103700002B4A1A602B4B2C4A1A602C4B9A682A4B76
:103710009343FAD12A4C01E008CC9847294B9C42AC
:10372000FAD3FFF70BFE234B274A1A60234B9B6803
:10373000DB43DB01FAD1254B40229A675A671A67AF
:10374000DA66234C09E0234B234A87212348FFF7FD
:10375000B7FF2000FEF7DEFB0834214B9C4209D264
:103760002368002BF5D0012BEDD12000FEF7DFFB05
:103770000834F2E71B4CA1681B4DC022280002F060
:1037800091FCA560EFF30583002B00D000BEFEF78F
:1037900039F8FEF795FBFEF72DFF144C01E008CC3D
:1037A0009847134B9C42FAD370BDC04600E00040DE
:1037B000BFCDFBFE00F00040FE7F3C0000C000409B
:1037C0008025002090250020FFFFFF0100F0014030
:1037D00078250020B8AB041038AC0410D8AB041026
:1037E0008025002000ED00E0000000209025002052
:1037F000A02500200FB400B583B0084802F08AFD70
:10380000049B002B07D005A90191180002F092FD3E
:10381000034802F07FFD0120FFF72CFF28AC0410C5
:103820000C8D0410704710B5002802D00B68496851
:10383000984710BD0100002007E083001B185B00C3
:10384000501C08601078C01830380A681378303B74
:10385000DBB2092BF1D97047F0B5DE4657464E462C
:103860004546E0B583B093461F000C9B9A460D9CDD
:103870000E9B99460F9B9B0703D0B8460F0006008E
:1038800022E00192A34688464E46B9460700B4425C
:1038900007D2551C4B4641462020B84701342A0028
:1038A000F5E73D004F465C46019B9B46B1464646C8
:1038B000B84637002E0007E0013C551C5346185D02
:1038C00043463900B0472A00002CF5D135003E00B0
:1038D00047460F9B9B0707D4100003B0F0BCBB46C4
:1038E000B246A946A046F0BDB0464E46B9462F00A6
:1038F0005D46531BB342EFD2541C4B464146202039
:10390000B8472200F5E7F0B5CE46474680B585B00A
:10391000944698460C9D0D9C0EAB1B789946109AC8
:10392000119B129EB7071CD4002B0CD0F7070AD5A9
:103930004F46002F02D10C37374204D0013B02E042
:1039400030272F550134944201D21F2CF8D9F707A4
:1039500007D59C4205D21F2C03D830272F550134A0
:10396000F5E7F70615D5770505D4002C03D094426A
:1039700024D09C4222D00F9A102A2BD00F9A102AC2
:1039800030D00F9A022A35D01F2C02D830222A5567
:1039900001341F2C05D84A46002A31D02D222A5541
:1039A0000134039602930194009543466246FFF763
:1039B00053FF05B0C0BCB946B046F0BD621E012C35
:1039C00006D00F9F102F01D01400D4E7023CD2E79D
:1039D0001400D0E7B206D1D41F2CCFD878222A55B4
:1039E0000134D1E7B206CCD51F2CCAD858222A55AB
:1039F0000134C9E71F2CC7D860322A550134C3E708
:103A0000720703D52B222A550134CAE73207C8D5DD
:103A100020222A550134C4E7F0B5DE4657464E460B
:103A20004546E0B593B081468A46089209931CAB9F
:103A300010CB1B789B461E9D219B9846002C03D1E2
:103A4000102342469A4390468023DB0046461E40A0
:103A500042461A4212D0002C22D000260EE030330B
:103A6000D9B2771C0AAB99552900200000F0E2FF7B
:103A7000AC4216D31F2F14D83E00040029002000AA
:103A800000F0D8FFCBB2092BE9D94246920605D502
:103A90004121C918C9B20A39C9B2E2E76121F8E780
:103AA000270043460693209B05931F9B0493039591
:103AB0005B46029301970AAB0093099B089A514613
:103AC0004846FFF720FF13B0F0BCBB46B246A946FC
:103AD000A046F0BDF0B5DE4657464E464546E0B539
:103AE00095B0089009910A920B931E9E1F9C20ABE3
:103AF0001B789B46229B9946239D269B9A46330022
:103B0000234303D1103352469A4392468023DB006D
:103B100057461F4052461A4219D0330023432DD036
:103B2000002714E03033DAB27B1C98460CABDA5530
:103B30004A462B003000210000F0BAFFA5421FD8F2
:103B400019D043461F2B1BD8474606000C004A4697
:103B50002B003000210000F0ABFFD3B2092BE1D9DC
:103B60005246920605D54122D218D2B20A3AD2B2B2
:103B7000DAE76122F8E7B145E3D901E0002398468E
:103B800053460693259B0593249B04934B4603932E
:103B90005B460293434601930CAB00930B9B0A9A3E
:103BA00009990898FFF7AFFE15B0F0BCBB46B246C6
:103BB000A946A046F0BD0000F0B5DE4657464E4689
:103BC0004546E0B591B083468A460C9298461A9CC9
:103BD00008941B9D099522002B002000290001F06C
:103BE000FAF9002800D0E5E001225242D74B20002C
:103BF000290001F0EBF9002800D0DBE0012252425D
:103C0000D34B2000290001F0CBF9002800D0D1E0EF
:103C100000220023089E3000099D290001F0C0F910
:103C2000002800D0DDE008980999069007918023CC
:103C3000DB001E9A1A400D921E9A1A4201D10623E9
:103C40001C930698079904000D000A000600024321
:103C500000D1D1E0080D4005400DBE4CA4466044A3
:103C60000A03120BBC4B13431F0001F0C7F9BB4AF8
:103C7000BB4B01F04AF9BB4ABB4B01F01FF90400F2
:103C80000D000022B94B3000390001F00EF9B84A9E
:103C9000B84B01F03AF902000B002000290001F0B6
:103CA0000DF901F0C3F9814601F0A8F904000D00F7
:103CB000B14AB24B01F029F90022B14B01F0FEF8F4
:103CC00001F0B4F90600AF4AAF4B2000290001F023
:103CD0001CF904000D00300001F090F9AB4AAC4B28
:103CE00001F013F902000B002000290001F0DDF8BB
:103CF00004000D0002000B0001F007F90A900B917F
:103D0000A44BF31800261F0522002B0020002900D9
:103D100001F0D4F80E900F9122002B00002080219A
:103D2000C90501F0C2F804000D0000229A4B0A9860
:103D30000B9901F0CCF80022984B01F0BFF802007B
:103D40000B000A980B9901F0C2F80022944B01F085
:103D5000B5F802000B000A980B9901F0B8F80200C0
:103D60000B002000290001F0A9F802000B000E98BA
:103D70000F9901F0ACF80022774B01F09FF8320068
:103D80003B0001F0C2F806000F0004000D00069A87
:103D9000079B01F01BF9002830D001235B429C46B1
:103DA000E14400227D4B3000390001F090F804001E
:103DB0000D0023E01E9B04931D9B03931C9B029309
:103DC000089A099B0092019343460C9A5146584623
:103DD00000F0FCF811B0F0BCBB46B246A946A046C4
:103DE000F0BD0023002406930794069680231B064B
:103DF0009C46654407951AE7002399464B46633372
:103E0000C62B1ED804261E9B1B0526D52B0023433C
:103E10000FD0644A644B0698079901F0CFF8002848
:103E200079D00022614B0698079901F0B9F8002873
:103E300071D01C9B4B4506DD4A46981A431E1C93C5
:103E400003E00526DFE700231C938023DB001E9A96
:103E50001A431E920026002399461D9B9E4264D25F
:103E60009F1B02231E9A1A400A921E9A134202D0E6
:103E7000002E00D000274B46002B07D022002B003D
:103E80000698079901F023F8069007910022002375
:103E90000898099901F084F8002848D1444B1E9AEB
:103EA0001340049303971C9B0293069B079C00936B
:103EB000019443460C9A5146584600F087F8002E6C
:103EC00000D187E71E9B9B063DD54525441C4346F4
:103ED000020051462800D8474B46DA179B1853403A
:103EE00005220592013E0496002203920A320292B4
:103EF0004A46D00F0190009343462200514658464F
:103F0000FFF78AFD0A9B002B00D163E702005F46A2
:103F10000C9E1D9D54E01C9B002B9ED00D9B002BE6
:103F20009BD01C9B013B1C9397E7002799E7069CBD
:103F3000079D2200290080200006844661440B0072
:103F400006920793AAE76525C0E7C046FFFFEF7F0B
:103F5000FFFFEFFF01FCFFFF0000F03FFB799F50E8
:103F60001344D33FB3C8608B288AC63F0000F83F94
:103F700061436F63A787D23F71A379094F930A40CA
:103F80000000E03F1655B5BBB16B0240EF39FAFEB9
:103F9000422EE63FFF03000000002C4000002440BA
:103FA000000018402D431CEBE2361A3F80842E415E
:103FB000FFF7FFFF541C434651462020B84722001C
:103FC000931BAB42F6D3100004E7C046F0B5DE46C3
:103FD00057464E464546E0B595B006900791934644
:103FE0009946209F1E9A1F9B1000190000F0F3FFB6
:103FF000002831D101225242BF4B1E981F9900F078
:10400000CFFF002837D101225242BC4B1E981F9986
:1040100000F0DCFF00283DD10022B94B1E981F990B
:1040200000F0D4FF002850D10022B64B1E981F99F3
:1040300000F0B6FF002848D1002200231E981F99E7
:1040400000F0AEFF002850D100239846229B5B056C
:1040500000D4B6E0002458E0229B0393219B0293F6
:1040600003230193A84B00934B465A4607990698A1
:10407000FFF7F2FB0EE1229B0393219B02930423A3
:104080000193A24B00934B465A4607990698FFF7B7
:10409000E3FBFFE00423229A1A4022990B4210D03E
:1040A0009B4B002A0FD0042222990391219902915F
:1040B000019200934B465A4607990698FFF7CCFBAE
:1040C000E8E0944BEDE70322EEE7229B0493219B6B
:1040D000039302971E9B1F9C009301944B465A46E4
:1040E00007990698FFF768FDD4E01E9A1F9B0020F1
:1040F000002100F0DAFE1E901F9101239846A5E7EB
:104100000CAB30221A55013F01341F2C01D8092F66
:10411000F6D81E981F9900F089FF050000F06EFF89
:1041200002000B001E981F9900F0BFFEFA007A4BA8
:104130009B181A685B680A920B9300F0E6FE0890E1
:10414000099100F097FF060000F054FF02000B00F9
:104150000898099900F0A9FE0890099100226F4B78
:1041600000F034FF00282ED00136300000F042FF6E
:1041700002000B000A980B9900F018FF002801D0EC
:1041800001350026002F2CD1280000F037FF020057
:104190000B001E981F9900F088FE06000F000022F9
:1041A0005E4B00F0FDFE002846D100225B4B300044
:1041B000390000F00BFF00283ED1EB073CD501355C
:1041C0003AE0062746E70022544B0898099900F088
:1041D000E7FE0028D6D1002E01D0F307D2D5013654
:1041E000D0E7AA461F2C11D8013F0A21300000F069
:1041F00021FC651C30310CAB19550A21300000F050
:1042000019FC092E0ED906002C00EBE755461F2C91
:104210000CD87B1E002F09D00CAA302111551F008D
:104220000134F4E72B0055461C00F0E71F2C03D89F
:104230000CAB2E221A5501341F2C10D80A2128004D
:1042400000F0D0FB661C30310CAB19550A21280058
:1042500000F0C8FB051E01D03400EDE73400032355
:10426000229A1340012B1CD01F2C06D84346002B4A
:1042700032D00CAB2D221A550134229B0393219B83
:10428000029301940CAB00934B465A46079906984B
:10429000FFF7E2FA15B0F0BCBB46B246A946A0460D
:1042A000F0BD219B002B13D04346002B02D10C33D1
:1042B00013420FD0219B013B2193190003E00CAB6B
:1042C00030221A5501348C42CED21F2CF7D9CBE7BD
:1042D0002199F8E72199F6E7229B5B0704D50CABFF
:1042E0002B221A550134C8E7229B1B07C5D50CABFE
:1042F00020221A550134C0E7FFFFEFFFFFFFEF7FD9
:1043000065CDCD4165CDCDC154AC041058AC041081
:104310004CAC041048AC041040AE04100000E03F68
:10432000F0B5DE4657464E464546E0B593B0824668
:104330008B4690461193002900D1EBE200275546A9
:10434000119B1878002800D1E7E2252809D07C1CB1
:1043500043463A005946A847119B01331193270061
:10436000EEE7013311930024119A11780B00203BE2
:10437000D8B2102803D88300D048C3589F460B00FA
:10438000303BDBB2092B2CD92A292FD000230A93EA
:10439000119B1A782E2A39D000239A46119A137845
:1043A000683BD9B2122976D88B00C549CB589F46B5
:1043B00001231C4301321192D6E702231C43013230
:1043C0001192D1E704231C4301321192CCE7082358
:1043D0001C4301321192C7E710231C430132119292
:1043E000C2E711A8FFF726FA0A90D1E71C9B1A1D15
:1043F0001C921868002804DB0A90119B013311936A
:10440000C6E702231C4343420A93F6E78022D20008
:1044100014435A1C11925A781300303BDBB2092B1B
:1044200004D92A2A07D000239A46B7E711A8FFF734
:1044300001FA8246B2E71C9B1A1D1C9218680028DC
:1044400004DB8246119B01331193A7E70020F8E7B4
:1044500080235B002343511C119152786C2A01D0B8
:104460001C0018E0C0239B001C430131119112E095
:1044700080232343511C11915278682A01D01C00DB
:1044800009E0C0231C430131119104E080235B004B
:104490001C4301321192119B18780300253BDAB2BC
:1044A000532A00D92CE29300864AD3589F46802392
:1044B0009B001C4301321192EDE780235B001C43FB
:1044C00001321192E7E7782809D0582838D06F28B0
:1044D00038D0622838D010239C430A2600E01026EA
:1044E000582833D0692803D0642801D00C22944383
:1044F000630501D50122944369282AD0642828D075
:10450000A30500D59FE0E30500D5B8E0630600D41D
:10451000CAE01C9A111D1C911168FF220A400594E3
:104520000A9B04935346039302960023019300923F
:1045300043463A0059462800FFF76EFA070027E085
:104540001026CDE70826CBE70226C9E72022144330
:10455000C8E7A30520D4E30550D4630666D51C9AAA
:10456000111D1C911168FF220A40D317D118594020
:1045700005940A9B0493534603930296D20F01922B
:10458000009143463A0059462800FFF745FA0700D4
:10459000119B01331193D3E61C9BDA1D07218A433B
:1045A000110008311C91116853689C46DB170C936D
:1045B0000D930C9A0D9B100048400E90624653409C
:1045C0000F930E980F990C9A0D9B801A99410E909B
:1045D0000F9108940A9B0793534606930496002371
:1045E00005936346DA0F02920090019143463A0028
:1045F00059462800FFF76EFA0700C9E71C9A111DFB
:104600001C911268D317D118594005940A9B049342
:10461000534603930296D20F0192009143463A000B
:1046200059462800FFF7F8F90700B1E7230605D53A
:104630001C9A111D1C910023D25E96E71C9A111D35
:104640001C91126891E71C9BDA1D07218A43110017
:1046500008311C9108940A9B0793534606930496CD
:104660000023059302931368546800930194434612
:104670003A0059462800FFF72DFA070088E71C9AF0
:10468000111D1C9105940A9B0493534603930296B3
:10469000002301931368009343463A0059462800CB
:1046A000FFF7BAF9070073E723060DD51C9A111D11
:1046B0001C9112681204120C31E7C04660AC041061
:1046C000A4AC0410F0AC04101C9A111D1C911268CB
:1046D00025E746281AD01C9B0733072293431A006C
:1046E00008321C9204940A9A0392524602925C6821
:1046F0001B680093019443463A0059462800FFF78F
:1047000065FC0700119B0133119319E620231C431C
:10471000E1E7672801D0472802D180231B011C4311
:10472000452801D0472801D120231C431C9B073377
:10473000072293431A0008321C9204940A9A0392A7
:10474000524602925C681B680093019443463A000B
:1047500059462800FFF730FA0700119B01331193E7
:10476000EEE502231A002240924623421FD0012484
:104770001C9B1A1D1C927A1C9146187843463A00DD
:104780005946A8475346002B16D1119B013311936C
:104790004F46D5E5561C434659462020B8472300CE
:1047A00032005C1C9D42F5D83D001700E0E7012374
:1047B0003A002F000A9DF4E74A46A9460A9D06E002
:1047C000571C434659462020C84734003A00661C0F
:1047D000A542F5D84D469146D7E71C9B1A1D1C9261
:1047E0001B6899465346002B00D1013B4E4601E021
:1047F000013613003278002A02D05A1E002BF7D15E
:104800004B46F21A10928023DB0026001E401C4209
:1048100003D0524501D95346109302231A00224077
:104820000B92234205D03A0037004C46A946554624
:1048300020E03A00109B5F46B3462E0006E0551C70
:10484000434639002020B04723002A005C1C0A9907
:104850009942F4D835005E46BB46109437004C466A
:10486000A946554606E01D000134561C43465946EC
:10487000C84732002078002804D0002FF4D06B1EE7
:10488000002DF0D117004D460B9B002B03D1119B3F
:104890000133119354E50A9F109B06E0561C4346D2
:1048A00059462020A847230032005C1C9F42F5D8BF
:1048B0001700ECE721231C431C9B1A1D1C921B684C
:1048C0000093059408230493534603931023029303
:1048D0000023019343463A0059462800FFF79CF80D
:1048E0000700119B013311932AE57C1C43463A00D3
:1048F00059462520A847119B0133119327001FE536
:104900007C1C43463A005946A847119B013311933A
:10491000270015E50A4B9A4610E5AA46474502D3FB
:1049200043465A1E00E03A00434659460020D0470D
:10493000380013B0F0BCBB46B246A946A046F0BD55
:104940002538001000B585B0029003910121009335
:1049500013004A4202A90248FFF7E2FC05B000BD7D
:104960002738001001480421014B1847901C0020F3
:10497000AD490010014B5B6818470000901C0020F7
:10498000014B9B6818470000901C002010B50100E7
:1049900018231B8814221088984710BD10B50100F9
:1049A00018231B8816221088984710BDF0B5C646FC
:1049B00000B507000E0000250123984600E00135F0
:1049C000B5420AD2AC003C192068FFF7DFFF206037
:1049D0000028F4D100239846F1E7404680BCB84651
:1049E000F0BD0000124A936F9B0815D29066D16605
:1049F000002905D0FFE7FFE7FFE7516F106F704711
:104A000004B580210906C2175140002800D0C843D0
:104A100044F03AF8002104BDF0B5146E556E576F9E
:104A2000166FFFF7E3FF1466556657671667F0BD0C
:104A3000000000D0114A936F9B0813D21066516694
:104A4000002905D0FFE7FFE7FFE7516F106F7047C0
:104A500004B5002801D00020C04344F015F800211F
:104A600004BDC046F0B5146E556E576F166FFFF754
:104A7000E5FF1466556657671667F0BD000000D065
:104A800094464A4A926F9208624601D228E0C04694
:104A9000F0B5464E346E756E776F366F00F020F8C5
:104AA0009446424A14665566576716676246F0BDDB
:104AB00094463E4A926F9208624601D254E0C04644
:104AC000F0B53A4E346E756E776F366F00F04CF875
:104AD0009446364A14665566576716676246F0BDB7
:104AE000002B24DB11D000293EDA00B5C943404237
:104AF00000D1013100F038F8C943404200D1013102
:104B0000DB43524200D1013300BD002AEBD1002823
:104B100001D1002905D00020C90FC90701D1C04328
:104B2000410800B543F078FF0022002300BD00B526
:104B300000290ADBDB43524200D1013300F014F8B4
:104B4000C943404200D1013100BDC943404200D1B8
:104B50000131DB43524200D1013300F005F8DB4361
:104B6000524200D1013300BD002923D1002B18D1BE
:104B7000002A0CD0BC460D4F38667A66002100230F
:104B8000FFE7FFE7FFE77A6F386F67467047002857
:104B900001D00748010000B543F03EFF002200238A
:104BA00000BD02000B00002000217047000000D073
:104BB000FFFFFFFF002B00D0BFE0130C28D1002A1D
:104BC000E7D080B4114F39667A66FFE7FFE730B46B
:104BD000040C7B6F396F1B0423433B667A66FFE747
:104BE000FFE7FFE7C04684B27B6F3D6F1B042343A2
:104BF0003B667A66FFE7FFE7C04600232C042D0CD6
:104C00007A6F386F00196941B0BC7047000000D05E
:104C1000F0B594460025140E01D112020835140F88
:104C200001D112010435940F01D192000235D40F45
:104C300001D152000135D40B0134254F7C66254C3F
:104C40003C660E0C93B2FFE7FFE7FFE73C6F66435D
:104C5000360C7703BE467343DF0B5B04C01AB941C1
:104C6000130C7343DB18C91ACE086643360CB644DE
:104C700093B273431F0F1B01C01AB941130C734346
:104C80001F0B1B05C01AB941860D8F023E436643B8
:104C9000360C092D24DB520A7243801A7703460A28
:104CA0006643360C16235B1BDE40DF40BF196446AB
:104CB0006643821B7046043506330100D940A84084
:104CC000C01900D30131A24206D20023F0BD00007A
:104CD000000000D0FFFFFFFF121B0130F3D3F1E70C
:104CE00009277F1BFE406446A2B27243801A00D29D
:104CF0000139220C7243130C1204821A99410B00E1
:104D00007046043513370100F940A840801900D3DC
:104D10000131002B02D1A2420AD2F0BD013000D3F2
:104D20000131121BFAD2013BF8D1A24200D2F0BDF0
:104D3000013000D30131121BF7E7F0B51C0C00D095
:104D400080E00CB400251C0A04D11B02160E33436C
:104D5000120208351C0B04D11B01160F334312013C
:104D600004359C0B04D19B00960F3343920002350F
:104D7000DC0B02D192185B4101351C00971864418D
:104D80000134464F7C66464C3C660E0CFFE7FFE75D
:104D9000FFE7C0463C6F6643360C7703BE4697B2CA
:104DA0007743C01B00D20139C01B00D201399FB22A
:104DB0007743C91BC91B170C77437E04FF0B801B6D
:104DC000B941CE086643360C0C2D33DBB644120BCA
:104DD0001F053A431B0B97B27743C01B00D2013922
:104DE0009FB27743C91B170C77433E043F0C801BCF
:104DF000B941860D8F023E43664329277F1BFE4043
:104E00000C3D7746AF40BF1930BCA2B2ABB2724383
:104E10007343801A9941220C7243130C1204801AB6
:104E2000994102000B000137001BA941F9D2781EFD
:104E30000021F0BD0C277F1BFE4077467F0BAF4063
:104E4000FF19E0E700245D1C07D0144F7D6639662A
:104E5000FFE7FFE7FFE7FFE73C6F95B29EB26543D0
:104E60006643401BB141150C1E0C65436643360476
:104E70002F0C3E432D04401BB141994204D2020045
:104E80000B0020000021F0BD01D19042F7D3801A21
:104E9000994101349942F2D3F6E70000000000D0B6
:104EA000FFFFFFFF48404140484018B41B4B5B6880
:104EB000FC46019308BD04DF7F53001018B4174B64
:104EC0001B68FC46019308BD00DF8953001094461F
:104ED000134A926F920809D2624618B40F4BDB68EE
:104EE000FC46019308BD0CDF415600100C4AF0B59A
:104EF000146E556E576F166F6246FFF7EEFF084A45
:104F00001466556657671667F0BD18B4034B9B6867
:104F1000FC46019308BD08DFE5540010584D002001
:104F2000000000D0FFB550404240504059404B4037
:104F3000594000E0FFB5154F4C00640D03D0BC4252
:104F400004D10C0314D80020090D09055C00640D80
:104F500003D0BC4204D11C030AD800221B0D1B0540
:104F600001264B4009D44B4003D58B4200D18242ED
:104F7000FFBD9942FCD19042FFBD0B43DB180343B8
:104F80001343F5D0C9434918FFBD0000FF070000D7
:104F900000B5FFF7CFFF01D0002000BD012000BD0C
:104FA00000B5FFF7C7FF804100BDC04600B5FFF761
:104FB000C1FF01D9002000BD012000BD00B5FFF7F1
:104FC000B1FF01D9002000BD012000BD00B5FFF7F1
:104FD000A9FF804100BD012040054A00121804D8F5
:104FE0005A00121801D80020704701207047002095
:104FF000704700000021002805D17047C1174840C4
:10500000401AFAD0C90713B5064B1B6898470CBC69
:10501000441CA2401005120B0349091B0905194342
:10502000114310BD584E00201F04000010B54C0065
:10503000620D8023D218DB00D21A5B057E2A10DDB8
:105040009E3A13DACC170903490819435242D1405A
:10505000640001341532202A05DAD0400843604349
:1050600010BD002010BD0846604310BDC80FC01819
:10507000013810BD18B4044B5B6AFC46019308BDAF
:1050800024DFF15700100000584D002018B4044BE5
:10509000DB6DFC46019308BD5CDFFD58001000008D
:1050A000584D002018B4044B5B6EFC46019308BDBC
:1050B00064DFF55800100000584D0020C94211D39C
:1050C00000B549004908002200F024F8002904D462
:1050D000002240428A41114600BD8021090600207D
:1050E00000BD000018B4044BDB6EFC46019308BD04
:1050F0006CDFFF5700100000584D002018B4044B1F
:105100005B6FFC46019308BD74DF19580010000066
:10511000584D002018B4044B9B6FFC46019308BD0A
:1051200078DF1B5800100000584D002018B4044BC5
:10513000DB6FFC46019308BD7CDF8958001000003E
:10514000584D002070B513231C78012C14D0012C6D
:1051500014DC022C02DC1F4A1F4B9A641F48FFF725
:1051600015FC1F4B186070BD99001A481A4A8850E8
:1051700001331F2BF8D9EAE70023FAE71948FFF7B4
:105180000DFC05001848FFF709FC023803789B0066
:105190007F2B19DD802229000F4800F083FF022CAD
:1051A000D7D1124B1A88B5231B029A4209D1104B52
:1051B0001A88104B9A4204D10F4B1A880F4B9A420F
:1051C000C7D00020FEF716FB0D4B0E4A32210E48C9
:1051D000FEF776FA45530010584D00204C3300007E
:1051E000584E00205344000053460000543800003D
:1051F000D8380000494600009C380000594600009D
:1052000090AE04103CAF0410E4AE041070B50B0D6A
:105210005B055B0D224A944663445A1C26DB5A1CEC
:105220002AD03422D21A002A1FDD3324E41A202384
:105230005B42E51827D40126AE4033000125A54086
:105240002A0012184B4120214942651821D4022618
:10525000AE4031000225A5402800002544428D4182
:105260001600264030002B40190070BD0022C90FE7
:10527000CB0710001900F8E7CB0FDB070020094A25
:105280001A431100F1E720252D1B0126EE403300C3
:10529000D4E720252D1B0226EE403100DAE7C04678
:1052A00001FCFFFF0000F03FF0B5C64600B5060068
:1052B0000F000B0D5B055A0D002B27D01F4BD2188A
:1052C0002CD43424A31A9846002B24DD203B9C4682
:1052D00029D401256446A5402B0001254446A5405C
:1052E0002A0001246442E517A4185D41002903DA6D
:1052F00024184D4126002F00002554429D413300C3
:10530000234018003B002B40190004E00022C90F85
:10531000CB071000190080BCB846F0BD002909DA9F
:1053200000200749F7E720254346ED1A0124EC4009
:105330002300D2E700200021EDE7C04601FCFFFF7B
:105340000000F0BF07B56046002800D100BE01880C
:105350000A0A0230DF2AFAD1C9B2820804D30288CD
:1053600040880004104300E00068024A5050039057
:1053700007BD0000584D00200FB403BC0CBCF0B5B5
:105380000124E407634000E0F0B50C0DCF0F661E6A
:105390003605891B640503D3C943404200D301315C
:1053A000640D03D0661CF60A07D0E41B00207F00C2
:1053B000791C89078912803C24031D0DDF0F6E1EA6
:1053C00036059B1B6D0503D3DB43524200D30133EB
:1053D0006D0D03D06E1CF60A07D0ED1B00227F0076
:1053E0007B1C9B079B12803D2D032F1B661B58D4F3
:1053F000A446202E46DA20371400BC401D00BD40D4
:10540000F24033412A4380185941CB0F05D0C9439C
:10541000C043002264425041514162464D0D28D1A3
:105420000D0D07D100281FD0241940414941013AF0
:105430000D0DF9D0640006D3013000D30131002CEA
:1054400001D140084000013A0BD4941CE40A04D175
:1054500012051144DB071944F0BDD907204B19434D
:1054600000E0D9070020F0BD0029DDD1002CDBD100
:10547000F0BD0132C6074008CD0728434908002E79
:10548000E1D0D9E73C2E29DA203E40371400BC4059
:1054900000D00124F24014431A00BB401C43D31730
:1054A000ACE7AC46202F08DA20360400B4400D00EB
:1054B000B540F84039412843A5E73C2F0CDA203F9E
:1054C00040360400B44000D00124F84004430800F2
:1054D000B1400C43C117EAE710001900002494E71B
:1054E0000000F07FF0B50C0D661E3605891BE60A3C
:1054F0006405640D02D0651CED0A04D00020012172
:105500000905803C2403A4461C0D671E3F05DB1BD8
:10551000E70A6405640D02D0651CED0A04D0002280
:1055200001231B05803C24037740644497B484B274
:1055300096B27443070C7E43150C6F4380B26843E8
:10554000361802D3012000043F183004350C00192E
:105550007D41844688B29AB250430C0C62431F0CC2
:105560007C438EB27E43921902D301263604A419DD
:105570001604170C3618674101BC81B29AB2514328
:10558000040C62431B0C5C4380B25843121802D3D4
:105590000120000424181004130C401863412D1836
:1055A0005E410020474106BC88B293B258430C0CC0
:1055B0006343120C544389B251435B1802D3012157
:1055C0000904641819041A0C091862416D1856412F
:1055D0000020474118BCF902720D1143F0026A0D18
:1055E0001043ED020A0D03D16D1940414941013BC1
:1055F000124E9B1B7600B3420ED26D0007D30130D2
:10560000002671416646354301D1400840001B0524
:10561000C918E4072144F0BD0BDA013306D101308B
:1056200004D101314F0D01D04908F2E7E107002014
:10563000F0BD013631050020EBE70000FF0300005C
:10564000F0B51C0D671E3F05DB1BE70A6405640D02
:1056500002D0661CF60A04D0002201231B05803C00
:105660002403D0252D060026F6432E661E096E66FD
:10567000CE0FF619B44649004F0D02D07E1CF60A33
:1056800003D000200021403F3F033E1BB600B4443E
:10569000013F7F05C91B49082E6F013676089C0221
:1056A000950D25437543ED137543AD1301356D100D
:1056B000F603761B0CB4CC02450D2C43A2B2B3B258
:1056C0005A43270C7B43350C6F43A4B26C431B1920
:1056D00002D3012424043F191C041D0CA4187D418D
:1056E00024196D41009A91B2ACB26143170C7C430E
:1056F0002B0C5F4392B25A43A41802D30122120426
:10570000BF182204230C52187B41019C6C431B19C7
:10571000520ED9010A434401A01A81B2B2B25143D8
:1057200003145A43360C734387B27743D617D21902
:1057300000277E4136049B191704160C7F185E4122
:105740007316ED18F301002680337541A90F06D1B9
:105750006400690AE8055B0A184309D22FE00422B5
:10576000944480337541A90AA8059B0A184326D39F
:10577000404149412404009A019B0D005543641B9C
:105780004343E41A95B286B27543170C7E43030C6B
:105790005F4392B25A43B61802D301221204BF18D3
:1057A0003204330C52197B4152429C41002C02D4EA
:1057B0000022013051414008CA071043490802B095
:1057C0006246D7079210084BD218084B9A4203D270
:1057D00012058918C919F0BD0020002A01DC390022
:1057E000F0BD01331905F5E7FD030000FE070000D9
:1057F000002200B5203200F010F8080000BD0022A1
:1058000000B500F00CF8CA179A4200D100BDD84389
:105810000121C907414000BD00220B150AD410B573
:10582000944600F0A7F81414013400DA0021CB17D5
:10583000144C20470020002170476244343A0CD4B5
:105840000C2A07DA04009140904052422032D440A2
:10585000214310BDD843D94310BD203207D40C4694
:105860009440524220321141D040204310BD0800E4
:10587000C917203203D452422032104110BD180003
:10588000190010BD3B5800104A00520D144BD21A9B
:1058900013DDFF2A1EDAD205CB0FDB071A43C30044
:1058A000400F0903490A084310435B0001D301D0AC
:1058B000013070474308FBD2704702D0C80FC007C1
:1058C00070470A0312130132F8D1420F072AF5D1AB
:1058D000012200E0FF22C80F00028018C0057047B7
:1058E0008003000000210A00002104E000210A00DA
:1058F000C11704E00022002306E0C0460022CB17B7
:1059000058405940C01A994130B5184CA21A002984
:1059100003D1010010D00020203A4C1512D104D23E
:10592000013A001849414C0DFAD3114CA24204D25D
:1059300012058918DB07C91830BDD243520D00206B
:105940000021F5E703D4013A00184941FBD50B3299
:105950004405C00A4D052843C90A640003D0002449
:1059600060416141E1E7E0D34408F8E73204000018
:10597000FE0700000A0DCC0F531E1B05C91A520565
:1059800003D3C943404200D30131520D03D0531C0D
:10599000DB0A07D0121B00206400611C89078912F2
:1059A000803A1203014BD21A70470000FF03000037
:1059B00051434343C9188C46110C83B24B4310B476
:1059C000040C614392B280B2504362431C041B0C2E
:1059D000001910BC59411304120CC0185141614404
:1059E0007047000048404140484000239C46114B0E
:1059F0005B68184700239C460E4B1B6818470E4AED
:105A0000936F9B0804D200239C460A4BDB6818471F
:105A1000F0B5146E556E576F166FFFF7F4FF064A18
:105A20001466556657671667F0BD00239C46014B08
:105A30009B6818475C4E0020000000D007B5484026
:105A40004140484001E0C04607B54200120E03D075
:105A5000FF2A03D1420218D8C00DC0054A00120E19
:105A600003D0FF2A03D14A020FD8C90DC90501226C
:105A7000414005D4414001D5814207BD884207BD60
:105A80000143491801D0C043001807BD00B5FFF716
:105A9000DBFF01D0002000BD012000BD00B5FFF7F5
:105AA000D3FF804100BDC04600B5FFF7CDFF01D94F
:105AB000002000BD012000BD00B5FFF7BFFF01D9E8
:105AC000002000BD012000BD00B5FFF7B7FF8041F9
:105AD00000BD491A002807D108467047C10FC90701
